{
  "@seda-protocol/contracts/src/SedaProver.sol": {
    "SedaProver": {
      "abi": [
        {
          "inputs": [
            {
              "internalType": "address",
              "name": "_admin",
              "type": "address"
            },
            {
              "internalType": "address[]",
              "name": "_relayers",
              "type": "address[]"
            }
          ],
          "stateMutability": "nonpayable",
          "type": "constructor"
        },
        {
          "inputs": [],
          "name": "AccessControlBadConfirmation",
          "type": "error"
        },
        {
          "inputs": [
            {
              "internalType": "address",
              "name": "account",
              "type": "address"
            },
            {
              "internalType": "bytes32",
              "name": "neededRole",
              "type": "bytes32"
            }
          ],
          "name": "AccessControlUnauthorizedAccount",
          "type": "error"
        },
        {
          "inputs": [
            {
              "internalType": "bytes32",
              "name": "id",
              "type": "bytes32"
            }
          ],
          "name": "DataRequestNotFound",
          "type": "error"
        },
        {
          "inputs": [
            {
              "internalType": "bytes32",
              "name": "id",
              "type": "bytes32"
            }
          ],
          "name": "DataResultNotFound",
          "type": "error"
        },
        {
          "inputs": [],
          "name": "NotAdmin",
          "type": "error"
        },
        {
          "inputs": [],
          "name": "NotPendingAdmin",
          "type": "error"
        },
        {
          "inputs": [],
          "name": "NotRelayer",
          "type": "error"
        },
        {
          "anonymous": false,
          "inputs": [
            {
              "components": [
                {
                  "internalType": "string",
                  "name": "version",
                  "type": "string"
                },
                {
                  "internalType": "bytes32",
                  "name": "dr_binary_id",
                  "type": "bytes32"
                },
                {
                  "internalType": "bytes",
                  "name": "dr_inputs",
                  "type": "bytes"
                },
                {
                  "internalType": "bytes32",
                  "name": "tally_binary_id",
                  "type": "bytes32"
                },
                {
                  "internalType": "bytes",
                  "name": "tally_inputs",
                  "type": "bytes"
                },
                {
                  "internalType": "uint16",
                  "name": "replication_factor",
                  "type": "uint16"
                },
                {
                  "internalType": "bytes",
                  "name": "consensus_filter",
                  "type": "bytes"
                },
                {
                  "internalType": "uint128",
                  "name": "gas_price",
                  "type": "uint128"
                },
                {
                  "internalType": "uint128",
                  "name": "gas_limit",
                  "type": "uint128"
                },
                {
                  "internalType": "bytes",
                  "name": "memo",
                  "type": "bytes"
                },
                {
                  "internalType": "uint256",
                  "name": "index_in_pool",
                  "type": "uint256"
                }
              ],
              "indexed": false,
              "internalType": "struct SedaDataTypes.DataRequest",
              "name": "data_request",
              "type": "tuple"
            },
            {
              "indexed": false,
              "internalType": "address",
              "name": "caller",
              "type": "address"
            }
          ],
          "name": "DataRequestPosted",
          "type": "event"
        },
        {
          "anonymous": false,
          "inputs": [
            {
              "components": [
                {
                  "internalType": "string",
                  "name": "version",
                  "type": "string"
                },
                {
                  "internalType": "bytes32",
                  "name": "dr_id",
                  "type": "bytes32"
                },
                {
                  "internalType": "bool",
                  "name": "consensus",
                  "type": "bool"
                },
                {
                  "internalType": "uint8",
                  "name": "exit_code",
                  "type": "uint8"
                },
                {
                  "internalType": "bytes",
                  "name": "result",
                  "type": "bytes"
                },
                {
                  "internalType": "uint64",
                  "name": "block_height",
                  "type": "uint64"
                },
                {
                  "internalType": "uint128",
                  "name": "gas_used",
                  "type": "uint128"
                },
                {
                  "internalType": "bytes",
                  "name": "payback_address",
                  "type": "bytes"
                },
                {
                  "internalType": "bytes",
                  "name": "seda_payload",
                  "type": "bytes"
                }
              ],
              "indexed": false,
              "internalType": "struct SedaDataTypes.DataResult",
              "name": "data_result",
              "type": "tuple"
            },
            {
              "indexed": false,
              "internalType": "address",
              "name": "caller",
              "type": "address"
            }
          ],
          "name": "DataResultPosted",
          "type": "event"
        },
        {
          "anonymous": false,
          "inputs": [
            {
              "indexed": true,
              "internalType": "bytes32",
              "name": "role",
              "type": "bytes32"
            },
            {
              "indexed": true,
              "internalType": "bytes32",
              "name": "previousAdminRole",
              "type": "bytes32"
            },
            {
              "indexed": true,
              "internalType": "bytes32",
              "name": "newAdminRole",
              "type": "bytes32"
            }
          ],
          "name": "RoleAdminChanged",
          "type": "event"
        },
        {
          "anonymous": false,
          "inputs": [
            {
              "indexed": true,
              "internalType": "bytes32",
              "name": "role",
              "type": "bytes32"
            },
            {
              "indexed": true,
              "internalType": "address",
              "name": "account",
              "type": "address"
            },
            {
              "indexed": true,
              "internalType": "address",
              "name": "sender",
              "type": "address"
            }
          ],
          "name": "RoleGranted",
          "type": "event"
        },
        {
          "anonymous": false,
          "inputs": [
            {
              "indexed": true,
              "internalType": "bytes32",
              "name": "role",
              "type": "bytes32"
            },
            {
              "indexed": true,
              "internalType": "address",
              "name": "account",
              "type": "address"
            },
            {
              "indexed": true,
              "internalType": "address",
              "name": "sender",
              "type": "address"
            }
          ],
          "name": "RoleRevoked",
          "type": "event"
        },
        {
          "inputs": [],
          "name": "ADMIN",
          "outputs": [
            {
              "internalType": "bytes32",
              "name": "",
              "type": "bytes32"
            }
          ],
          "stateMutability": "view",
          "type": "function"
        },
        {
          "inputs": [],
          "name": "DEFAULT_ADMIN_ROLE",
          "outputs": [
            {
              "internalType": "bytes32",
              "name": "",
              "type": "bytes32"
            }
          ],
          "stateMutability": "view",
          "type": "function"
        },
        {
          "inputs": [],
          "name": "RELAYER",
          "outputs": [
            {
              "internalType": "bytes32",
              "name": "",
              "type": "bytes32"
            }
          ],
          "stateMutability": "view",
          "type": "function"
        },
        {
          "inputs": [],
          "name": "acceptOwnership",
          "outputs": [],
          "stateMutability": "nonpayable",
          "type": "function"
        },
        {
          "inputs": [
            {
              "internalType": "address",
              "name": "account",
              "type": "address"
            }
          ],
          "name": "addRelayer",
          "outputs": [],
          "stateMutability": "nonpayable",
          "type": "function"
        },
        {
          "inputs": [],
          "name": "admin",
          "outputs": [
            {
              "internalType": "address",
              "name": "",
              "type": "address"
            }
          ],
          "stateMutability": "view",
          "type": "function"
        },
        {
          "inputs": [
            {
              "internalType": "bytes32",
              "name": "",
              "type": "bytes32"
            }
          ],
          "name": "data_request_id_to_result",
          "outputs": [
            {
              "internalType": "string",
              "name": "version",
              "type": "string"
            },
            {
              "internalType": "bytes32",
              "name": "dr_id",
              "type": "bytes32"
            },
            {
              "internalType": "bool",
              "name": "consensus",
              "type": "bool"
            },
            {
              "internalType": "uint8",
              "name": "exit_code",
              "type": "uint8"
            },
            {
              "internalType": "bytes",
              "name": "result",
              "type": "bytes"
            },
            {
              "internalType": "uint64",
              "name": "block_height",
              "type": "uint64"
            },
            {
              "internalType": "uint128",
              "name": "gas_used",
              "type": "uint128"
            },
            {
              "internalType": "bytes",
              "name": "payback_address",
              "type": "bytes"
            },
            {
              "internalType": "bytes",
              "name": "seda_payload",
              "type": "bytes"
            }
          ],
          "stateMutability": "view",
          "type": "function"
        },
        {
          "inputs": [
            {
              "internalType": "bytes32",
              "name": "",
              "type": "bytes32"
            }
          ],
          "name": "data_request_pool",
          "outputs": [
            {
              "internalType": "string",
              "name": "version",
              "type": "string"
            },
            {
              "internalType": "bytes32",
              "name": "dr_binary_id",
              "type": "bytes32"
            },
            {
              "internalType": "bytes",
              "name": "dr_inputs",
              "type": "bytes"
            },
            {
              "internalType": "bytes32",
              "name": "tally_binary_id",
              "type": "bytes32"
            },
            {
              "internalType": "bytes",
              "name": "tally_inputs",
              "type": "bytes"
            },
            {
              "internalType": "uint16",
              "name": "replication_factor",
              "type": "uint16"
            },
            {
              "internalType": "bytes",
              "name": "consensus_filter",
              "type": "bytes"
            },
            {
              "internalType": "uint128",
              "name": "gas_price",
              "type": "uint128"
            },
            {
              "internalType": "uint128",
              "name": "gas_limit",
              "type": "uint128"
            },
            {
              "internalType": "bytes",
              "name": "memo",
              "type": "bytes"
            },
            {
              "internalType": "uint256",
              "name": "index_in_pool",
              "type": "uint256"
            }
          ],
          "stateMutability": "view",
          "type": "function"
        },
        {
          "inputs": [
            {
              "internalType": "uint256",
              "name": "",
              "type": "uint256"
            }
          ],
          "name": "data_request_pool_array",
          "outputs": [
            {
              "internalType": "bytes32",
              "name": "",
              "type": "bytes32"
            }
          ],
          "stateMutability": "view",
          "type": "function"
        },
        {
          "inputs": [
            {
              "components": [
                {
                  "internalType": "bytes32",
                  "name": "dr_binary_id",
                  "type": "bytes32"
                },
                {
                  "internalType": "bytes",
                  "name": "dr_inputs",
                  "type": "bytes"
                },
                {
                  "internalType": "bytes32",
                  "name": "tally_binary_id",
                  "type": "bytes32"
                },
                {
                  "internalType": "bytes",
                  "name": "tally_inputs",
                  "type": "bytes"
                },
                {
                  "internalType": "uint16",
                  "name": "replication_factor",
                  "type": "uint16"
                },
                {
                  "internalType": "bytes",
                  "name": "consensus_filter",
                  "type": "bytes"
                },
                {
                  "internalType": "uint128",
                  "name": "gas_price",
                  "type": "uint128"
                },
                {
                  "internalType": "uint128",
                  "name": "gas_limit",
                  "type": "uint128"
                },
                {
                  "internalType": "bytes",
                  "name": "memo",
                  "type": "bytes"
                }
              ],
              "internalType": "struct SedaDataTypes.DataRequestInputs",
              "name": "inputs",
              "type": "tuple"
            }
          ],
          "name": "generateDataRequestId",
          "outputs": [
            {
              "internalType": "bytes32",
              "name": "",
              "type": "bytes32"
            }
          ],
          "stateMutability": "pure",
          "type": "function"
        },
        {
          "inputs": [
            {
              "components": [
                {
                  "internalType": "string",
                  "name": "version",
                  "type": "string"
                },
                {
                  "internalType": "bytes32",
                  "name": "dr_id",
                  "type": "bytes32"
                },
                {
                  "internalType": "bool",
                  "name": "consensus",
                  "type": "bool"
                },
                {
                  "internalType": "uint8",
                  "name": "exit_code",
                  "type": "uint8"
                },
                {
                  "internalType": "bytes",
                  "name": "result",
                  "type": "bytes"
                },
                {
                  "internalType": "uint64",
                  "name": "block_height",
                  "type": "uint64"
                },
                {
                  "internalType": "uint128",
                  "name": "gas_used",
                  "type": "uint128"
                },
                {
                  "internalType": "bytes",
                  "name": "payback_address",
                  "type": "bytes"
                },
                {
                  "internalType": "bytes",
                  "name": "seda_payload",
                  "type": "bytes"
                }
              ],
              "internalType": "struct SedaDataTypes.DataResult",
              "name": "inputs",
              "type": "tuple"
            }
          ],
          "name": "generateDataResultId",
          "outputs": [
            {
              "internalType": "bytes32",
              "name": "",
              "type": "bytes32"
            }
          ],
          "stateMutability": "pure",
          "type": "function"
        },
        {
          "inputs": [
            {
              "internalType": "bytes32",
              "name": "id",
              "type": "bytes32"
            }
          ],
          "name": "getDataRequest",
          "outputs": [
            {
              "components": [
                {
                  "internalType": "string",
                  "name": "version",
                  "type": "string"
                },
                {
                  "internalType": "bytes32",
                  "name": "dr_binary_id",
                  "type": "bytes32"
                },
                {
                  "internalType": "bytes",
                  "name": "dr_inputs",
                  "type": "bytes"
                },
                {
                  "internalType": "bytes32",
                  "name": "tally_binary_id",
                  "type": "bytes32"
                },
                {
                  "internalType": "bytes",
                  "name": "tally_inputs",
                  "type": "bytes"
                },
                {
                  "internalType": "uint16",
                  "name": "replication_factor",
                  "type": "uint16"
                },
                {
                  "internalType": "bytes",
                  "name": "consensus_filter",
                  "type": "bytes"
                },
                {
                  "internalType": "uint128",
                  "name": "gas_price",
                  "type": "uint128"
                },
                {
                  "internalType": "uint128",
                  "name": "gas_limit",
                  "type": "uint128"
                },
                {
                  "internalType": "bytes",
                  "name": "memo",
                  "type": "bytes"
                },
                {
                  "internalType": "uint256",
                  "name": "index_in_pool",
                  "type": "uint256"
                }
              ],
              "internalType": "struct SedaDataTypes.DataRequest",
              "name": "",
              "type": "tuple"
            }
          ],
          "stateMutability": "view",
          "type": "function"
        },
        {
          "inputs": [
            {
              "internalType": "uint128",
              "name": "position",
              "type": "uint128"
            },
            {
              "internalType": "uint128",
              "name": "limit",
              "type": "uint128"
            }
          ],
          "name": "getDataRequestsFromPool",
          "outputs": [
            {
              "components": [
                {
                  "internalType": "string",
                  "name": "version",
                  "type": "string"
                },
                {
                  "internalType": "bytes32",
                  "name": "dr_binary_id",
                  "type": "bytes32"
                },
                {
                  "internalType": "bytes",
                  "name": "dr_inputs",
                  "type": "bytes"
                },
                {
                  "internalType": "bytes32",
                  "name": "tally_binary_id",
                  "type": "bytes32"
                },
                {
                  "internalType": "bytes",
                  "name": "tally_inputs",
                  "type": "bytes"
                },
                {
                  "internalType": "uint16",
                  "name": "replication_factor",
                  "type": "uint16"
                },
                {
                  "internalType": "bytes",
                  "name": "consensus_filter",
                  "type": "bytes"
                },
                {
                  "internalType": "uint128",
                  "name": "gas_price",
                  "type": "uint128"
                },
                {
                  "internalType": "uint128",
                  "name": "gas_limit",
                  "type": "uint128"
                },
                {
                  "internalType": "bytes",
                  "name": "memo",
                  "type": "bytes"
                },
                {
                  "internalType": "uint256",
                  "name": "index_in_pool",
                  "type": "uint256"
                }
              ],
              "internalType": "struct SedaDataTypes.DataRequest[]",
              "name": "",
              "type": "tuple[]"
            }
          ],
          "stateMutability": "view",
          "type": "function"
        },
        {
          "inputs": [
            {
              "internalType": "bytes32",
              "name": "id",
              "type": "bytes32"
            }
          ],
          "name": "getDataResult",
          "outputs": [
            {
              "components": [
                {
                  "internalType": "string",
                  "name": "version",
                  "type": "string"
                },
                {
                  "internalType": "bytes32",
                  "name": "dr_id",
                  "type": "bytes32"
                },
                {
                  "internalType": "bool",
                  "name": "consensus",
                  "type": "bool"
                },
                {
                  "internalType": "uint8",
                  "name": "exit_code",
                  "type": "uint8"
                },
                {
                  "internalType": "bytes",
                  "name": "result",
                  "type": "bytes"
                },
                {
                  "internalType": "uint64",
                  "name": "block_height",
                  "type": "uint64"
                },
                {
                  "internalType": "uint128",
                  "name": "gas_used",
                  "type": "uint128"
                },
                {
                  "internalType": "bytes",
                  "name": "payback_address",
                  "type": "bytes"
                },
                {
                  "internalType": "bytes",
                  "name": "seda_payload",
                  "type": "bytes"
                }
              ],
              "internalType": "struct SedaDataTypes.DataResult",
              "name": "",
              "type": "tuple"
            }
          ],
          "stateMutability": "view",
          "type": "function"
        },
        {
          "inputs": [
            {
              "internalType": "bytes32",
              "name": "role",
              "type": "bytes32"
            }
          ],
          "name": "getRoleAdmin",
          "outputs": [
            {
              "internalType": "bytes32",
              "name": "",
              "type": "bytes32"
            }
          ],
          "stateMutability": "view",
          "type": "function"
        },
        {
          "inputs": [
            {
              "internalType": "bytes32",
              "name": "role",
              "type": "bytes32"
            },
            {
              "internalType": "address",
              "name": "account",
              "type": "address"
            }
          ],
          "name": "grantRole",
          "outputs": [],
          "stateMutability": "nonpayable",
          "type": "function"
        },
        {
          "inputs": [
            {
              "internalType": "bytes32",
              "name": "role",
              "type": "bytes32"
            },
            {
              "internalType": "address",
              "name": "account",
              "type": "address"
            }
          ],
          "name": "hasRole",
          "outputs": [
            {
              "internalType": "bool",
              "name": "",
              "type": "bool"
            }
          ],
          "stateMutability": "view",
          "type": "function"
        },
        {
          "inputs": [],
          "name": "pendingAdmin",
          "outputs": [
            {
              "internalType": "address",
              "name": "",
              "type": "address"
            }
          ],
          "stateMutability": "view",
          "type": "function"
        },
        {
          "inputs": [
            {
              "components": [
                {
                  "internalType": "bytes32",
                  "name": "dr_binary_id",
                  "type": "bytes32"
                },
                {
                  "internalType": "bytes",
                  "name": "dr_inputs",
                  "type": "bytes"
                },
                {
                  "internalType": "bytes32",
                  "name": "tally_binary_id",
                  "type": "bytes32"
                },
                {
                  "internalType": "bytes",
                  "name": "tally_inputs",
                  "type": "bytes"
                },
                {
                  "internalType": "uint16",
                  "name": "replication_factor",
                  "type": "uint16"
                },
                {
                  "internalType": "bytes",
                  "name": "consensus_filter",
                  "type": "bytes"
                },
                {
                  "internalType": "uint128",
                  "name": "gas_price",
                  "type": "uint128"
                },
                {
                  "internalType": "uint128",
                  "name": "gas_limit",
                  "type": "uint128"
                },
                {
                  "internalType": "bytes",
                  "name": "memo",
                  "type": "bytes"
                }
              ],
              "internalType": "struct SedaDataTypes.DataRequestInputs",
              "name": "inputs",
              "type": "tuple"
            }
          ],
          "name": "postDataRequest",
          "outputs": [
            {
              "internalType": "bytes32",
              "name": "",
              "type": "bytes32"
            }
          ],
          "stateMutability": "nonpayable",
          "type": "function"
        },
        {
          "inputs": [
            {
              "components": [
                {
                  "internalType": "string",
                  "name": "version",
                  "type": "string"
                },
                {
                  "internalType": "bytes32",
                  "name": "dr_id",
                  "type": "bytes32"
                },
                {
                  "internalType": "bool",
                  "name": "consensus",
                  "type": "bool"
                },
                {
                  "internalType": "uint8",
                  "name": "exit_code",
                  "type": "uint8"
                },
                {
                  "internalType": "bytes",
                  "name": "result",
                  "type": "bytes"
                },
                {
                  "internalType": "uint64",
                  "name": "block_height",
                  "type": "uint64"
                },
                {
                  "internalType": "uint128",
                  "name": "gas_used",
                  "type": "uint128"
                },
                {
                  "internalType": "bytes",
                  "name": "payback_address",
                  "type": "bytes"
                },
                {
                  "internalType": "bytes",
                  "name": "seda_payload",
                  "type": "bytes"
                }
              ],
              "internalType": "struct SedaDataTypes.DataResult",
              "name": "inputs",
              "type": "tuple"
            }
          ],
          "name": "postDataResult",
          "outputs": [],
          "stateMutability": "nonpayable",
          "type": "function"
        },
        {
          "inputs": [
            {
              "internalType": "address",
              "name": "account",
              "type": "address"
            }
          ],
          "name": "removeRelayer",
          "outputs": [],
          "stateMutability": "nonpayable",
          "type": "function"
        },
        {
          "inputs": [
            {
              "internalType": "bytes32",
              "name": "role",
              "type": "bytes32"
            },
            {
              "internalType": "address",
              "name": "callerConfirmation",
              "type": "address"
            }
          ],
          "name": "renounceRole",
          "outputs": [],
          "stateMutability": "nonpayable",
          "type": "function"
        },
        {
          "inputs": [
            {
              "internalType": "bytes32",
              "name": "role",
              "type": "bytes32"
            },
            {
              "internalType": "address",
              "name": "account",
              "type": "address"
            }
          ],
          "name": "revokeRole",
          "outputs": [],
          "stateMutability": "nonpayable",
          "type": "function"
        },
        {
          "inputs": [
            {
              "internalType": "bytes4",
              "name": "interfaceId",
              "type": "bytes4"
            }
          ],
          "name": "supportsInterface",
          "outputs": [
            {
              "internalType": "bool",
              "name": "",
              "type": "bool"
            }
          ],
          "stateMutability": "view",
          "type": "function"
        },
        {
          "inputs": [
            {
              "internalType": "address",
              "name": "newOwner",
              "type": "address"
            }
          ],
          "name": "transferOwnership",
          "outputs": [],
          "stateMutability": "nonpayable",
          "type": "function"
        }
      ],
      "evm": {
        "bytecode": {
          "linkReferences": {},
          "object": "608060405234801561001057600080fd5b50604051614f74380380614f7483398181016040528101906100329190610518565b6100627fdf8b4c520ffe197c5343c6f5aec59570151ef9a492f2c624fd45ddde6135ec428361015e60201b60201c565b5081600160006101000a81548173ffffffffffffffffffffffffffffffffffffffff021916908373ffffffffffffffffffffffffffffffffffffffff1602179055506100f47fab4f864e5201b0fde9b5ee3e4cf96384802b0ffdfcf7f9de4699ce21a30afc4f7fdf8b4c520ffe197c5343c6f5aec59570151ef9a492f2c624fd45ddde6135ec4261025b60201b60201c565b60005b81518110156101565761014a7fab4f864e5201b0fde9b5ee3e4cf96384802b0ffdfcf7f9de4699ce21a30afc4f83838151811061013757610136610574565b5b602002602001015161015e60201b60201c565b508060010190506100f7565b5050506105a3565b600061017083836102bc60201b60201c565b61025057600160008085815260200190815260200160002060000160008473ffffffffffffffffffffffffffffffffffffffff1673ffffffffffffffffffffffffffffffffffffffff16815260200190815260200160002060006101000a81548160ff0219169083151502179055506101ed61032660201b60201c565b73ffffffffffffffffffffffffffffffffffffffff168273ffffffffffffffffffffffffffffffffffffffff16847f2f8788117e7eff1d82e926ec794901d17c78024a50270940304540a733656f0d60405160405180910390a460019050610255565b600090505b92915050565b600061026c8361032e60201b60201c565b905081600080858152602001908152602001600020600101819055508181847fbd79b86ffe0ab8e8776151514217cd7cacd52c909f66475c3af44e129f0b00ff60405160405180910390a4505050565b600080600084815260200190815260200160002060000160008373ffffffffffffffffffffffffffffffffffffffff1673ffffffffffffffffffffffffffffffffffffffff16815260200190815260200160002060009054906101000a900460ff16905092915050565b600033905090565b6000806000838152602001908152602001600020600101549050919050565b6000604051905090565b600080fd5b600080fd5b600073ffffffffffffffffffffffffffffffffffffffff82169050919050565b600061038c82610361565b9050919050565b61039c81610381565b81146103a757600080fd5b50565b6000815190506103b981610393565b92915050565b600080fd5b6000601f19601f8301169050919050565b7f4e487b7100000000000000000000000000000000000000000000000000000000600052604160045260246000fd5b61040d826103c4565b810181811067ffffffffffffffff8211171561042c5761042b6103d5565b5b80604052505050565b600061043f61034d565b905061044b8282610404565b919050565b600067ffffffffffffffff82111561046b5761046a6103d5565b5b602082029050602081019050919050565b600080fd5b600061049461048f84610450565b610435565b905080838252602082019050602084028301858111156104b7576104b661047c565b5b835b818110156104e057806104cc88826103aa565b8452602084019350506020810190506104b9565b5050509392505050565b600082601f8301126104ff576104fe6103bf565b5b815161050f848260208601610481565b91505092915050565b6000806040838503121561052f5761052e610357565b5b600061053d858286016103aa565b925050602083015167ffffffffffffffff81111561055e5761055d61035c565b5b61056a858286016104ea565b9150509250929050565b7f4e487b7100000000000000000000000000000000000000000000000000000000600052603260045260246000fd5b6149c2806105b26000396000f3fe608060405234801561001057600080fd5b50600436106101735760003560e01c806360f0a5ac116100de578063c67807e811610097578063f2fde38b11610071578063f2fde38b1461049e578063f41400c6146104ba578063f851a440146104f4578063feb620241461051257610173565b8063c67807e814610436578063d547741f14610466578063dd39f00d1461048257610173565b806360f0a5ac1461036257806379ba50971461037e57806391d1485414610388578063a217fddf146103b8578063b1d6bb97146103d6578063b7af1fd31461040657610173565b80632a0acc6a116101305780632a0acc6a1461027c5780632c1c076b1461029a5780632f2ff15d146102ca57806336568abe146102e65780633e8389dc1461030257806355c66f391461033257610173565b806301ffc9a71461017857806308bedbd8146101a857806314ac8ed8146101e05780632483e71514610210578063248a9ca31461022e578063267822471461025e575b600080fd5b610192600480360381019061018d9190612de6565b61052e565b60405161019f9190612e2e565b60405180910390f35b6101c260048036038101906101bd9190612e7f565b6105a8565b6040516101d79998979695949392919061300a565b60405180910390f35b6101fa60048036038101906101f591906130e9565b610860565b6040516102079190613116565b60405180910390f35b610218610884565b6040516102259190613116565b60405180910390f35b61024860048036038101906102439190612e7f565b6108a8565b6040516102559190613116565b60405180910390f35b6102666108c7565b6040516102739190613172565b60405180910390f35b6102846108ed565b6040516102919190613116565b60405180910390f35b6102b460048036038101906102af9190612e7f565b610911565b6040516102c19190613376565b60405180910390f35b6102e460048036038101906102df91906133c4565b610d3b565b005b61030060048036038101906102fb91906133c4565b610d5d565b005b61031c60048036038101906103179190613429565b610dd8565b6040516103299190613116565b60405180910390f35b61034c60048036038101906103479190613852565b6111db565b6040516103599190613116565b60405180910390f35b61037c6004803603810190610377919061389b565b6112af565b005b61038661133c565b005b6103a2600480360381019061039d91906133c4565b6114c0565b6040516103af9190612e2e565b60405180910390f35b6103c061152a565b6040516103cd9190613116565b60405180910390f35b6103f060048036038101906103eb9190612e7f565b611531565b6040516103fd91906139cf565b60405180910390f35b610420600480360381019061041b91906139f1565b6118b6565b60405161042d9190613bfe565b60405180910390f35b610450600480360381019061044b9190613d9c565b611de3565b60405161045d9190613116565b60405180910390f35b610480600480360381019061047b91906133c4565b611eab565b005b61049c6004803603810190610497919061389b565b611ecd565b005b6104b860048036038101906104b3919061389b565b611f5a565b005b6104d460048036038101906104cf9190612e7f565b611ffe565b6040516104eb9b9a99989796959493929190613e03565b60405180910390f35b6104fc612346565b6040516105099190613172565b60405180910390f35b61052c60048036038101906105279190613ef1565b61236c565b005b60007f7965db0b000000000000000000000000000000000000000000000000000000007bffffffffffffffffffffffffffffffffffffffffffffffffffffffff1916827bffffffffffffffffffffffffffffffffffffffffffffffffffffffff191614806105a157506105a08261292b565b5b9050919050565b60046020528060005260406000206000915090508060000180546105cb90613f69565b80601f01602080910402602001604051908101604052809291908181526020018280546105f790613f69565b80156106445780601f1061061957610100808354040283529160200191610644565b820191906000526020600020905b81548152906001019060200180831161062757829003601f168201915b5050505050908060010154908060020160009054906101000a900460ff16908060020160019054906101000a900460ff169080600301805461068590613f69565b80601f01602080910402602001604051908101604052809291908181526020018280546106b190613f69565b80156106fe5780601f106106d3576101008083540402835291602001916106fe565b820191906000526020600020905b8154815290600101906020018083116106e157829003601f168201915b5050505050908060040160009054906101000a900467ffffffffffffffff16908060040160089054906101000a90046fffffffffffffffffffffffffffffffff169080600501805461074f90613f69565b80601f016020809104026020016040519081016040528092919081815260200182805461077b90613f69565b80156107c85780601f1061079d576101008083540402835291602001916107c8565b820191906000526020600020905b8154815290600101906020018083116107ab57829003601f168201915b5050505050908060060180546107dd90613f69565b80601f016020809104026020016040519081016040528092919081815260200182805461080990613f69565b80156108565780601f1061082b57610100808354040283529160200191610856565b820191906000526020600020905b81548152906001019060200180831161083957829003601f168201915b5050505050905089565b6005818154811061087057600080fd5b906000526020600020016000915090505481565b7fab4f864e5201b0fde9b5ee3e4cf96384802b0ffdfcf7f9de4699ce21a30afc4f81565b6000806000838152602001908152602001600020600101549050919050565b600260009054906101000a900473ffffffffffffffffffffffffffffffffffffffff1681565b7fdf8b4c520ffe197c5343c6f5aec59570151ef9a492f2c624fd45ddde6135ec4281565b610919612be5565b6000600360008481526020019081526020016000206040518061016001604052908160008201805461094a90613f69565b80601f016020809104026020016040519081016040528092919081815260200182805461097690613f69565b80156109c35780601f10610998576101008083540402835291602001916109c3565b820191906000526020600020905b8154815290600101906020018083116109a657829003601f168201915b50505050508152602001600182015481526020016002820180546109e690613f69565b80601f0160208091040260200160405190810160405280929190818152602001828054610a1290613f69565b8015610a5f5780601f10610a3457610100808354040283529160200191610a5f565b820191906000526020600020905b815481529060010190602001808311610a4257829003601f168201915b5050505050815260200160038201548152602001600482018054610a8290613f69565b80601f0160208091040260200160405190810160405280929190818152602001828054610aae90613f69565b8015610afb5780601f10610ad057610100808354040283529160200191610afb565b820191906000526020600020905b815481529060010190602001808311610ade57829003601f168201915b505050505081526020016005820160009054906101000a900461ffff1661ffff1661ffff168152602001600682018054610b3490613f69565b80601f0160208091040260200160405190810160405280929190818152602001828054610b6090613f69565b8015610bad5780601f10610b8257610100808354040283529160200191610bad565b820191906000526020600020905b815481529060010190602001808311610b9057829003601f168201915b505050505081526020016007820160009054906101000a90046fffffffffffffffffffffffffffffffff166fffffffffffffffffffffffffffffffff166fffffffffffffffffffffffffffffffff1681526020016007820160109054906101000a90046fffffffffffffffffffffffffffffffff166fffffffffffffffffffffffffffffffff166fffffffffffffffffffffffffffffffff168152602001600882018054610c5a90613f69565b80601f0160208091040260200160405190810160405280929190818152602001828054610c8690613f69565b8015610cd35780601f10610ca857610100808354040283529160200191610cd3565b820191906000526020600020905b815481529060010190602001808311610cb657829003601f168201915b505050505081526020016009820154815250509050600081600001515103610d3257826040517fbac08362000000000000000000000000000000000000000000000000000000008152600401610d299190613116565b60405180910390fd5b80915050919050565b610d44826108a8565b610d4d81612995565b610d5783836129a9565b50505050565b610d65612a9a565b73ffffffffffffffffffffffffffffffffffffffff168173ffffffffffffffffffffffffffffffffffffffff1614610dc9576040517f6697b23200000000000000000000000000000000000000000000000000000000815260040160405180910390fd5b610dd38282612aa2565b505050565b600080610ded83610de890613f9a565b611de3565b905060006040518061016001604052806040518060400160405280600581526020017f302e302e31000000000000000000000000000000000000000000000000000000815250815260200185600001358152602001858060200190610e529190613fbc565b8080601f016020809104026020016040519081016040528093929190818152602001838380828437600081840152601f19601f82011690508083019250505050505050815260200185604001358152602001858060600190610eb49190613fbc565b8080601f016020809104026020016040519081016040528093929190818152602001838380828437600081840152601f19601f820116905080830192505050505050508152602001856080016020810190610f0f919061401f565b61ffff168152602001858060a00190610f289190613fbc565b8080601f016020809104026020016040519081016040528093929190818152602001838380828437600081840152601f19601f8201169050808301925050505050505081526020018560c0016020810190610f83919061404c565b6fffffffffffffffffffffffffffffffff1681526020018560e0016020810190610fad919061404c565b6fffffffffffffffffffffffffffffffff16815260200185806101000190610fd59190613fbc565b8080601f016020809104026020016040519081016040528093929190818152602001838380828437600081840152601f19601f8201169050808301925050505050505081526020016005805490508152509050806003600084815260200190815260200160002060008201518160000190816110519190614225565b506020820151816001015560408201518160020190816110719190614352565b506060820151816003015560808201518160040190816110919190614352565b5060a08201518160050160006101000a81548161ffff021916908361ffff16021790555060c08201518160060190816110ca9190614352565b5060e08201518160070160006101000a8154816fffffffffffffffffffffffffffffffff02191690836fffffffffffffffffffffffffffffffff1602179055506101008201518160070160106101000a8154816fffffffffffffffffffffffffffffffff02191690836fffffffffffffffffffffffffffffffff1602179055506101208201518160080190816111609190614352565b50610140820151816009015590505060058290806001815401808255809150506001900390600052602060002001600090919091909150557f019ba75b73c81006c10a98a994f16821a9a88364005a28f56cb0976c840f051d81336040516111c9929190614424565b60405180910390a18192505050919050565b6000806040518060400160405280600581526020017f302e302e31000000000000000000000000000000000000000000000000000000815250805190602001208360200151846040015161123357600060f81b611239565b600160f81b5b856060015160f81b8660800151805190602001208760a0015160c01b8860c0015160801b8960e00151805190602001208a61010001518051906020012060405160200161128e9998979695949392919061455c565b60405160208183030381529060405280519060200120905080915050919050565b6112d97fdf8b4c520ffe197c5343c6f5aec59570151ef9a492f2c624fd45ddde6135ec42336114c0565b61130f576040517f7bfa4b9f00000000000000000000000000000000000000000000000000000000815260040160405180910390fd5b6113397fab4f864e5201b0fde9b5ee3e4cf96384802b0ffdfcf7f9de4699ce21a30afc4f82611eab565b50565b600260009054906101000a900473ffffffffffffffffffffffffffffffffffffffff1673ffffffffffffffffffffffffffffffffffffffff163373ffffffffffffffffffffffffffffffffffffffff16146113c3576040517f058d9a1b00000000000000000000000000000000000000000000000000000000815260040160405180910390fd5b61140f7fdf8b4c520ffe197c5343c6f5aec59570151ef9a492f2c624fd45ddde6135ec42600160009054906101000a900473ffffffffffffffffffffffffffffffffffffffff16612aa2565b5061143a7fdf8b4c520ffe197c5343c6f5aec59570151ef9a492f2c624fd45ddde6135ec42336129a9565b5033600160006101000a81548173ffffffffffffffffffffffffffffffffffffffff021916908373ffffffffffffffffffffffffffffffffffffffff1602179055506000600260006101000a81548173ffffffffffffffffffffffffffffffffffffffff021916908373ffffffffffffffffffffffffffffffffffffffff160217905550565b600080600084815260200190815260200160002060000160008373ffffffffffffffffffffffffffffffffffffffff1673ffffffffffffffffffffffffffffffffffffffff16815260200190815260200160002060009054906101000a900460ff16905092915050565b6000801b81565b611539612c6d565b6000600460008481526020019081526020016000206040518061012001604052908160008201805461156a90613f69565b80601f016020809104026020016040519081016040528092919081815260200182805461159690613f69565b80156115e35780601f106115b8576101008083540402835291602001916115e3565b820191906000526020600020905b8154815290600101906020018083116115c657829003601f168201915b50505050508152602001600182015481526020016002820160009054906101000a900460ff161515151581526020016002820160019054906101000a900460ff1660ff1660ff16815260200160038201805461163e90613f69565b80601f016020809104026020016040519081016040528092919081815260200182805461166a90613f69565b80156116b75780601f1061168c576101008083540402835291602001916116b7565b820191906000526020600020905b81548152906001019060200180831161169a57829003601f168201915b505050505081526020016004820160009054906101000a900467ffffffffffffffff1667ffffffffffffffff1667ffffffffffffffff1681526020016004820160089054906101000a90046fffffffffffffffffffffffffffffffff166fffffffffffffffffffffffffffffffff166fffffffffffffffffffffffffffffffff16815260200160058201805461174c90613f69565b80601f016020809104026020016040519081016040528092919081815260200182805461177890613f69565b80156117c55780601f1061179a576101008083540402835291602001916117c5565b820191906000526020600020905b8154815290600101906020018083116117a857829003601f168201915b505050505081526020016006820180546117de90613f69565b80601f016020809104026020016040519081016040528092919081815260200182805461180a90613f69565b80156118575780601f1061182c57610100808354040283529160200191611857565b820191906000526020600020905b81548152906001019060200180831161183a57829003601f168201915b50505050508152505090506000801b8160200151036118ad57826040517f24b112400000000000000000000000000000000000000000000000000000000081526004016118a49190613116565b60405180910390fd5b80915050919050565b6060600060058054905083856118cc919061462e565b6fffffffffffffffffffffffffffffffff16116118e957826118fb565b836005805490506118fa9190614672565b5b90506000816fffffffffffffffffffffffffffffffff1667ffffffffffffffff81111561192b5761192a613477565b5b60405190808252806020026020018201604052801561196457816020015b611951612be5565b8152602001906001900390816119495790505b50905060005b826fffffffffffffffffffffffffffffffff16816fffffffffffffffffffffffffffffffff161015611dd75760036000600583896119a8919061462e565b6fffffffffffffffffffffffffffffffff16815481106119cb576119ca6146b6565b5b9060005260206000200154815260200190815260200160002060405180610160016040529081600082018054611a0090613f69565b80601f0160208091040260200160405190810160405280929190818152602001828054611a2c90613f69565b8015611a795780601f10611a4e57610100808354040283529160200191611a79565b820191906000526020600020905b815481529060010190602001808311611a5c57829003601f168201915b5050505050815260200160018201548152602001600282018054611a9c90613f69565b80601f0160208091040260200160405190810160405280929190818152602001828054611ac890613f69565b8015611b155780601f10611aea57610100808354040283529160200191611b15565b820191906000526020600020905b815481529060010190602001808311611af857829003601f168201915b5050505050815260200160038201548152602001600482018054611b3890613f69565b80601f0160208091040260200160405190810160405280929190818152602001828054611b6490613f69565b8015611bb15780601f10611b8657610100808354040283529160200191611bb1565b820191906000526020600020905b815481529060010190602001808311611b9457829003601f168201915b505050505081526020016005820160009054906101000a900461ffff1661ffff1661ffff168152602001600682018054611bea90613f69565b80601f0160208091040260200160405190810160405280929190818152602001828054611c1690613f69565b8015611c635780601f10611c3857610100808354040283529160200191611c63565b820191906000526020600020905b815481529060010190602001808311611c4657829003601f168201915b505050505081526020016007820160009054906101000a90046fffffffffffffffffffffffffffffffff166fffffffffffffffffffffffffffffffff166fffffffffffffffffffffffffffffffff1681526020016007820160109054906101000a90046fffffffffffffffffffffffffffffffff166fffffffffffffffffffffffffffffffff166fffffffffffffffffffffffffffffffff168152602001600882018054611d1090613f69565b80601f0160208091040260200160405190810160405280929190818152602001828054611d3c90613f69565b8015611d895780601f10611d5e57610100808354040283529160200191611d89565b820191906000526020600020905b815481529060010190602001808311611d6c57829003601f168201915b5050505050815260200160098201548152505082826fffffffffffffffffffffffffffffffff1681518110611dc157611dc06146b6565b5b602002602001018190525080600101905061196a565b50809250505092915050565b60006040518060400160405280600581526020017f302e302e310000000000000000000000000000000000000000000000000000008152508051906020012082600001518360200151805190602001208460400151856060015180519060200120866080015160f01b8760a00151805190602001208860c0015160801b8960e0015160801b8a610100015180519060200120604051602001611e8e9a99989796959493929190614732565b604051602081830303815290604052805190602001209050919050565b611eb4826108a8565b611ebd81612995565b611ec78383612aa2565b50505050565b611ef77fdf8b4c520ffe197c5343c6f5aec59570151ef9a492f2c624fd45ddde6135ec42336114c0565b611f2d576040517f7bfa4b9f00000000000000000000000000000000000000000000000000000000815260040160405180910390fd5b611f577fab4f864e5201b0fde9b5ee3e4cf96384802b0ffdfcf7f9de4699ce21a30afc4f82610d3b565b50565b611f847fdf8b4c520ffe197c5343c6f5aec59570151ef9a492f2c624fd45ddde6135ec42336114c0565b611fba576040517f7bfa4b9f00000000000000000000000000000000000000000000000000000000815260040160405180910390fd5b80600260006101000a81548173ffffffffffffffffffffffffffffffffffffffff021916908373ffffffffffffffffffffffffffffffffffffffff16021790555050565b600360205280600052604060002060009150905080600001805461202190613f69565b80601f016020809104026020016040519081016040528092919081815260200182805461204d90613f69565b801561209a5780601f1061206f5761010080835404028352916020019161209a565b820191906000526020600020905b81548152906001019060200180831161207d57829003601f168201915b5050505050908060010154908060020180546120b590613f69565b80601f01602080910402602001604051908101604052809291908181526020018280546120e190613f69565b801561212e5780601f106121035761010080835404028352916020019161212e565b820191906000526020600020905b81548152906001019060200180831161211157829003601f168201915b50505050509080600301549080600401805461214990613f69565b80601f016020809104026020016040519081016040528092919081815260200182805461217590613f69565b80156121c25780601f10612197576101008083540402835291602001916121c2565b820191906000526020600020905b8154815290600101906020018083116121a557829003601f168201915b5050505050908060050160009054906101000a900461ffff16908060060180546121eb90613f69565b80601f016020809104026020016040519081016040528092919081815260200182805461221790613f69565b80156122645780601f1061223957610100808354040283529160200191612264565b820191906000526020600020905b81548152906001019060200180831161224757829003601f168201915b5050505050908060070160009054906101000a90046fffffffffffffffffffffffffffffffff16908060070160109054906101000a90046fffffffffffffffffffffffffffffffff16908060080180546122bd90613f69565b80601f01602080910402602001604051908101604052809291908181526020018280546122e990613f69565b80156123365780601f1061230b57610100808354040283529160200191612336565b820191906000526020600020905b81548152906001019060200180831161231957829003601f168201915b505050505090806009015490508b565b600160009054906101000a900473ffffffffffffffffffffffffffffffffffffffff1681565b6123967fab4f864e5201b0fde9b5ee3e4cf96384802b0ffdfcf7f9de4699ce21a30afc4f336114c0565b6123cc576040517fc64891a500000000000000000000000000000000000000000000000000000000815260040160405180910390fd5b60006123db8260200135610911565b905060008160a0015161ffff160361242e5781602001356040517fbac083620000000000000000000000000000000000000000000000000000000081526004016124259190613116565b60405180910390fd5b600060405180610120016040528084806000019061244c91906147e6565b8080601f016020809104026020016040519081016040528093929190818152602001838380828437600081840152601f19601f820116905080830192505050505050508152602001846020013581526020018460400160208101906124b19190614849565b151581526020018460600160208101906124cb9190614876565b60ff1681526020018480608001906124e39190613fbc565b8080601f016020809104026020016040519081016040528093929190818152602001838380828437600081840152601f19601f8201169050808301925050505050505081526020018460a001602081019061253e91906148a3565b67ffffffffffffffff1681526020018460c0016020810190612560919061404c565b6fffffffffffffffffffffffffffffffff168152602001848060e001906125879190613fbc565b8080601f016020809104026020016040519081016040528093929190818152602001838380828437600081840152601f19601f820116905080830192505050505050508152602001848061010001906125e09190613fbc565b8080601f016020809104026020016040519081016040528093929190818152602001838380828437600081840152601f19601f82011690508083019250505050505050815250905080600460008560200135815260200190815260200160002060008201518160000190816126559190614225565b506020820151816001015560408201518160020160006101000a81548160ff02191690831515021790555060608201518160020160016101000a81548160ff021916908360ff16021790555060808201518160030190816126b69190614352565b5060a08201518160040160006101000a81548167ffffffffffffffff021916908367ffffffffffffffff16021790555060c08201518160040160086101000a8154816fffffffffffffffffffffffffffffffff02191690836fffffffffffffffffffffffffffffffff16021790555060e082015181600501908161273a9190614352565b506101008201518160060190816127519190614352565b509050506000600360008560200135815260200190815260200160002060090154905060006005600160058054905061278a91906148d0565b8154811061279b5761279a6146b6565b5b9060005260206000200154905080600583815481106127bd576127bc6146b6565b5b906000526020600020018190555081600360008381526020019081526020016000206009018190555060058054806127f8576127f7614904565b5b600190038181906000526020600020016000905590556003600086602001358152602001908152602001600020600080820160006128369190612cdd565b600182016000905560028201600061284e9190612d1d565b60038201600090556004820160006128669190612d1d565b6005820160006101000a81549061ffff021916905560068201600061288b9190612d1d565b6007820160006101000a8154906fffffffffffffffffffffffffffffffff02191690556007820160106101000a8154906fffffffffffffffffffffffffffffffff02191690556008820160006128e19190612d1d565b600982016000905550507fdd89d357a2eda89e66964e3377b2f37c032acd4b071d829dae6fcd3be67a3ac8833360405161291c929190614933565b60405180910390a15050505050565b60007f01ffc9a7000000000000000000000000000000000000000000000000000000007bffffffffffffffffffffffffffffffffffffffffffffffffffffffff1916827bffffffffffffffffffffffffffffffffffffffffffffffffffffffff1916149050919050565b6129a6816129a1612a9a565b612b94565b50565b60006129b583836114c0565b612a8f57600160008085815260200190815260200160002060000160008473ffffffffffffffffffffffffffffffffffffffff1673ffffffffffffffffffffffffffffffffffffffff16815260200190815260200160002060006101000a81548160ff021916908315150217905550612a2c612a9a565b73ffffffffffffffffffffffffffffffffffffffff168273ffffffffffffffffffffffffffffffffffffffff16847f2f8788117e7eff1d82e926ec794901d17c78024a50270940304540a733656f0d60405160405180910390a460019050612a94565b600090505b92915050565b600033905090565b6000612aae83836114c0565b15612b8957600080600085815260200190815260200160002060000160008473ffffffffffffffffffffffffffffffffffffffff1673ffffffffffffffffffffffffffffffffffffffff16815260200190815260200160002060006101000a81548160ff021916908315150217905550612b26612a9a565b73ffffffffffffffffffffffffffffffffffffffff168273ffffffffffffffffffffffffffffffffffffffff16847ff6391f5c32d9c69d2a47ea670b442974b53935d1edc7fd64eb21e047a839171b60405160405180910390a460019050612b8e565b600090505b92915050565b612b9e82826114c0565b612be15780826040517fe2517d3f000000000000000000000000000000000000000000000000000000008152600401612bd8929190614963565b60405180910390fd5b5050565b6040518061016001604052806060815260200160008019168152602001606081526020016000801916815260200160608152602001600061ffff1681526020016060815260200160006fffffffffffffffffffffffffffffffff16815260200160006fffffffffffffffffffffffffffffffff16815260200160608152602001600081525090565b6040518061012001604052806060815260200160008019168152602001600015158152602001600060ff16815260200160608152602001600067ffffffffffffffff16815260200160006fffffffffffffffffffffffffffffffff16815260200160608152602001606081525090565b508054612ce990613f69565b6000825580601f10612cfb5750612d1a565b601f016020900490600052602060002090810190612d199190612d5d565b5b50565b508054612d2990613f69565b6000825580601f10612d3b5750612d5a565b601f016020900490600052602060002090810190612d599190612d5d565b5b50565b5b80821115612d76576000816000905550600101612d5e565b5090565b6000604051905090565b600080fd5b600080fd5b60007fffffffff0000000000000000000000000000000000000000000000000000000082169050919050565b612dc381612d8e565b8114612dce57600080fd5b50565b600081359050612de081612dba565b92915050565b600060208284031215612dfc57612dfb612d84565b5b6000612e0a84828501612dd1565b91505092915050565b60008115159050919050565b612e2881612e13565b82525050565b6000602082019050612e436000830184612e1f565b92915050565b6000819050919050565b612e5c81612e49565b8114612e6757600080fd5b50565b600081359050612e7981612e53565b92915050565b600060208284031215612e9557612e94612d84565b5b6000612ea384828501612e6a565b91505092915050565b600081519050919050565b600082825260208201905092915050565b60005b83811015612ee6578082015181840152602081019050612ecb565b60008484015250505050565b6000601f19601f8301169050919050565b6000612f0e82612eac565b612f188185612eb7565b9350612f28818560208601612ec8565b612f3181612ef2565b840191505092915050565b612f4581612e49565b82525050565b600060ff82169050919050565b612f6181612f4b565b82525050565b600081519050919050565b600082825260208201905092915050565b6000612f8e82612f67565b612f988185612f72565b9350612fa8818560208601612ec8565b612fb181612ef2565b840191505092915050565b600067ffffffffffffffff82169050919050565b612fd981612fbc565b82525050565b60006fffffffffffffffffffffffffffffffff82169050919050565b61300481612fdf565b82525050565b6000610120820190508181036000830152613025818c612f03565b9050613034602083018b612f3c565b613041604083018a612e1f565b61304e6060830189612f58565b81810360808301526130608188612f83565b905061306f60a0830187612fd0565b61307c60c0830186612ffb565b81810360e083015261308e8185612f83565b90508181036101008301526130a38184612f83565b90509a9950505050505050505050565b6000819050919050565b6130c6816130b3565b81146130d157600080fd5b50565b6000813590506130e3816130bd565b92915050565b6000602082840312156130ff576130fe612d84565b5b600061310d848285016130d4565b91505092915050565b600060208201905061312b6000830184612f3c565b92915050565b600073ffffffffffffffffffffffffffffffffffffffff82169050919050565b600061315c82613131565b9050919050565b61316c81613151565b82525050565b60006020820190506131876000830184613163565b92915050565b600082825260208201905092915050565b60006131a982612eac565b6131b3818561318d565b93506131c3818560208601612ec8565b6131cc81612ef2565b840191505092915050565b6131e081612e49565b82525050565b600082825260208201905092915050565b600061320282612f67565b61320c81856131e6565b935061321c818560208601612ec8565b61322581612ef2565b840191505092915050565b600061ffff82169050919050565b61324781613230565b82525050565b61325681612fdf565b82525050565b613265816130b3565b82525050565b6000610160830160008301518482036000860152613289828261319e565b915050602083015161329e60208601826131d7565b50604083015184820360408601526132b682826131f7565b91505060608301516132cb60608601826131d7565b50608083015184820360808601526132e382826131f7565b91505060a08301516132f860a086018261323e565b5060c083015184820360c086015261331082826131f7565b91505060e083015161332560e086018261324d565b5061010083015161333a61010086018261324d565b5061012083015184820361012086015261335482826131f7565b91505061014083015161336b61014086018261325c565b508091505092915050565b60006020820190508181036000830152613390818461326b565b905092915050565b6133a181613151565b81146133ac57600080fd5b50565b6000813590506133be81613398565b92915050565b600080604083850312156133db576133da612d84565b5b60006133e985828601612e6a565b92505060206133fa858286016133af565b9150509250929050565b600080fd5b600061012082840312156134205761341f613404565b5b81905092915050565b60006020828403121561343f5761343e612d84565b5b600082013567ffffffffffffffff81111561345d5761345c612d89565b5b61346984828501613409565b91505092915050565b600080fd5b7f4e487b7100000000000000000000000000000000000000000000000000000000600052604160045260246000fd5b6134af82612ef2565b810181811067ffffffffffffffff821117156134ce576134cd613477565b5b80604052505050565b60006134e1612d7a565b90506134ed82826134a6565b919050565b600080fd5b600080fd5b600080fd5b600067ffffffffffffffff82111561351c5761351b613477565b5b61352582612ef2565b9050602081019050919050565b82818337600083830152505050565b600061355461354f84613501565b6134d7565b9050828152602081018484840111156135705761356f6134fc565b5b61357b848285613532565b509392505050565b600082601f830112613598576135976134f7565b5b81356135a8848260208601613541565b91505092915050565b6135ba81612e13565b81146135c557600080fd5b50565b6000813590506135d7816135b1565b92915050565b6135e681612f4b565b81146135f157600080fd5b50565b600081359050613603816135dd565b92915050565b600067ffffffffffffffff82111561362457613623613477565b5b61362d82612ef2565b9050602081019050919050565b600061364d61364884613609565b6134d7565b905082815260208101848484011115613669576136686134fc565b5b613674848285613532565b509392505050565b600082601f830112613691576136906134f7565b5b81356136a184826020860161363a565b91505092915050565b6136b381612fbc565b81146136be57600080fd5b50565b6000813590506136d0816136aa565b92915050565b6136df81612fdf565b81146136ea57600080fd5b50565b6000813590506136fc816136d6565b92915050565b6000610120828403121561371957613718613472565b5b6137246101206134d7565b9050600082013567ffffffffffffffff811115613744576137436134f2565b5b61375084828501613583565b600083015250602061376484828501612e6a565b6020830152506040613778848285016135c8565b604083015250606061378c848285016135f4565b606083015250608082013567ffffffffffffffff8111156137b0576137af6134f2565b5b6137bc8482850161367c565b60808301525060a06137d0848285016136c1565b60a08301525060c06137e4848285016136ed565b60c08301525060e082013567ffffffffffffffff811115613808576138076134f2565b5b6138148482850161367c565b60e08301525061010082013567ffffffffffffffff811115613839576138386134f2565b5b6138458482850161367c565b6101008301525092915050565b60006020828403121561386857613867612d84565b5b600082013567ffffffffffffffff81111561388657613885612d89565b5b61389284828501613702565b91505092915050565b6000602082840312156138b1576138b0612d84565b5b60006138bf848285016133af565b91505092915050565b6138d181612e13565b82525050565b6138e081612f4b565b82525050565b6138ef81612fbc565b82525050565b6000610120830160008301518482036000860152613913828261319e565b915050602083015161392860208601826131d7565b50604083015161393b60408601826138c8565b50606083015161394e60608601826138d7565b506080830151848203608086015261396682826131f7565b91505060a083015161397b60a08601826138e6565b5060c083015161398e60c086018261324d565b5060e083015184820360e08601526139a682826131f7565b9150506101008301518482036101008601526139c282826131f7565b9150508091505092915050565b600060208201905081810360008301526139e981846138f5565b905092915050565b60008060408385031215613a0857613a07612d84565b5b6000613a16858286016136ed565b9250506020613a27858286016136ed565b9150509250929050565b600081519050919050565b600082825260208201905092915050565b6000819050602082019050919050565b6000610160830160008301518482036000860152613a7b828261319e565b9150506020830151613a9060208601826131d7565b5060408301518482036040860152613aa882826131f7565b9150506060830151613abd60608601826131d7565b5060808301518482036080860152613ad582826131f7565b91505060a0830151613aea60a086018261323e565b5060c083015184820360c0860152613b0282826131f7565b91505060e0830151613b1760e086018261324d565b50610100830151613b2c61010086018261324d565b50610120830151848203610120860152613b4682826131f7565b915050610140830151613b5d61014086018261325c565b508091505092915050565b6000613b748383613a5d565b905092915050565b6000602082019050919050565b6000613b9482613a31565b613b9e8185613a3c565b935083602082028501613bb085613a4d565b8060005b85811015613bec5784840389528151613bcd8582613b68565b9450613bd883613b7c565b925060208a01995050600181019050613bb4565b50829750879550505050505092915050565b60006020820190508181036000830152613c188184613b89565b905092915050565b613c2981613230565b8114613c3457600080fd5b50565b600081359050613c4681613c20565b92915050565b60006101208284031215613c6357613c62613472565b5b613c6e6101206134d7565b90506000613c7e84828501612e6a565b600083015250602082013567ffffffffffffffff811115613ca257613ca16134f2565b5b613cae8482850161367c565b6020830152506040613cc284828501612e6a565b604083015250606082013567ffffffffffffffff811115613ce657613ce56134f2565b5b613cf28482850161367c565b6060830152506080613d0684828501613c37565b60808301525060a082013567ffffffffffffffff811115613d2a57613d296134f2565b5b613d368482850161367c565b60a08301525060c0613d4a848285016136ed565b60c08301525060e0613d5e848285016136ed565b60e08301525061010082013567ffffffffffffffff811115613d8357613d826134f2565b5b613d8f8482850161367c565b6101008301525092915050565b600060208284031215613db257613db1612d84565b5b600082013567ffffffffffffffff811115613dd057613dcf612d89565b5b613ddc84828501613c4c565b91505092915050565b613dee81613230565b82525050565b613dfd816130b3565b82525050565b6000610160820190508181036000830152613e1e818e612f03565b9050613e2d602083018d612f3c565b8181036040830152613e3f818c612f83565b9050613e4e606083018b612f3c565b8181036080830152613e60818a612f83565b9050613e6f60a0830189613de5565b81810360c0830152613e818188612f83565b9050613e9060e0830187612ffb565b613e9e610100830186612ffb565b818103610120830152613eb18185612f83565b9050613ec1610140830184613df4565b9c9b505050505050505050505050565b60006101208284031215613ee857613ee7613404565b5b81905092915050565b600060208284031215613f0757613f06612d84565b5b600082013567ffffffffffffffff811115613f2557613f24612d89565b5b613f3184828501613ed1565b91505092915050565b7f4e487b7100000000000000000000000000000000000000000000000000000000600052602260045260246000fd5b60006002820490506001821680613f8157607f821691505b602082108103613f9457613f93613f3a565b5b50919050565b6000613fa63683613c4c565b9050919050565b600080fd5b600080fd5b600080fd5b60008083356001602003843603038112613fd957613fd8613fad565b5b80840192508235915067ffffffffffffffff821115613ffb57613ffa613fb2565b5b60208301925060018202360383131561401757614016613fb7565b5b509250929050565b60006020828403121561403557614034612d84565b5b600061404384828501613c37565b91505092915050565b60006020828403121561406257614061612d84565b5b6000614070848285016136ed565b91505092915050565b60008190508160005260206000209050919050565b60006020601f8301049050919050565b600082821b905092915050565b6000600883026140db7fffffffffffffffffffffffffffffffffffffffffffffffffffffffffffffffff8261409e565b6140e5868361409e565b95508019841693508086168417925050509392505050565b6000819050919050565b600061412261411d614118846130b3565b6140fd565b6130b3565b9050919050565b6000819050919050565b61413c83614107565b61415061414882614129565b8484546140ab565b825550505050565b600090565b614165614158565b614170818484614133565b505050565b5b818110156141945761418960008261415d565b600181019050614176565b5050565b601f8211156141d9576141aa81614079565b6141b38461408e565b810160208510156141c2578190505b6141d66141ce8561408e565b830182614175565b50505b505050565b600082821c905092915050565b60006141fc600019846008026141de565b1980831691505092915050565b600061421583836141eb565b9150826002028217905092915050565b61422e82612eac565b67ffffffffffffffff81111561424757614246613477565b5b6142518254613f69565b61425c828285614198565b600060209050601f83116001811461428f576000841561427d578287015190505b6142878582614209565b8655506142ef565b601f19841661429d86614079565b60005b828110156142c5578489015182556001820191506020850194506020810190506142a0565b868310156142e257848901516142de601f8916826141eb565b8355505b6001600288020188555050505b505050505050565b60008190508160005260206000209050919050565b601f82111561434d5761431e816142f7565b6143278461408e565b81016020851015614336578190505b61434a6143428561408e565b830182614175565b50505b505050565b61435b82612f67565b67ffffffffffffffff81111561437457614373613477565b5b61437e8254613f69565b61438982828561430c565b600060209050601f8311600181146143bc57600084156143aa578287015190505b6143b48582614209565b86555061441c565b601f1984166143ca866142f7565b60005b828110156143f2578489015182556001820191506020850194506020810190506143cd565b8683101561440f578489015161440b601f8916826141eb565b8355505b6001600288020188555050505b505050505050565b6000604082019050818103600083015261443e818561326b565b905061444d6020830184613163565b9392505050565b6000819050919050565b61446f61446a82612e49565b614454565b82525050565b60007fff0000000000000000000000000000000000000000000000000000000000000082169050919050565b6000819050919050565b6144bc6144b782614475565b6144a1565b82525050565b60007fffffffffffffffff00000000000000000000000000000000000000000000000082169050919050565b6000819050919050565b614509614504826144c2565b6144ee565b82525050565b60007fffffffffffffffffffffffffffffffff0000000000000000000000000000000082169050919050565b6000819050919050565b6145566145518261450f565b61453b565b82525050565b6000614568828c61445e565b602082019150614578828b61445e565b602082019150614588828a6144ab565b60018201915061459882896144ab565b6001820191506145a8828861445e565b6020820191506145b882876144f8565b6008820191506145c88286614545565b6010820191506145d8828561445e565b6020820191506145e8828461445e565b6020820191508190509a9950505050505050505050565b7f4e487b7100000000000000000000000000000000000000000000000000000000600052601160045260246000fd5b600061463982612fdf565b915061464483612fdf565b925082820190506fffffffffffffffffffffffffffffffff81111561466c5761466b6145ff565b5b92915050565b600061467d82612fdf565b915061468883612fdf565b925082820390506fffffffffffffffffffffffffffffffff8111156146b0576146af6145ff565b5b92915050565b7f4e487b7100000000000000000000000000000000000000000000000000000000600052603260045260246000fd5b60007fffff00000000000000000000000000000000000000000000000000000000000082169050919050565b6000819050919050565b61472c614727826146e5565b614711565b82525050565b600061473e828d61445e565b60208201915061474e828c61445e565b60208201915061475e828b61445e565b60208201915061476e828a61445e565b60208201915061477e828961445e565b60208201915061478e828861471b565b60028201915061479e828761445e565b6020820191506147ae8286614545565b6010820191506147be8285614545565b6010820191506147ce828461445e565b6020820191508190509b9a5050505050505050505050565b6000808335600160200384360303811261480357614802613fad565b5b80840192508235915067ffffffffffffffff82111561482557614824613fb2565b5b60208301925060018202360383131561484157614840613fb7565b5b509250929050565b60006020828403121561485f5761485e612d84565b5b600061486d848285016135c8565b91505092915050565b60006020828403121561488c5761488b612d84565b5b600061489a848285016135f4565b91505092915050565b6000602082840312156148b9576148b8612d84565b5b60006148c7848285016136c1565b91505092915050565b60006148db826130b3565b91506148e6836130b3565b92508282039050818111156148fe576148fd6145ff565b5b92915050565b7f4e487b7100000000000000000000000000000000000000000000000000000000600052603160045260246000fd5b6000604082019050818103600083015261494d81856138f5565b905061495c6020830184613163565b9392505050565b60006040820190506149786000830185613163565b6149856020830184612f3c565b939250505056fea2646970667358221220bcc6af8c6c03f4519852459cec6bda197c2d29700b85d0418d9fdaacc6a4045164736f6c63430008190033",
          "opcodes": "PUSH1 0x80 PUSH1 0x40 MSTORE CALLVALUE DUP1 ISZERO PUSH2 0x10 JUMPI PUSH1 0x0 DUP1 REVERT JUMPDEST POP PUSH1 0x40 MLOAD PUSH2 0x4F74 CODESIZE SUB DUP1 PUSH2 0x4F74 DUP4 CODECOPY DUP2 DUP2 ADD PUSH1 0x40 MSTORE DUP2 ADD SWAP1 PUSH2 0x32 SWAP2 SWAP1 PUSH2 0x518 JUMP JUMPDEST PUSH2 0x62 PUSH32 0xDF8B4C520FFE197C5343C6F5AEC59570151EF9A492F2C624FD45DDDE6135EC42 DUP4 PUSH2 0x15E PUSH1 0x20 SHL PUSH1 0x20 SHR JUMP JUMPDEST POP DUP2 PUSH1 0x1 PUSH1 0x0 PUSH2 0x100 EXP DUP2 SLOAD DUP2 PUSH20 0xFFFFFFFFFFFFFFFFFFFFFFFFFFFFFFFFFFFFFFFF MUL NOT AND SWAP1 DUP4 PUSH20 0xFFFFFFFFFFFFFFFFFFFFFFFFFFFFFFFFFFFFFFFF AND MUL OR SWAP1 SSTORE POP PUSH2 0xF4 PUSH32 0xAB4F864E5201B0FDE9B5EE3E4CF96384802B0FFDFCF7F9DE4699CE21A30AFC4F PUSH32 0xDF8B4C520FFE197C5343C6F5AEC59570151EF9A492F2C624FD45DDDE6135EC42 PUSH2 0x25B PUSH1 0x20 SHL PUSH1 0x20 SHR JUMP JUMPDEST PUSH1 0x0 JUMPDEST DUP2 MLOAD DUP2 LT ISZERO PUSH2 0x156 JUMPI PUSH2 0x14A PUSH32 0xAB4F864E5201B0FDE9B5EE3E4CF96384802B0FFDFCF7F9DE4699CE21A30AFC4F DUP4 DUP4 DUP2 MLOAD DUP2 LT PUSH2 0x137 JUMPI PUSH2 0x136 PUSH2 0x574 JUMP JUMPDEST JUMPDEST PUSH1 0x20 MUL PUSH1 0x20 ADD ADD MLOAD PUSH2 0x15E PUSH1 0x20 SHL PUSH1 0x20 SHR JUMP JUMPDEST POP DUP1 PUSH1 0x1 ADD SWAP1 POP PUSH2 0xF7 JUMP JUMPDEST POP POP POP PUSH2 0x5A3 JUMP JUMPDEST PUSH1 0x0 PUSH2 0x170 DUP4 DUP4 PUSH2 0x2BC PUSH1 0x20 SHL PUSH1 0x20 SHR JUMP JUMPDEST PUSH2 0x250 JUMPI PUSH1 0x1 PUSH1 0x0 DUP1 DUP6 DUP2 MSTORE PUSH1 0x20 ADD SWAP1 DUP2 MSTORE PUSH1 0x20 ADD PUSH1 0x0 KECCAK256 PUSH1 0x0 ADD PUSH1 0x0 DUP5 PUSH20 0xFFFFFFFFFFFFFFFFFFFFFFFFFFFFFFFFFFFFFFFF AND PUSH20 0xFFFFFFFFFFFFFFFFFFFFFFFFFFFFFFFFFFFFFFFF AND DUP2 MSTORE PUSH1 0x20 ADD SWAP1 DUP2 MSTORE PUSH1 0x20 ADD PUSH1 0x0 KECCAK256 PUSH1 0x0 PUSH2 0x100 EXP DUP2 SLOAD DUP2 PUSH1 0xFF MUL NOT AND SWAP1 DUP4 ISZERO ISZERO MUL OR SWAP1 SSTORE POP PUSH2 0x1ED PUSH2 0x326 PUSH1 0x20 SHL PUSH1 0x20 SHR JUMP JUMPDEST PUSH20 0xFFFFFFFFFFFFFFFFFFFFFFFFFFFFFFFFFFFFFFFF AND DUP3 PUSH20 0xFFFFFFFFFFFFFFFFFFFFFFFFFFFFFFFFFFFFFFFF AND DUP5 PUSH32 0x2F8788117E7EFF1D82E926EC794901D17C78024A50270940304540A733656F0D PUSH1 0x40 MLOAD PUSH1 0x40 MLOAD DUP1 SWAP2 SUB SWAP1 LOG4 PUSH1 0x1 SWAP1 POP PUSH2 0x255 JUMP JUMPDEST PUSH1 0x0 SWAP1 POP JUMPDEST SWAP3 SWAP2 POP POP JUMP JUMPDEST PUSH1 0x0 PUSH2 0x26C DUP4 PUSH2 0x32E PUSH1 0x20 SHL PUSH1 0x20 SHR JUMP JUMPDEST SWAP1 POP DUP2 PUSH1 0x0 DUP1 DUP6 DUP2 MSTORE PUSH1 0x20 ADD SWAP1 DUP2 MSTORE PUSH1 0x20 ADD PUSH1 0x0 KECCAK256 PUSH1 0x1 ADD DUP2 SWAP1 SSTORE POP DUP2 DUP2 DUP5 PUSH32 0xBD79B86FFE0AB8E8776151514217CD7CACD52C909F66475C3AF44E129F0B00FF PUSH1 0x40 MLOAD PUSH1 0x40 MLOAD DUP1 SWAP2 SUB SWAP1 LOG4 POP POP POP JUMP JUMPDEST PUSH1 0x0 DUP1 PUSH1 0x0 DUP5 DUP2 MSTORE PUSH1 0x20 ADD SWAP1 DUP2 MSTORE PUSH1 0x20 ADD PUSH1 0x0 KECCAK256 PUSH1 0x0 ADD PUSH1 0x0 DUP4 PUSH20 0xFFFFFFFFFFFFFFFFFFFFFFFFFFFFFFFFFFFFFFFF AND PUSH20 0xFFFFFFFFFFFFFFFFFFFFFFFFFFFFFFFFFFFFFFFF AND DUP2 MSTORE PUSH1 0x20 ADD SWAP1 DUP2 MSTORE PUSH1 0x20 ADD PUSH1 0x0 KECCAK256 PUSH1 0x0 SWAP1 SLOAD SWAP1 PUSH2 0x100 EXP SWAP1 DIV PUSH1 0xFF AND SWAP1 POP SWAP3 SWAP2 POP POP JUMP JUMPDEST PUSH1 0x0 CALLER SWAP1 POP SWAP1 JUMP JUMPDEST PUSH1 0x0 DUP1 PUSH1 0x0 DUP4 DUP2 MSTORE PUSH1 0x20 ADD SWAP1 DUP2 MSTORE PUSH1 0x20 ADD PUSH1 0x0 KECCAK256 PUSH1 0x1 ADD SLOAD SWAP1 POP SWAP2 SWAP1 POP JUMP JUMPDEST PUSH1 0x0 PUSH1 0x40 MLOAD SWAP1 POP SWAP1 JUMP JUMPDEST PUSH1 0x0 DUP1 REVERT JUMPDEST PUSH1 0x0 DUP1 REVERT JUMPDEST PUSH1 0x0 PUSH20 0xFFFFFFFFFFFFFFFFFFFFFFFFFFFFFFFFFFFFFFFF DUP3 AND SWAP1 POP SWAP2 SWAP1 POP JUMP JUMPDEST PUSH1 0x0 PUSH2 0x38C DUP3 PUSH2 0x361 JUMP JUMPDEST SWAP1 POP SWAP2 SWAP1 POP JUMP JUMPDEST PUSH2 0x39C DUP2 PUSH2 0x381 JUMP JUMPDEST DUP2 EQ PUSH2 0x3A7 JUMPI PUSH1 0x0 DUP1 REVERT JUMPDEST POP JUMP JUMPDEST PUSH1 0x0 DUP2 MLOAD SWAP1 POP PUSH2 0x3B9 DUP2 PUSH2 0x393 JUMP JUMPDEST SWAP3 SWAP2 POP POP JUMP JUMPDEST PUSH1 0x0 DUP1 REVERT JUMPDEST PUSH1 0x0 PUSH1 0x1F NOT PUSH1 0x1F DUP4 ADD AND SWAP1 POP SWAP2 SWAP1 POP JUMP JUMPDEST PUSH32 0x4E487B7100000000000000000000000000000000000000000000000000000000 PUSH1 0x0 MSTORE PUSH1 0x41 PUSH1 0x4 MSTORE PUSH1 0x24 PUSH1 0x0 REVERT JUMPDEST PUSH2 0x40D DUP3 PUSH2 0x3C4 JUMP JUMPDEST DUP2 ADD DUP2 DUP2 LT PUSH8 0xFFFFFFFFFFFFFFFF DUP3 GT OR ISZERO PUSH2 0x42C JUMPI PUSH2 0x42B PUSH2 0x3D5 JUMP JUMPDEST JUMPDEST DUP1 PUSH1 0x40 MSTORE POP POP POP JUMP JUMPDEST PUSH1 0x0 PUSH2 0x43F PUSH2 0x34D JUMP JUMPDEST SWAP1 POP PUSH2 0x44B DUP3 DUP3 PUSH2 0x404 JUMP JUMPDEST SWAP2 SWAP1 POP JUMP JUMPDEST PUSH1 0x0 PUSH8 0xFFFFFFFFFFFFFFFF DUP3 GT ISZERO PUSH2 0x46B JUMPI PUSH2 0x46A PUSH2 0x3D5 JUMP JUMPDEST JUMPDEST PUSH1 0x20 DUP3 MUL SWAP1 POP PUSH1 0x20 DUP2 ADD SWAP1 POP SWAP2 SWAP1 POP JUMP JUMPDEST PUSH1 0x0 DUP1 REVERT JUMPDEST PUSH1 0x0 PUSH2 0x494 PUSH2 0x48F DUP5 PUSH2 0x450 JUMP JUMPDEST PUSH2 0x435 JUMP JUMPDEST SWAP1 POP DUP1 DUP4 DUP3 MSTORE PUSH1 0x20 DUP3 ADD SWAP1 POP PUSH1 0x20 DUP5 MUL DUP4 ADD DUP6 DUP2 GT ISZERO PUSH2 0x4B7 JUMPI PUSH2 0x4B6 PUSH2 0x47C JUMP JUMPDEST JUMPDEST DUP4 JUMPDEST DUP2 DUP2 LT ISZERO PUSH2 0x4E0 JUMPI DUP1 PUSH2 0x4CC DUP9 DUP3 PUSH2 0x3AA JUMP JUMPDEST DUP5 MSTORE PUSH1 0x20 DUP5 ADD SWAP4 POP POP PUSH1 0x20 DUP2 ADD SWAP1 POP PUSH2 0x4B9 JUMP JUMPDEST POP POP POP SWAP4 SWAP3 POP POP POP JUMP JUMPDEST PUSH1 0x0 DUP3 PUSH1 0x1F DUP4 ADD SLT PUSH2 0x4FF JUMPI PUSH2 0x4FE PUSH2 0x3BF JUMP JUMPDEST JUMPDEST DUP2 MLOAD PUSH2 0x50F DUP5 DUP3 PUSH1 0x20 DUP7 ADD PUSH2 0x481 JUMP JUMPDEST SWAP2 POP POP SWAP3 SWAP2 POP POP JUMP JUMPDEST PUSH1 0x0 DUP1 PUSH1 0x40 DUP4 DUP6 SUB SLT ISZERO PUSH2 0x52F JUMPI PUSH2 0x52E PUSH2 0x357 JUMP JUMPDEST JUMPDEST PUSH1 0x0 PUSH2 0x53D DUP6 DUP3 DUP7 ADD PUSH2 0x3AA JUMP JUMPDEST SWAP3 POP POP PUSH1 0x20 DUP4 ADD MLOAD PUSH8 0xFFFFFFFFFFFFFFFF DUP2 GT ISZERO PUSH2 0x55E JUMPI PUSH2 0x55D PUSH2 0x35C JUMP JUMPDEST JUMPDEST PUSH2 0x56A DUP6 DUP3 DUP7 ADD PUSH2 0x4EA JUMP JUMPDEST SWAP2 POP POP SWAP3 POP SWAP3 SWAP1 POP JUMP JUMPDEST PUSH32 0x4E487B7100000000000000000000000000000000000000000000000000000000 PUSH1 0x0 MSTORE PUSH1 0x32 PUSH1 0x4 MSTORE PUSH1 0x24 PUSH1 0x0 REVERT JUMPDEST PUSH2 0x49C2 DUP1 PUSH2 0x5B2 PUSH1 0x0 CODECOPY PUSH1 0x0 RETURN INVALID PUSH1 0x80 PUSH1 0x40 MSTORE CALLVALUE DUP1 ISZERO PUSH2 0x10 JUMPI PUSH1 0x0 DUP1 REVERT JUMPDEST POP PUSH1 0x4 CALLDATASIZE LT PUSH2 0x173 JUMPI PUSH1 0x0 CALLDATALOAD PUSH1 0xE0 SHR DUP1 PUSH4 0x60F0A5AC GT PUSH2 0xDE JUMPI DUP1 PUSH4 0xC67807E8 GT PUSH2 0x97 JUMPI DUP1 PUSH4 0xF2FDE38B GT PUSH2 0x71 JUMPI DUP1 PUSH4 0xF2FDE38B EQ PUSH2 0x49E JUMPI DUP1 PUSH4 0xF41400C6 EQ PUSH2 0x4BA JUMPI DUP1 PUSH4 0xF851A440 EQ PUSH2 0x4F4 JUMPI DUP1 PUSH4 0xFEB62024 EQ PUSH2 0x512 JUMPI PUSH2 0x173 JUMP JUMPDEST DUP1 PUSH4 0xC67807E8 EQ PUSH2 0x436 JUMPI DUP1 PUSH4 0xD547741F EQ PUSH2 0x466 JUMPI DUP1 PUSH4 0xDD39F00D EQ PUSH2 0x482 JUMPI PUSH2 0x173 JUMP JUMPDEST DUP1 PUSH4 0x60F0A5AC EQ PUSH2 0x362 JUMPI DUP1 PUSH4 0x79BA5097 EQ PUSH2 0x37E JUMPI DUP1 PUSH4 0x91D14854 EQ PUSH2 0x388 JUMPI DUP1 PUSH4 0xA217FDDF EQ PUSH2 0x3B8 JUMPI DUP1 PUSH4 0xB1D6BB97 EQ PUSH2 0x3D6 JUMPI DUP1 PUSH4 0xB7AF1FD3 EQ PUSH2 0x406 JUMPI PUSH2 0x173 JUMP JUMPDEST DUP1 PUSH4 0x2A0ACC6A GT PUSH2 0x130 JUMPI DUP1 PUSH4 0x2A0ACC6A EQ PUSH2 0x27C JUMPI DUP1 PUSH4 0x2C1C076B EQ PUSH2 0x29A JUMPI DUP1 PUSH4 0x2F2FF15D EQ PUSH2 0x2CA JUMPI DUP1 PUSH4 0x36568ABE EQ PUSH2 0x2E6 JUMPI DUP1 PUSH4 0x3E8389DC EQ PUSH2 0x302 JUMPI DUP1 PUSH4 0x55C66F39 EQ PUSH2 0x332 JUMPI PUSH2 0x173 JUMP JUMPDEST DUP1 PUSH4 0x1FFC9A7 EQ PUSH2 0x178 JUMPI DUP1 PUSH4 0x8BEDBD8 EQ PUSH2 0x1A8 JUMPI DUP1 PUSH4 0x14AC8ED8 EQ PUSH2 0x1E0 JUMPI DUP1 PUSH4 0x2483E715 EQ PUSH2 0x210 JUMPI DUP1 PUSH4 0x248A9CA3 EQ PUSH2 0x22E JUMPI DUP1 PUSH4 0x26782247 EQ PUSH2 0x25E JUMPI JUMPDEST PUSH1 0x0 DUP1 REVERT JUMPDEST PUSH2 0x192 PUSH1 0x4 DUP1 CALLDATASIZE SUB DUP2 ADD SWAP1 PUSH2 0x18D SWAP2 SWAP1 PUSH2 0x2DE6 JUMP JUMPDEST PUSH2 0x52E JUMP JUMPDEST PUSH1 0x40 MLOAD PUSH2 0x19F SWAP2 SWAP1 PUSH2 0x2E2E JUMP JUMPDEST PUSH1 0x40 MLOAD DUP1 SWAP2 SUB SWAP1 RETURN JUMPDEST PUSH2 0x1C2 PUSH1 0x4 DUP1 CALLDATASIZE SUB DUP2 ADD SWAP1 PUSH2 0x1BD SWAP2 SWAP1 PUSH2 0x2E7F JUMP JUMPDEST PUSH2 0x5A8 JUMP JUMPDEST PUSH1 0x40 MLOAD PUSH2 0x1D7 SWAP10 SWAP9 SWAP8 SWAP7 SWAP6 SWAP5 SWAP4 SWAP3 SWAP2 SWAP1 PUSH2 0x300A JUMP JUMPDEST PUSH1 0x40 MLOAD DUP1 SWAP2 SUB SWAP1 RETURN JUMPDEST PUSH2 0x1FA PUSH1 0x4 DUP1 CALLDATASIZE SUB DUP2 ADD SWAP1 PUSH2 0x1F5 SWAP2 SWAP1 PUSH2 0x30E9 JUMP JUMPDEST PUSH2 0x860 JUMP JUMPDEST PUSH1 0x40 MLOAD PUSH2 0x207 SWAP2 SWAP1 PUSH2 0x3116 JUMP JUMPDEST PUSH1 0x40 MLOAD DUP1 SWAP2 SUB SWAP1 RETURN JUMPDEST PUSH2 0x218 PUSH2 0x884 JUMP JUMPDEST PUSH1 0x40 MLOAD PUSH2 0x225 SWAP2 SWAP1 PUSH2 0x3116 JUMP JUMPDEST PUSH1 0x40 MLOAD DUP1 SWAP2 SUB SWAP1 RETURN JUMPDEST PUSH2 0x248 PUSH1 0x4 DUP1 CALLDATASIZE SUB DUP2 ADD SWAP1 PUSH2 0x243 SWAP2 SWAP1 PUSH2 0x2E7F JUMP JUMPDEST PUSH2 0x8A8 JUMP JUMPDEST PUSH1 0x40 MLOAD PUSH2 0x255 SWAP2 SWAP1 PUSH2 0x3116 JUMP JUMPDEST PUSH1 0x40 MLOAD DUP1 SWAP2 SUB SWAP1 RETURN JUMPDEST PUSH2 0x266 PUSH2 0x8C7 JUMP JUMPDEST PUSH1 0x40 MLOAD PUSH2 0x273 SWAP2 SWAP1 PUSH2 0x3172 JUMP JUMPDEST PUSH1 0x40 MLOAD DUP1 SWAP2 SUB SWAP1 RETURN JUMPDEST PUSH2 0x284 PUSH2 0x8ED JUMP JUMPDEST PUSH1 0x40 MLOAD PUSH2 0x291 SWAP2 SWAP1 PUSH2 0x3116 JUMP JUMPDEST PUSH1 0x40 MLOAD DUP1 SWAP2 SUB SWAP1 RETURN JUMPDEST PUSH2 0x2B4 PUSH1 0x4 DUP1 CALLDATASIZE SUB DUP2 ADD SWAP1 PUSH2 0x2AF SWAP2 SWAP1 PUSH2 0x2E7F JUMP JUMPDEST PUSH2 0x911 JUMP JUMPDEST PUSH1 0x40 MLOAD PUSH2 0x2C1 SWAP2 SWAP1 PUSH2 0x3376 JUMP JUMPDEST PUSH1 0x40 MLOAD DUP1 SWAP2 SUB SWAP1 RETURN JUMPDEST PUSH2 0x2E4 PUSH1 0x4 DUP1 CALLDATASIZE SUB DUP2 ADD SWAP1 PUSH2 0x2DF SWAP2 SWAP1 PUSH2 0x33C4 JUMP JUMPDEST PUSH2 0xD3B JUMP JUMPDEST STOP JUMPDEST PUSH2 0x300 PUSH1 0x4 DUP1 CALLDATASIZE SUB DUP2 ADD SWAP1 PUSH2 0x2FB SWAP2 SWAP1 PUSH2 0x33C4 JUMP JUMPDEST PUSH2 0xD5D JUMP JUMPDEST STOP JUMPDEST PUSH2 0x31C PUSH1 0x4 DUP1 CALLDATASIZE SUB DUP2 ADD SWAP1 PUSH2 0x317 SWAP2 SWAP1 PUSH2 0x3429 JUMP JUMPDEST PUSH2 0xDD8 JUMP JUMPDEST PUSH1 0x40 MLOAD PUSH2 0x329 SWAP2 SWAP1 PUSH2 0x3116 JUMP JUMPDEST PUSH1 0x40 MLOAD DUP1 SWAP2 SUB SWAP1 RETURN JUMPDEST PUSH2 0x34C PUSH1 0x4 DUP1 CALLDATASIZE SUB DUP2 ADD SWAP1 PUSH2 0x347 SWAP2 SWAP1 PUSH2 0x3852 JUMP JUMPDEST PUSH2 0x11DB JUMP JUMPDEST PUSH1 0x40 MLOAD PUSH2 0x359 SWAP2 SWAP1 PUSH2 0x3116 JUMP JUMPDEST PUSH1 0x40 MLOAD DUP1 SWAP2 SUB SWAP1 RETURN JUMPDEST PUSH2 0x37C PUSH1 0x4 DUP1 CALLDATASIZE SUB DUP2 ADD SWAP1 PUSH2 0x377 SWAP2 SWAP1 PUSH2 0x389B JUMP JUMPDEST PUSH2 0x12AF JUMP JUMPDEST STOP JUMPDEST PUSH2 0x386 PUSH2 0x133C JUMP JUMPDEST STOP JUMPDEST PUSH2 0x3A2 PUSH1 0x4 DUP1 CALLDATASIZE SUB DUP2 ADD SWAP1 PUSH2 0x39D SWAP2 SWAP1 PUSH2 0x33C4 JUMP JUMPDEST PUSH2 0x14C0 JUMP JUMPDEST PUSH1 0x40 MLOAD PUSH2 0x3AF SWAP2 SWAP1 PUSH2 0x2E2E JUMP JUMPDEST PUSH1 0x40 MLOAD DUP1 SWAP2 SUB SWAP1 RETURN JUMPDEST PUSH2 0x3C0 PUSH2 0x152A JUMP JUMPDEST PUSH1 0x40 MLOAD PUSH2 0x3CD SWAP2 SWAP1 PUSH2 0x3116 JUMP JUMPDEST PUSH1 0x40 MLOAD DUP1 SWAP2 SUB SWAP1 RETURN JUMPDEST PUSH2 0x3F0 PUSH1 0x4 DUP1 CALLDATASIZE SUB DUP2 ADD SWAP1 PUSH2 0x3EB SWAP2 SWAP1 PUSH2 0x2E7F JUMP JUMPDEST PUSH2 0x1531 JUMP JUMPDEST PUSH1 0x40 MLOAD PUSH2 0x3FD SWAP2 SWAP1 PUSH2 0x39CF JUMP JUMPDEST PUSH1 0x40 MLOAD DUP1 SWAP2 SUB SWAP1 RETURN JUMPDEST PUSH2 0x420 PUSH1 0x4 DUP1 CALLDATASIZE SUB DUP2 ADD SWAP1 PUSH2 0x41B SWAP2 SWAP1 PUSH2 0x39F1 JUMP JUMPDEST PUSH2 0x18B6 JUMP JUMPDEST PUSH1 0x40 MLOAD PUSH2 0x42D SWAP2 SWAP1 PUSH2 0x3BFE JUMP JUMPDEST PUSH1 0x40 MLOAD DUP1 SWAP2 SUB SWAP1 RETURN JUMPDEST PUSH2 0x450 PUSH1 0x4 DUP1 CALLDATASIZE SUB DUP2 ADD SWAP1 PUSH2 0x44B SWAP2 SWAP1 PUSH2 0x3D9C JUMP JUMPDEST PUSH2 0x1DE3 JUMP JUMPDEST PUSH1 0x40 MLOAD PUSH2 0x45D SWAP2 SWAP1 PUSH2 0x3116 JUMP JUMPDEST PUSH1 0x40 MLOAD DUP1 SWAP2 SUB SWAP1 RETURN JUMPDEST PUSH2 0x480 PUSH1 0x4 DUP1 CALLDATASIZE SUB DUP2 ADD SWAP1 PUSH2 0x47B SWAP2 SWAP1 PUSH2 0x33C4 JUMP JUMPDEST PUSH2 0x1EAB JUMP JUMPDEST STOP JUMPDEST PUSH2 0x49C PUSH1 0x4 DUP1 CALLDATASIZE SUB DUP2 ADD SWAP1 PUSH2 0x497 SWAP2 SWAP1 PUSH2 0x389B JUMP JUMPDEST PUSH2 0x1ECD JUMP JUMPDEST STOP JUMPDEST PUSH2 0x4B8 PUSH1 0x4 DUP1 CALLDATASIZE SUB DUP2 ADD SWAP1 PUSH2 0x4B3 SWAP2 SWAP1 PUSH2 0x389B JUMP JUMPDEST PUSH2 0x1F5A JUMP JUMPDEST STOP JUMPDEST PUSH2 0x4D4 PUSH1 0x4 DUP1 CALLDATASIZE SUB DUP2 ADD SWAP1 PUSH2 0x4CF SWAP2 SWAP1 PUSH2 0x2E7F JUMP JUMPDEST PUSH2 0x1FFE JUMP JUMPDEST PUSH1 0x40 MLOAD PUSH2 0x4EB SWAP12 SWAP11 SWAP10 SWAP9 SWAP8 SWAP7 SWAP6 SWAP5 SWAP4 SWAP3 SWAP2 SWAP1 PUSH2 0x3E03 JUMP JUMPDEST PUSH1 0x40 MLOAD DUP1 SWAP2 SUB SWAP1 RETURN JUMPDEST PUSH2 0x4FC PUSH2 0x2346 JUMP JUMPDEST PUSH1 0x40 MLOAD PUSH2 0x509 SWAP2 SWAP1 PUSH2 0x3172 JUMP JUMPDEST PUSH1 0x40 MLOAD DUP1 SWAP2 SUB SWAP1 RETURN JUMPDEST PUSH2 0x52C PUSH1 0x4 DUP1 CALLDATASIZE SUB DUP2 ADD SWAP1 PUSH2 0x527 SWAP2 SWAP1 PUSH2 0x3EF1 JUMP JUMPDEST PUSH2 0x236C JUMP JUMPDEST STOP JUMPDEST PUSH1 0x0 PUSH32 0x7965DB0B00000000000000000000000000000000000000000000000000000000 PUSH28 0xFFFFFFFFFFFFFFFFFFFFFFFFFFFFFFFFFFFFFFFFFFFFFFFFFFFFFFFF NOT AND DUP3 PUSH28 0xFFFFFFFFFFFFFFFFFFFFFFFFFFFFFFFFFFFFFFFFFFFFFFFFFFFFFFFF NOT AND EQ DUP1 PUSH2 0x5A1 JUMPI POP PUSH2 0x5A0 DUP3 PUSH2 0x292B JUMP JUMPDEST JUMPDEST SWAP1 POP SWAP2 SWAP1 POP JUMP JUMPDEST PUSH1 0x4 PUSH1 0x20 MSTORE DUP1 PUSH1 0x0 MSTORE PUSH1 0x40 PUSH1 0x0 KECCAK256 PUSH1 0x0 SWAP2 POP SWAP1 POP DUP1 PUSH1 0x0 ADD DUP1 SLOAD PUSH2 0x5CB SWAP1 PUSH2 0x3F69 JUMP JUMPDEST DUP1 PUSH1 0x1F ADD PUSH1 0x20 DUP1 SWAP2 DIV MUL PUSH1 0x20 ADD PUSH1 0x40 MLOAD SWAP1 DUP2 ADD PUSH1 0x40 MSTORE DUP1 SWAP3 SWAP2 SWAP1 DUP2 DUP2 MSTORE PUSH1 0x20 ADD DUP3 DUP1 SLOAD PUSH2 0x5F7 SWAP1 PUSH2 0x3F69 JUMP JUMPDEST DUP1 ISZERO PUSH2 0x644 JUMPI DUP1 PUSH1 0x1F LT PUSH2 0x619 JUMPI PUSH2 0x100 DUP1 DUP4 SLOAD DIV MUL DUP4 MSTORE SWAP2 PUSH1 0x20 ADD SWAP2 PUSH2 0x644 JUMP JUMPDEST DUP3 ADD SWAP2 SWAP1 PUSH1 0x0 MSTORE PUSH1 0x20 PUSH1 0x0 KECCAK256 SWAP1 JUMPDEST DUP2 SLOAD DUP2 MSTORE SWAP1 PUSH1 0x1 ADD SWAP1 PUSH1 0x20 ADD DUP1 DUP4 GT PUSH2 0x627 JUMPI DUP3 SWAP1 SUB PUSH1 0x1F AND DUP3 ADD SWAP2 JUMPDEST POP POP POP POP POP SWAP1 DUP1 PUSH1 0x1 ADD SLOAD SWAP1 DUP1 PUSH1 0x2 ADD PUSH1 0x0 SWAP1 SLOAD SWAP1 PUSH2 0x100 EXP SWAP1 DIV PUSH1 0xFF AND SWAP1 DUP1 PUSH1 0x2 ADD PUSH1 0x1 SWAP1 SLOAD SWAP1 PUSH2 0x100 EXP SWAP1 DIV PUSH1 0xFF AND SWAP1 DUP1 PUSH1 0x3 ADD DUP1 SLOAD PUSH2 0x685 SWAP1 PUSH2 0x3F69 JUMP JUMPDEST DUP1 PUSH1 0x1F ADD PUSH1 0x20 DUP1 SWAP2 DIV MUL PUSH1 0x20 ADD PUSH1 0x40 MLOAD SWAP1 DUP2 ADD PUSH1 0x40 MSTORE DUP1 SWAP3 SWAP2 SWAP1 DUP2 DUP2 MSTORE PUSH1 0x20 ADD DUP3 DUP1 SLOAD PUSH2 0x6B1 SWAP1 PUSH2 0x3F69 JUMP JUMPDEST DUP1 ISZERO PUSH2 0x6FE JUMPI DUP1 PUSH1 0x1F LT PUSH2 0x6D3 JUMPI PUSH2 0x100 DUP1 DUP4 SLOAD DIV MUL DUP4 MSTORE SWAP2 PUSH1 0x20 ADD SWAP2 PUSH2 0x6FE JUMP JUMPDEST DUP3 ADD SWAP2 SWAP1 PUSH1 0x0 MSTORE PUSH1 0x20 PUSH1 0x0 KECCAK256 SWAP1 JUMPDEST DUP2 SLOAD DUP2 MSTORE SWAP1 PUSH1 0x1 ADD SWAP1 PUSH1 0x20 ADD DUP1 DUP4 GT PUSH2 0x6E1 JUMPI DUP3 SWAP1 SUB PUSH1 0x1F AND DUP3 ADD SWAP2 JUMPDEST POP POP POP POP POP SWAP1 DUP1 PUSH1 0x4 ADD PUSH1 0x0 SWAP1 SLOAD SWAP1 PUSH2 0x100 EXP SWAP1 DIV PUSH8 0xFFFFFFFFFFFFFFFF AND SWAP1 DUP1 PUSH1 0x4 ADD PUSH1 0x8 SWAP1 SLOAD SWAP1 PUSH2 0x100 EXP SWAP1 DIV PUSH16 0xFFFFFFFFFFFFFFFFFFFFFFFFFFFFFFFF AND SWAP1 DUP1 PUSH1 0x5 ADD DUP1 SLOAD PUSH2 0x74F SWAP1 PUSH2 0x3F69 JUMP JUMPDEST DUP1 PUSH1 0x1F ADD PUSH1 0x20 DUP1 SWAP2 DIV MUL PUSH1 0x20 ADD PUSH1 0x40 MLOAD SWAP1 DUP2 ADD PUSH1 0x40 MSTORE DUP1 SWAP3 SWAP2 SWAP1 DUP2 DUP2 MSTORE PUSH1 0x20 ADD DUP3 DUP1 SLOAD PUSH2 0x77B SWAP1 PUSH2 0x3F69 JUMP JUMPDEST DUP1 ISZERO PUSH2 0x7C8 JUMPI DUP1 PUSH1 0x1F LT PUSH2 0x79D JUMPI PUSH2 0x100 DUP1 DUP4 SLOAD DIV MUL DUP4 MSTORE SWAP2 PUSH1 0x20 ADD SWAP2 PUSH2 0x7C8 JUMP JUMPDEST DUP3 ADD SWAP2 SWAP1 PUSH1 0x0 MSTORE PUSH1 0x20 PUSH1 0x0 KECCAK256 SWAP1 JUMPDEST DUP2 SLOAD DUP2 MSTORE SWAP1 PUSH1 0x1 ADD SWAP1 PUSH1 0x20 ADD DUP1 DUP4 GT PUSH2 0x7AB JUMPI DUP3 SWAP1 SUB PUSH1 0x1F AND DUP3 ADD SWAP2 JUMPDEST POP POP POP POP POP SWAP1 DUP1 PUSH1 0x6 ADD DUP1 SLOAD PUSH2 0x7DD SWAP1 PUSH2 0x3F69 JUMP JUMPDEST DUP1 PUSH1 0x1F ADD PUSH1 0x20 DUP1 SWAP2 DIV MUL PUSH1 0x20 ADD PUSH1 0x40 MLOAD SWAP1 DUP2 ADD PUSH1 0x40 MSTORE DUP1 SWAP3 SWAP2 SWAP1 DUP2 DUP2 MSTORE PUSH1 0x20 ADD DUP3 DUP1 SLOAD PUSH2 0x809 SWAP1 PUSH2 0x3F69 JUMP JUMPDEST DUP1 ISZERO PUSH2 0x856 JUMPI DUP1 PUSH1 0x1F LT PUSH2 0x82B JUMPI PUSH2 0x100 DUP1 DUP4 SLOAD DIV MUL DUP4 MSTORE SWAP2 PUSH1 0x20 ADD SWAP2 PUSH2 0x856 JUMP JUMPDEST DUP3 ADD SWAP2 SWAP1 PUSH1 0x0 MSTORE PUSH1 0x20 PUSH1 0x0 KECCAK256 SWAP1 JUMPDEST DUP2 SLOAD DUP2 MSTORE SWAP1 PUSH1 0x1 ADD SWAP1 PUSH1 0x20 ADD DUP1 DUP4 GT PUSH2 0x839 JUMPI DUP3 SWAP1 SUB PUSH1 0x1F AND DUP3 ADD SWAP2 JUMPDEST POP POP POP POP POP SWAP1 POP DUP10 JUMP JUMPDEST PUSH1 0x5 DUP2 DUP2 SLOAD DUP2 LT PUSH2 0x870 JUMPI PUSH1 0x0 DUP1 REVERT JUMPDEST SWAP1 PUSH1 0x0 MSTORE PUSH1 0x20 PUSH1 0x0 KECCAK256 ADD PUSH1 0x0 SWAP2 POP SWAP1 POP SLOAD DUP2 JUMP JUMPDEST PUSH32 0xAB4F864E5201B0FDE9B5EE3E4CF96384802B0FFDFCF7F9DE4699CE21A30AFC4F DUP2 JUMP JUMPDEST PUSH1 0x0 DUP1 PUSH1 0x0 DUP4 DUP2 MSTORE PUSH1 0x20 ADD SWAP1 DUP2 MSTORE PUSH1 0x20 ADD PUSH1 0x0 KECCAK256 PUSH1 0x1 ADD SLOAD SWAP1 POP SWAP2 SWAP1 POP JUMP JUMPDEST PUSH1 0x2 PUSH1 0x0 SWAP1 SLOAD SWAP1 PUSH2 0x100 EXP SWAP1 DIV PUSH20 0xFFFFFFFFFFFFFFFFFFFFFFFFFFFFFFFFFFFFFFFF AND DUP2 JUMP JUMPDEST PUSH32 0xDF8B4C520FFE197C5343C6F5AEC59570151EF9A492F2C624FD45DDDE6135EC42 DUP2 JUMP JUMPDEST PUSH2 0x919 PUSH2 0x2BE5 JUMP JUMPDEST PUSH1 0x0 PUSH1 0x3 PUSH1 0x0 DUP5 DUP2 MSTORE PUSH1 0x20 ADD SWAP1 DUP2 MSTORE PUSH1 0x20 ADD PUSH1 0x0 KECCAK256 PUSH1 0x40 MLOAD DUP1 PUSH2 0x160 ADD PUSH1 0x40 MSTORE SWAP1 DUP2 PUSH1 0x0 DUP3 ADD DUP1 SLOAD PUSH2 0x94A SWAP1 PUSH2 0x3F69 JUMP JUMPDEST DUP1 PUSH1 0x1F ADD PUSH1 0x20 DUP1 SWAP2 DIV MUL PUSH1 0x20 ADD PUSH1 0x40 MLOAD SWAP1 DUP2 ADD PUSH1 0x40 MSTORE DUP1 SWAP3 SWAP2 SWAP1 DUP2 DUP2 MSTORE PUSH1 0x20 ADD DUP3 DUP1 SLOAD PUSH2 0x976 SWAP1 PUSH2 0x3F69 JUMP JUMPDEST DUP1 ISZERO PUSH2 0x9C3 JUMPI DUP1 PUSH1 0x1F LT PUSH2 0x998 JUMPI PUSH2 0x100 DUP1 DUP4 SLOAD DIV MUL DUP4 MSTORE SWAP2 PUSH1 0x20 ADD SWAP2 PUSH2 0x9C3 JUMP JUMPDEST DUP3 ADD SWAP2 SWAP1 PUSH1 0x0 MSTORE PUSH1 0x20 PUSH1 0x0 KECCAK256 SWAP1 JUMPDEST DUP2 SLOAD DUP2 MSTORE SWAP1 PUSH1 0x1 ADD SWAP1 PUSH1 0x20 ADD DUP1 DUP4 GT PUSH2 0x9A6 JUMPI DUP3 SWAP1 SUB PUSH1 0x1F AND DUP3 ADD SWAP2 JUMPDEST POP POP POP POP POP DUP2 MSTORE PUSH1 0x20 ADD PUSH1 0x1 DUP3 ADD SLOAD DUP2 MSTORE PUSH1 0x20 ADD PUSH1 0x2 DUP3 ADD DUP1 SLOAD PUSH2 0x9E6 SWAP1 PUSH2 0x3F69 JUMP JUMPDEST DUP1 PUSH1 0x1F ADD PUSH1 0x20 DUP1 SWAP2 DIV MUL PUSH1 0x20 ADD PUSH1 0x40 MLOAD SWAP1 DUP2 ADD PUSH1 0x40 MSTORE DUP1 SWAP3 SWAP2 SWAP1 DUP2 DUP2 MSTORE PUSH1 0x20 ADD DUP3 DUP1 SLOAD PUSH2 0xA12 SWAP1 PUSH2 0x3F69 JUMP JUMPDEST DUP1 ISZERO PUSH2 0xA5F JUMPI DUP1 PUSH1 0x1F LT PUSH2 0xA34 JUMPI PUSH2 0x100 DUP1 DUP4 SLOAD DIV MUL DUP4 MSTORE SWAP2 PUSH1 0x20 ADD SWAP2 PUSH2 0xA5F JUMP JUMPDEST DUP3 ADD SWAP2 SWAP1 PUSH1 0x0 MSTORE PUSH1 0x20 PUSH1 0x0 KECCAK256 SWAP1 JUMPDEST DUP2 SLOAD DUP2 MSTORE SWAP1 PUSH1 0x1 ADD SWAP1 PUSH1 0x20 ADD DUP1 DUP4 GT PUSH2 0xA42 JUMPI DUP3 SWAP1 SUB PUSH1 0x1F AND DUP3 ADD SWAP2 JUMPDEST POP POP POP POP POP DUP2 MSTORE PUSH1 0x20 ADD PUSH1 0x3 DUP3 ADD SLOAD DUP2 MSTORE PUSH1 0x20 ADD PUSH1 0x4 DUP3 ADD DUP1 SLOAD PUSH2 0xA82 SWAP1 PUSH2 0x3F69 JUMP JUMPDEST DUP1 PUSH1 0x1F ADD PUSH1 0x20 DUP1 SWAP2 DIV MUL PUSH1 0x20 ADD PUSH1 0x40 MLOAD SWAP1 DUP2 ADD PUSH1 0x40 MSTORE DUP1 SWAP3 SWAP2 SWAP1 DUP2 DUP2 MSTORE PUSH1 0x20 ADD DUP3 DUP1 SLOAD PUSH2 0xAAE SWAP1 PUSH2 0x3F69 JUMP JUMPDEST DUP1 ISZERO PUSH2 0xAFB JUMPI DUP1 PUSH1 0x1F LT PUSH2 0xAD0 JUMPI PUSH2 0x100 DUP1 DUP4 SLOAD DIV MUL DUP4 MSTORE SWAP2 PUSH1 0x20 ADD SWAP2 PUSH2 0xAFB JUMP JUMPDEST DUP3 ADD SWAP2 SWAP1 PUSH1 0x0 MSTORE PUSH1 0x20 PUSH1 0x0 KECCAK256 SWAP1 JUMPDEST DUP2 SLOAD DUP2 MSTORE SWAP1 PUSH1 0x1 ADD SWAP1 PUSH1 0x20 ADD DUP1 DUP4 GT PUSH2 0xADE JUMPI DUP3 SWAP1 SUB PUSH1 0x1F AND DUP3 ADD SWAP2 JUMPDEST POP POP POP POP POP DUP2 MSTORE PUSH1 0x20 ADD PUSH1 0x5 DUP3 ADD PUSH1 0x0 SWAP1 SLOAD SWAP1 PUSH2 0x100 EXP SWAP1 DIV PUSH2 0xFFFF AND PUSH2 0xFFFF AND PUSH2 0xFFFF AND DUP2 MSTORE PUSH1 0x20 ADD PUSH1 0x6 DUP3 ADD DUP1 SLOAD PUSH2 0xB34 SWAP1 PUSH2 0x3F69 JUMP JUMPDEST DUP1 PUSH1 0x1F ADD PUSH1 0x20 DUP1 SWAP2 DIV MUL PUSH1 0x20 ADD PUSH1 0x40 MLOAD SWAP1 DUP2 ADD PUSH1 0x40 MSTORE DUP1 SWAP3 SWAP2 SWAP1 DUP2 DUP2 MSTORE PUSH1 0x20 ADD DUP3 DUP1 SLOAD PUSH2 0xB60 SWAP1 PUSH2 0x3F69 JUMP JUMPDEST DUP1 ISZERO PUSH2 0xBAD JUMPI DUP1 PUSH1 0x1F LT PUSH2 0xB82 JUMPI PUSH2 0x100 DUP1 DUP4 SLOAD DIV MUL DUP4 MSTORE SWAP2 PUSH1 0x20 ADD SWAP2 PUSH2 0xBAD JUMP JUMPDEST DUP3 ADD SWAP2 SWAP1 PUSH1 0x0 MSTORE PUSH1 0x20 PUSH1 0x0 KECCAK256 SWAP1 JUMPDEST DUP2 SLOAD DUP2 MSTORE SWAP1 PUSH1 0x1 ADD SWAP1 PUSH1 0x20 ADD DUP1 DUP4 GT PUSH2 0xB90 JUMPI DUP3 SWAP1 SUB PUSH1 0x1F AND DUP3 ADD SWAP2 JUMPDEST POP POP POP POP POP DUP2 MSTORE PUSH1 0x20 ADD PUSH1 0x7 DUP3 ADD PUSH1 0x0 SWAP1 SLOAD SWAP1 PUSH2 0x100 EXP SWAP1 DIV PUSH16 0xFFFFFFFFFFFFFFFFFFFFFFFFFFFFFFFF AND PUSH16 0xFFFFFFFFFFFFFFFFFFFFFFFFFFFFFFFF AND PUSH16 0xFFFFFFFFFFFFFFFFFFFFFFFFFFFFFFFF AND DUP2 MSTORE PUSH1 0x20 ADD PUSH1 0x7 DUP3 ADD PUSH1 0x10 SWAP1 SLOAD SWAP1 PUSH2 0x100 EXP SWAP1 DIV PUSH16 0xFFFFFFFFFFFFFFFFFFFFFFFFFFFFFFFF AND PUSH16 0xFFFFFFFFFFFFFFFFFFFFFFFFFFFFFFFF AND PUSH16 0xFFFFFFFFFFFFFFFFFFFFFFFFFFFFFFFF AND DUP2 MSTORE PUSH1 0x20 ADD PUSH1 0x8 DUP3 ADD DUP1 SLOAD PUSH2 0xC5A SWAP1 PUSH2 0x3F69 JUMP JUMPDEST DUP1 PUSH1 0x1F ADD PUSH1 0x20 DUP1 SWAP2 DIV MUL PUSH1 0x20 ADD PUSH1 0x40 MLOAD SWAP1 DUP2 ADD PUSH1 0x40 MSTORE DUP1 SWAP3 SWAP2 SWAP1 DUP2 DUP2 MSTORE PUSH1 0x20 ADD DUP3 DUP1 SLOAD PUSH2 0xC86 SWAP1 PUSH2 0x3F69 JUMP JUMPDEST DUP1 ISZERO PUSH2 0xCD3 JUMPI DUP1 PUSH1 0x1F LT PUSH2 0xCA8 JUMPI PUSH2 0x100 DUP1 DUP4 SLOAD DIV MUL DUP4 MSTORE SWAP2 PUSH1 0x20 ADD SWAP2 PUSH2 0xCD3 JUMP JUMPDEST DUP3 ADD SWAP2 SWAP1 PUSH1 0x0 MSTORE PUSH1 0x20 PUSH1 0x0 KECCAK256 SWAP1 JUMPDEST DUP2 SLOAD DUP2 MSTORE SWAP1 PUSH1 0x1 ADD SWAP1 PUSH1 0x20 ADD DUP1 DUP4 GT PUSH2 0xCB6 JUMPI DUP3 SWAP1 SUB PUSH1 0x1F AND DUP3 ADD SWAP2 JUMPDEST POP POP POP POP POP DUP2 MSTORE PUSH1 0x20 ADD PUSH1 0x9 DUP3 ADD SLOAD DUP2 MSTORE POP POP SWAP1 POP PUSH1 0x0 DUP2 PUSH1 0x0 ADD MLOAD MLOAD SUB PUSH2 0xD32 JUMPI DUP3 PUSH1 0x40 MLOAD PUSH32 0xBAC0836200000000000000000000000000000000000000000000000000000000 DUP2 MSTORE PUSH1 0x4 ADD PUSH2 0xD29 SWAP2 SWAP1 PUSH2 0x3116 JUMP JUMPDEST PUSH1 0x40 MLOAD DUP1 SWAP2 SUB SWAP1 REVERT JUMPDEST DUP1 SWAP2 POP POP SWAP2 SWAP1 POP JUMP JUMPDEST PUSH2 0xD44 DUP3 PUSH2 0x8A8 JUMP JUMPDEST PUSH2 0xD4D DUP2 PUSH2 0x2995 JUMP JUMPDEST PUSH2 0xD57 DUP4 DUP4 PUSH2 0x29A9 JUMP JUMPDEST POP POP POP POP JUMP JUMPDEST PUSH2 0xD65 PUSH2 0x2A9A JUMP JUMPDEST PUSH20 0xFFFFFFFFFFFFFFFFFFFFFFFFFFFFFFFFFFFFFFFF AND DUP2 PUSH20 0xFFFFFFFFFFFFFFFFFFFFFFFFFFFFFFFFFFFFFFFF AND EQ PUSH2 0xDC9 JUMPI PUSH1 0x40 MLOAD PUSH32 0x6697B23200000000000000000000000000000000000000000000000000000000 DUP2 MSTORE PUSH1 0x4 ADD PUSH1 0x40 MLOAD DUP1 SWAP2 SUB SWAP1 REVERT JUMPDEST PUSH2 0xDD3 DUP3 DUP3 PUSH2 0x2AA2 JUMP JUMPDEST POP POP POP JUMP JUMPDEST PUSH1 0x0 DUP1 PUSH2 0xDED DUP4 PUSH2 0xDE8 SWAP1 PUSH2 0x3F9A JUMP JUMPDEST PUSH2 0x1DE3 JUMP JUMPDEST SWAP1 POP PUSH1 0x0 PUSH1 0x40 MLOAD DUP1 PUSH2 0x160 ADD PUSH1 0x40 MSTORE DUP1 PUSH1 0x40 MLOAD DUP1 PUSH1 0x40 ADD PUSH1 0x40 MSTORE DUP1 PUSH1 0x5 DUP2 MSTORE PUSH1 0x20 ADD PUSH32 0x302E302E31000000000000000000000000000000000000000000000000000000 DUP2 MSTORE POP DUP2 MSTORE PUSH1 0x20 ADD DUP6 PUSH1 0x0 ADD CALLDATALOAD DUP2 MSTORE PUSH1 0x20 ADD DUP6 DUP1 PUSH1 0x20 ADD SWAP1 PUSH2 0xE52 SWAP2 SWAP1 PUSH2 0x3FBC JUMP JUMPDEST DUP1 DUP1 PUSH1 0x1F ADD PUSH1 0x20 DUP1 SWAP2 DIV MUL PUSH1 0x20 ADD PUSH1 0x40 MLOAD SWAP1 DUP2 ADD PUSH1 0x40 MSTORE DUP1 SWAP4 SWAP3 SWAP2 SWAP1 DUP2 DUP2 MSTORE PUSH1 0x20 ADD DUP4 DUP4 DUP1 DUP3 DUP5 CALLDATACOPY PUSH1 0x0 DUP2 DUP5 ADD MSTORE PUSH1 0x1F NOT PUSH1 0x1F DUP3 ADD AND SWAP1 POP DUP1 DUP4 ADD SWAP3 POP POP POP POP POP POP POP DUP2 MSTORE PUSH1 0x20 ADD DUP6 PUSH1 0x40 ADD CALLDATALOAD DUP2 MSTORE PUSH1 0x20 ADD DUP6 DUP1 PUSH1 0x60 ADD SWAP1 PUSH2 0xEB4 SWAP2 SWAP1 PUSH2 0x3FBC JUMP JUMPDEST DUP1 DUP1 PUSH1 0x1F ADD PUSH1 0x20 DUP1 SWAP2 DIV MUL PUSH1 0x20 ADD PUSH1 0x40 MLOAD SWAP1 DUP2 ADD PUSH1 0x40 MSTORE DUP1 SWAP4 SWAP3 SWAP2 SWAP1 DUP2 DUP2 MSTORE PUSH1 0x20 ADD DUP4 DUP4 DUP1 DUP3 DUP5 CALLDATACOPY PUSH1 0x0 DUP2 DUP5 ADD MSTORE PUSH1 0x1F NOT PUSH1 0x1F DUP3 ADD AND SWAP1 POP DUP1 DUP4 ADD SWAP3 POP POP POP POP POP POP POP DUP2 MSTORE PUSH1 0x20 ADD DUP6 PUSH1 0x80 ADD PUSH1 0x20 DUP2 ADD SWAP1 PUSH2 0xF0F SWAP2 SWAP1 PUSH2 0x401F JUMP JUMPDEST PUSH2 0xFFFF AND DUP2 MSTORE PUSH1 0x20 ADD DUP6 DUP1 PUSH1 0xA0 ADD SWAP1 PUSH2 0xF28 SWAP2 SWAP1 PUSH2 0x3FBC JUMP JUMPDEST DUP1 DUP1 PUSH1 0x1F ADD PUSH1 0x20 DUP1 SWAP2 DIV MUL PUSH1 0x20 ADD PUSH1 0x40 MLOAD SWAP1 DUP2 ADD PUSH1 0x40 MSTORE DUP1 SWAP4 SWAP3 SWAP2 SWAP1 DUP2 DUP2 MSTORE PUSH1 0x20 ADD DUP4 DUP4 DUP1 DUP3 DUP5 CALLDATACOPY PUSH1 0x0 DUP2 DUP5 ADD MSTORE PUSH1 0x1F NOT PUSH1 0x1F DUP3 ADD AND SWAP1 POP DUP1 DUP4 ADD SWAP3 POP POP POP POP POP POP POP DUP2 MSTORE PUSH1 0x20 ADD DUP6 PUSH1 0xC0 ADD PUSH1 0x20 DUP2 ADD SWAP1 PUSH2 0xF83 SWAP2 SWAP1 PUSH2 0x404C JUMP JUMPDEST PUSH16 0xFFFFFFFFFFFFFFFFFFFFFFFFFFFFFFFF AND DUP2 MSTORE PUSH1 0x20 ADD DUP6 PUSH1 0xE0 ADD PUSH1 0x20 DUP2 ADD SWAP1 PUSH2 0xFAD SWAP2 SWAP1 PUSH2 0x404C JUMP JUMPDEST PUSH16 0xFFFFFFFFFFFFFFFFFFFFFFFFFFFFFFFF AND DUP2 MSTORE PUSH1 0x20 ADD DUP6 DUP1 PUSH2 0x100 ADD SWAP1 PUSH2 0xFD5 SWAP2 SWAP1 PUSH2 0x3FBC JUMP JUMPDEST DUP1 DUP1 PUSH1 0x1F ADD PUSH1 0x20 DUP1 SWAP2 DIV MUL PUSH1 0x20 ADD PUSH1 0x40 MLOAD SWAP1 DUP2 ADD PUSH1 0x40 MSTORE DUP1 SWAP4 SWAP3 SWAP2 SWAP1 DUP2 DUP2 MSTORE PUSH1 0x20 ADD DUP4 DUP4 DUP1 DUP3 DUP5 CALLDATACOPY PUSH1 0x0 DUP2 DUP5 ADD MSTORE PUSH1 0x1F NOT PUSH1 0x1F DUP3 ADD AND SWAP1 POP DUP1 DUP4 ADD SWAP3 POP POP POP POP POP POP POP DUP2 MSTORE PUSH1 0x20 ADD PUSH1 0x5 DUP1 SLOAD SWAP1 POP DUP2 MSTORE POP SWAP1 POP DUP1 PUSH1 0x3 PUSH1 0x0 DUP5 DUP2 MSTORE PUSH1 0x20 ADD SWAP1 DUP2 MSTORE PUSH1 0x20 ADD PUSH1 0x0 KECCAK256 PUSH1 0x0 DUP3 ADD MLOAD DUP2 PUSH1 0x0 ADD SWAP1 DUP2 PUSH2 0x1051 SWAP2 SWAP1 PUSH2 0x4225 JUMP JUMPDEST POP PUSH1 0x20 DUP3 ADD MLOAD DUP2 PUSH1 0x1 ADD SSTORE PUSH1 0x40 DUP3 ADD MLOAD DUP2 PUSH1 0x2 ADD SWAP1 DUP2 PUSH2 0x1071 SWAP2 SWAP1 PUSH2 0x4352 JUMP JUMPDEST POP PUSH1 0x60 DUP3 ADD MLOAD DUP2 PUSH1 0x3 ADD SSTORE PUSH1 0x80 DUP3 ADD MLOAD DUP2 PUSH1 0x4 ADD SWAP1 DUP2 PUSH2 0x1091 SWAP2 SWAP1 PUSH2 0x4352 JUMP JUMPDEST POP PUSH1 0xA0 DUP3 ADD MLOAD DUP2 PUSH1 0x5 ADD PUSH1 0x0 PUSH2 0x100 EXP DUP2 SLOAD DUP2 PUSH2 0xFFFF MUL NOT AND SWAP1 DUP4 PUSH2 0xFFFF AND MUL OR SWAP1 SSTORE POP PUSH1 0xC0 DUP3 ADD MLOAD DUP2 PUSH1 0x6 ADD SWAP1 DUP2 PUSH2 0x10CA SWAP2 SWAP1 PUSH2 0x4352 JUMP JUMPDEST POP PUSH1 0xE0 DUP3 ADD MLOAD DUP2 PUSH1 0x7 ADD PUSH1 0x0 PUSH2 0x100 EXP DUP2 SLOAD DUP2 PUSH16 0xFFFFFFFFFFFFFFFFFFFFFFFFFFFFFFFF MUL NOT AND SWAP1 DUP4 PUSH16 0xFFFFFFFFFFFFFFFFFFFFFFFFFFFFFFFF AND MUL OR SWAP1 SSTORE POP PUSH2 0x100 DUP3 ADD MLOAD DUP2 PUSH1 0x7 ADD PUSH1 0x10 PUSH2 0x100 EXP DUP2 SLOAD DUP2 PUSH16 0xFFFFFFFFFFFFFFFFFFFFFFFFFFFFFFFF MUL NOT AND SWAP1 DUP4 PUSH16 0xFFFFFFFFFFFFFFFFFFFFFFFFFFFFFFFF AND MUL OR SWAP1 SSTORE POP PUSH2 0x120 DUP3 ADD MLOAD DUP2 PUSH1 0x8 ADD SWAP1 DUP2 PUSH2 0x1160 SWAP2 SWAP1 PUSH2 0x4352 JUMP JUMPDEST POP PUSH2 0x140 DUP3 ADD MLOAD DUP2 PUSH1 0x9 ADD SSTORE SWAP1 POP POP PUSH1 0x5 DUP3 SWAP1 DUP1 PUSH1 0x1 DUP2 SLOAD ADD DUP1 DUP3 SSTORE DUP1 SWAP2 POP POP PUSH1 0x1 SWAP1 SUB SWAP1 PUSH1 0x0 MSTORE PUSH1 0x20 PUSH1 0x0 KECCAK256 ADD PUSH1 0x0 SWAP1 SWAP2 SWAP1 SWAP2 SWAP1 SWAP2 POP SSTORE PUSH32 0x19BA75B73C81006C10A98A994F16821A9A88364005A28F56CB0976C840F051D DUP2 CALLER PUSH1 0x40 MLOAD PUSH2 0x11C9 SWAP3 SWAP2 SWAP1 PUSH2 0x4424 JUMP JUMPDEST PUSH1 0x40 MLOAD DUP1 SWAP2 SUB SWAP1 LOG1 DUP2 SWAP3 POP POP POP SWAP2 SWAP1 POP JUMP JUMPDEST PUSH1 0x0 DUP1 PUSH1 0x40 MLOAD DUP1 PUSH1 0x40 ADD PUSH1 0x40 MSTORE DUP1 PUSH1 0x5 DUP2 MSTORE PUSH1 0x20 ADD PUSH32 0x302E302E31000000000000000000000000000000000000000000000000000000 DUP2 MSTORE POP DUP1 MLOAD SWAP1 PUSH1 0x20 ADD KECCAK256 DUP4 PUSH1 0x20 ADD MLOAD DUP5 PUSH1 0x40 ADD MLOAD PUSH2 0x1233 JUMPI PUSH1 0x0 PUSH1 0xF8 SHL PUSH2 0x1239 JUMP JUMPDEST PUSH1 0x1 PUSH1 0xF8 SHL JUMPDEST DUP6 PUSH1 0x60 ADD MLOAD PUSH1 0xF8 SHL DUP7 PUSH1 0x80 ADD MLOAD DUP1 MLOAD SWAP1 PUSH1 0x20 ADD KECCAK256 DUP8 PUSH1 0xA0 ADD MLOAD PUSH1 0xC0 SHL DUP9 PUSH1 0xC0 ADD MLOAD PUSH1 0x80 SHL DUP10 PUSH1 0xE0 ADD MLOAD DUP1 MLOAD SWAP1 PUSH1 0x20 ADD KECCAK256 DUP11 PUSH2 0x100 ADD MLOAD DUP1 MLOAD SWAP1 PUSH1 0x20 ADD KECCAK256 PUSH1 0x40 MLOAD PUSH1 0x20 ADD PUSH2 0x128E SWAP10 SWAP9 SWAP8 SWAP7 SWAP6 SWAP5 SWAP4 SWAP3 SWAP2 SWAP1 PUSH2 0x455C JUMP JUMPDEST PUSH1 0x40 MLOAD PUSH1 0x20 DUP2 DUP4 SUB SUB DUP2 MSTORE SWAP1 PUSH1 0x40 MSTORE DUP1 MLOAD SWAP1 PUSH1 0x20 ADD KECCAK256 SWAP1 POP DUP1 SWAP2 POP POP SWAP2 SWAP1 POP JUMP JUMPDEST PUSH2 0x12D9 PUSH32 0xDF8B4C520FFE197C5343C6F5AEC59570151EF9A492F2C624FD45DDDE6135EC42 CALLER PUSH2 0x14C0 JUMP JUMPDEST PUSH2 0x130F JUMPI PUSH1 0x40 MLOAD PUSH32 0x7BFA4B9F00000000000000000000000000000000000000000000000000000000 DUP2 MSTORE PUSH1 0x4 ADD PUSH1 0x40 MLOAD DUP1 SWAP2 SUB SWAP1 REVERT JUMPDEST PUSH2 0x1339 PUSH32 0xAB4F864E5201B0FDE9B5EE3E4CF96384802B0FFDFCF7F9DE4699CE21A30AFC4F DUP3 PUSH2 0x1EAB JUMP JUMPDEST POP JUMP JUMPDEST PUSH1 0x2 PUSH1 0x0 SWAP1 SLOAD SWAP1 PUSH2 0x100 EXP SWAP1 DIV PUSH20 0xFFFFFFFFFFFFFFFFFFFFFFFFFFFFFFFFFFFFFFFF AND PUSH20 0xFFFFFFFFFFFFFFFFFFFFFFFFFFFFFFFFFFFFFFFF AND CALLER PUSH20 0xFFFFFFFFFFFFFFFFFFFFFFFFFFFFFFFFFFFFFFFF AND EQ PUSH2 0x13C3 JUMPI PUSH1 0x40 MLOAD PUSH32 0x58D9A1B00000000000000000000000000000000000000000000000000000000 DUP2 MSTORE PUSH1 0x4 ADD PUSH1 0x40 MLOAD DUP1 SWAP2 SUB SWAP1 REVERT JUMPDEST PUSH2 0x140F PUSH32 0xDF8B4C520FFE197C5343C6F5AEC59570151EF9A492F2C624FD45DDDE6135EC42 PUSH1 0x1 PUSH1 0x0 SWAP1 SLOAD SWAP1 PUSH2 0x100 EXP SWAP1 DIV PUSH20 0xFFFFFFFFFFFFFFFFFFFFFFFFFFFFFFFFFFFFFFFF AND PUSH2 0x2AA2 JUMP JUMPDEST POP PUSH2 0x143A PUSH32 0xDF8B4C520FFE197C5343C6F5AEC59570151EF9A492F2C624FD45DDDE6135EC42 CALLER PUSH2 0x29A9 JUMP JUMPDEST POP CALLER PUSH1 0x1 PUSH1 0x0 PUSH2 0x100 EXP DUP2 SLOAD DUP2 PUSH20 0xFFFFFFFFFFFFFFFFFFFFFFFFFFFFFFFFFFFFFFFF MUL NOT AND SWAP1 DUP4 PUSH20 0xFFFFFFFFFFFFFFFFFFFFFFFFFFFFFFFFFFFFFFFF AND MUL OR SWAP1 SSTORE POP PUSH1 0x0 PUSH1 0x2 PUSH1 0x0 PUSH2 0x100 EXP DUP2 SLOAD DUP2 PUSH20 0xFFFFFFFFFFFFFFFFFFFFFFFFFFFFFFFFFFFFFFFF MUL NOT AND SWAP1 DUP4 PUSH20 0xFFFFFFFFFFFFFFFFFFFFFFFFFFFFFFFFFFFFFFFF AND MUL OR SWAP1 SSTORE POP JUMP JUMPDEST PUSH1 0x0 DUP1 PUSH1 0x0 DUP5 DUP2 MSTORE PUSH1 0x20 ADD SWAP1 DUP2 MSTORE PUSH1 0x20 ADD PUSH1 0x0 KECCAK256 PUSH1 0x0 ADD PUSH1 0x0 DUP4 PUSH20 0xFFFFFFFFFFFFFFFFFFFFFFFFFFFFFFFFFFFFFFFF AND PUSH20 0xFFFFFFFFFFFFFFFFFFFFFFFFFFFFFFFFFFFFFFFF AND DUP2 MSTORE PUSH1 0x20 ADD SWAP1 DUP2 MSTORE PUSH1 0x20 ADD PUSH1 0x0 KECCAK256 PUSH1 0x0 SWAP1 SLOAD SWAP1 PUSH2 0x100 EXP SWAP1 DIV PUSH1 0xFF AND SWAP1 POP SWAP3 SWAP2 POP POP JUMP JUMPDEST PUSH1 0x0 DUP1 SHL DUP2 JUMP JUMPDEST PUSH2 0x1539 PUSH2 0x2C6D JUMP JUMPDEST PUSH1 0x0 PUSH1 0x4 PUSH1 0x0 DUP5 DUP2 MSTORE PUSH1 0x20 ADD SWAP1 DUP2 MSTORE PUSH1 0x20 ADD PUSH1 0x0 KECCAK256 PUSH1 0x40 MLOAD DUP1 PUSH2 0x120 ADD PUSH1 0x40 MSTORE SWAP1 DUP2 PUSH1 0x0 DUP3 ADD DUP1 SLOAD PUSH2 0x156A SWAP1 PUSH2 0x3F69 JUMP JUMPDEST DUP1 PUSH1 0x1F ADD PUSH1 0x20 DUP1 SWAP2 DIV MUL PUSH1 0x20 ADD PUSH1 0x40 MLOAD SWAP1 DUP2 ADD PUSH1 0x40 MSTORE DUP1 SWAP3 SWAP2 SWAP1 DUP2 DUP2 MSTORE PUSH1 0x20 ADD DUP3 DUP1 SLOAD PUSH2 0x1596 SWAP1 PUSH2 0x3F69 JUMP JUMPDEST DUP1 ISZERO PUSH2 0x15E3 JUMPI DUP1 PUSH1 0x1F LT PUSH2 0x15B8 JUMPI PUSH2 0x100 DUP1 DUP4 SLOAD DIV MUL DUP4 MSTORE SWAP2 PUSH1 0x20 ADD SWAP2 PUSH2 0x15E3 JUMP JUMPDEST DUP3 ADD SWAP2 SWAP1 PUSH1 0x0 MSTORE PUSH1 0x20 PUSH1 0x0 KECCAK256 SWAP1 JUMPDEST DUP2 SLOAD DUP2 MSTORE SWAP1 PUSH1 0x1 ADD SWAP1 PUSH1 0x20 ADD DUP1 DUP4 GT PUSH2 0x15C6 JUMPI DUP3 SWAP1 SUB PUSH1 0x1F AND DUP3 ADD SWAP2 JUMPDEST POP POP POP POP POP DUP2 MSTORE PUSH1 0x20 ADD PUSH1 0x1 DUP3 ADD SLOAD DUP2 MSTORE PUSH1 0x20 ADD PUSH1 0x2 DUP3 ADD PUSH1 0x0 SWAP1 SLOAD SWAP1 PUSH2 0x100 EXP SWAP1 DIV PUSH1 0xFF AND ISZERO ISZERO ISZERO ISZERO DUP2 MSTORE PUSH1 0x20 ADD PUSH1 0x2 DUP3 ADD PUSH1 0x1 SWAP1 SLOAD SWAP1 PUSH2 0x100 EXP SWAP1 DIV PUSH1 0xFF AND PUSH1 0xFF AND PUSH1 0xFF AND DUP2 MSTORE PUSH1 0x20 ADD PUSH1 0x3 DUP3 ADD DUP1 SLOAD PUSH2 0x163E SWAP1 PUSH2 0x3F69 JUMP JUMPDEST DUP1 PUSH1 0x1F ADD PUSH1 0x20 DUP1 SWAP2 DIV MUL PUSH1 0x20 ADD PUSH1 0x40 MLOAD SWAP1 DUP2 ADD PUSH1 0x40 MSTORE DUP1 SWAP3 SWAP2 SWAP1 DUP2 DUP2 MSTORE PUSH1 0x20 ADD DUP3 DUP1 SLOAD PUSH2 0x166A SWAP1 PUSH2 0x3F69 JUMP JUMPDEST DUP1 ISZERO PUSH2 0x16B7 JUMPI DUP1 PUSH1 0x1F LT PUSH2 0x168C JUMPI PUSH2 0x100 DUP1 DUP4 SLOAD DIV MUL DUP4 MSTORE SWAP2 PUSH1 0x20 ADD SWAP2 PUSH2 0x16B7 JUMP JUMPDEST DUP3 ADD SWAP2 SWAP1 PUSH1 0x0 MSTORE PUSH1 0x20 PUSH1 0x0 KECCAK256 SWAP1 JUMPDEST DUP2 SLOAD DUP2 MSTORE SWAP1 PUSH1 0x1 ADD SWAP1 PUSH1 0x20 ADD DUP1 DUP4 GT PUSH2 0x169A JUMPI DUP3 SWAP1 SUB PUSH1 0x1F AND DUP3 ADD SWAP2 JUMPDEST POP POP POP POP POP DUP2 MSTORE PUSH1 0x20 ADD PUSH1 0x4 DUP3 ADD PUSH1 0x0 SWAP1 SLOAD SWAP1 PUSH2 0x100 EXP SWAP1 DIV PUSH8 0xFFFFFFFFFFFFFFFF AND PUSH8 0xFFFFFFFFFFFFFFFF AND PUSH8 0xFFFFFFFFFFFFFFFF AND DUP2 MSTORE PUSH1 0x20 ADD PUSH1 0x4 DUP3 ADD PUSH1 0x8 SWAP1 SLOAD SWAP1 PUSH2 0x100 EXP SWAP1 DIV PUSH16 0xFFFFFFFFFFFFFFFFFFFFFFFFFFFFFFFF AND PUSH16 0xFFFFFFFFFFFFFFFFFFFFFFFFFFFFFFFF AND PUSH16 0xFFFFFFFFFFFFFFFFFFFFFFFFFFFFFFFF AND DUP2 MSTORE PUSH1 0x20 ADD PUSH1 0x5 DUP3 ADD DUP1 SLOAD PUSH2 0x174C SWAP1 PUSH2 0x3F69 JUMP JUMPDEST DUP1 PUSH1 0x1F ADD PUSH1 0x20 DUP1 SWAP2 DIV MUL PUSH1 0x20 ADD PUSH1 0x40 MLOAD SWAP1 DUP2 ADD PUSH1 0x40 MSTORE DUP1 SWAP3 SWAP2 SWAP1 DUP2 DUP2 MSTORE PUSH1 0x20 ADD DUP3 DUP1 SLOAD PUSH2 0x1778 SWAP1 PUSH2 0x3F69 JUMP JUMPDEST DUP1 ISZERO PUSH2 0x17C5 JUMPI DUP1 PUSH1 0x1F LT PUSH2 0x179A JUMPI PUSH2 0x100 DUP1 DUP4 SLOAD DIV MUL DUP4 MSTORE SWAP2 PUSH1 0x20 ADD SWAP2 PUSH2 0x17C5 JUMP JUMPDEST DUP3 ADD SWAP2 SWAP1 PUSH1 0x0 MSTORE PUSH1 0x20 PUSH1 0x0 KECCAK256 SWAP1 JUMPDEST DUP2 SLOAD DUP2 MSTORE SWAP1 PUSH1 0x1 ADD SWAP1 PUSH1 0x20 ADD DUP1 DUP4 GT PUSH2 0x17A8 JUMPI DUP3 SWAP1 SUB PUSH1 0x1F AND DUP3 ADD SWAP2 JUMPDEST POP POP POP POP POP DUP2 MSTORE PUSH1 0x20 ADD PUSH1 0x6 DUP3 ADD DUP1 SLOAD PUSH2 0x17DE SWAP1 PUSH2 0x3F69 JUMP JUMPDEST DUP1 PUSH1 0x1F ADD PUSH1 0x20 DUP1 SWAP2 DIV MUL PUSH1 0x20 ADD PUSH1 0x40 MLOAD SWAP1 DUP2 ADD PUSH1 0x40 MSTORE DUP1 SWAP3 SWAP2 SWAP1 DUP2 DUP2 MSTORE PUSH1 0x20 ADD DUP3 DUP1 SLOAD PUSH2 0x180A SWAP1 PUSH2 0x3F69 JUMP JUMPDEST DUP1 ISZERO PUSH2 0x1857 JUMPI DUP1 PUSH1 0x1F LT PUSH2 0x182C JUMPI PUSH2 0x100 DUP1 DUP4 SLOAD DIV MUL DUP4 MSTORE SWAP2 PUSH1 0x20 ADD SWAP2 PUSH2 0x1857 JUMP JUMPDEST DUP3 ADD SWAP2 SWAP1 PUSH1 0x0 MSTORE PUSH1 0x20 PUSH1 0x0 KECCAK256 SWAP1 JUMPDEST DUP2 SLOAD DUP2 MSTORE SWAP1 PUSH1 0x1 ADD SWAP1 PUSH1 0x20 ADD DUP1 DUP4 GT PUSH2 0x183A JUMPI DUP3 SWAP1 SUB PUSH1 0x1F AND DUP3 ADD SWAP2 JUMPDEST POP POP POP POP POP DUP2 MSTORE POP POP SWAP1 POP PUSH1 0x0 DUP1 SHL DUP2 PUSH1 0x20 ADD MLOAD SUB PUSH2 0x18AD JUMPI DUP3 PUSH1 0x40 MLOAD PUSH32 0x24B1124000000000000000000000000000000000000000000000000000000000 DUP2 MSTORE PUSH1 0x4 ADD PUSH2 0x18A4 SWAP2 SWAP1 PUSH2 0x3116 JUMP JUMPDEST PUSH1 0x40 MLOAD DUP1 SWAP2 SUB SWAP1 REVERT JUMPDEST DUP1 SWAP2 POP POP SWAP2 SWAP1 POP JUMP JUMPDEST PUSH1 0x60 PUSH1 0x0 PUSH1 0x5 DUP1 SLOAD SWAP1 POP DUP4 DUP6 PUSH2 0x18CC SWAP2 SWAP1 PUSH2 0x462E JUMP JUMPDEST PUSH16 0xFFFFFFFFFFFFFFFFFFFFFFFFFFFFFFFF AND GT PUSH2 0x18E9 JUMPI DUP3 PUSH2 0x18FB JUMP JUMPDEST DUP4 PUSH1 0x5 DUP1 SLOAD SWAP1 POP PUSH2 0x18FA SWAP2 SWAP1 PUSH2 0x4672 JUMP JUMPDEST JUMPDEST SWAP1 POP PUSH1 0x0 DUP2 PUSH16 0xFFFFFFFFFFFFFFFFFFFFFFFFFFFFFFFF AND PUSH8 0xFFFFFFFFFFFFFFFF DUP2 GT ISZERO PUSH2 0x192B JUMPI PUSH2 0x192A PUSH2 0x3477 JUMP JUMPDEST JUMPDEST PUSH1 0x40 MLOAD SWAP1 DUP1 DUP3 MSTORE DUP1 PUSH1 0x20 MUL PUSH1 0x20 ADD DUP3 ADD PUSH1 0x40 MSTORE DUP1 ISZERO PUSH2 0x1964 JUMPI DUP2 PUSH1 0x20 ADD JUMPDEST PUSH2 0x1951 PUSH2 0x2BE5 JUMP JUMPDEST DUP2 MSTORE PUSH1 0x20 ADD SWAP1 PUSH1 0x1 SWAP1 SUB SWAP1 DUP2 PUSH2 0x1949 JUMPI SWAP1 POP JUMPDEST POP SWAP1 POP PUSH1 0x0 JUMPDEST DUP3 PUSH16 0xFFFFFFFFFFFFFFFFFFFFFFFFFFFFFFFF AND DUP2 PUSH16 0xFFFFFFFFFFFFFFFFFFFFFFFFFFFFFFFF AND LT ISZERO PUSH2 0x1DD7 JUMPI PUSH1 0x3 PUSH1 0x0 PUSH1 0x5 DUP4 DUP10 PUSH2 0x19A8 SWAP2 SWAP1 PUSH2 0x462E JUMP JUMPDEST PUSH16 0xFFFFFFFFFFFFFFFFFFFFFFFFFFFFFFFF AND DUP2 SLOAD DUP2 LT PUSH2 0x19CB JUMPI PUSH2 0x19CA PUSH2 0x46B6 JUMP JUMPDEST JUMPDEST SWAP1 PUSH1 0x0 MSTORE PUSH1 0x20 PUSH1 0x0 KECCAK256 ADD SLOAD DUP2 MSTORE PUSH1 0x20 ADD SWAP1 DUP2 MSTORE PUSH1 0x20 ADD PUSH1 0x0 KECCAK256 PUSH1 0x40 MLOAD DUP1 PUSH2 0x160 ADD PUSH1 0x40 MSTORE SWAP1 DUP2 PUSH1 0x0 DUP3 ADD DUP1 SLOAD PUSH2 0x1A00 SWAP1 PUSH2 0x3F69 JUMP JUMPDEST DUP1 PUSH1 0x1F ADD PUSH1 0x20 DUP1 SWAP2 DIV MUL PUSH1 0x20 ADD PUSH1 0x40 MLOAD SWAP1 DUP2 ADD PUSH1 0x40 MSTORE DUP1 SWAP3 SWAP2 SWAP1 DUP2 DUP2 MSTORE PUSH1 0x20 ADD DUP3 DUP1 SLOAD PUSH2 0x1A2C SWAP1 PUSH2 0x3F69 JUMP JUMPDEST DUP1 ISZERO PUSH2 0x1A79 JUMPI DUP1 PUSH1 0x1F LT PUSH2 0x1A4E JUMPI PUSH2 0x100 DUP1 DUP4 SLOAD DIV MUL DUP4 MSTORE SWAP2 PUSH1 0x20 ADD SWAP2 PUSH2 0x1A79 JUMP JUMPDEST DUP3 ADD SWAP2 SWAP1 PUSH1 0x0 MSTORE PUSH1 0x20 PUSH1 0x0 KECCAK256 SWAP1 JUMPDEST DUP2 SLOAD DUP2 MSTORE SWAP1 PUSH1 0x1 ADD SWAP1 PUSH1 0x20 ADD DUP1 DUP4 GT PUSH2 0x1A5C JUMPI DUP3 SWAP1 SUB PUSH1 0x1F AND DUP3 ADD SWAP2 JUMPDEST POP POP POP POP POP DUP2 MSTORE PUSH1 0x20 ADD PUSH1 0x1 DUP3 ADD SLOAD DUP2 MSTORE PUSH1 0x20 ADD PUSH1 0x2 DUP3 ADD DUP1 SLOAD PUSH2 0x1A9C SWAP1 PUSH2 0x3F69 JUMP JUMPDEST DUP1 PUSH1 0x1F ADD PUSH1 0x20 DUP1 SWAP2 DIV MUL PUSH1 0x20 ADD PUSH1 0x40 MLOAD SWAP1 DUP2 ADD PUSH1 0x40 MSTORE DUP1 SWAP3 SWAP2 SWAP1 DUP2 DUP2 MSTORE PUSH1 0x20 ADD DUP3 DUP1 SLOAD PUSH2 0x1AC8 SWAP1 PUSH2 0x3F69 JUMP JUMPDEST DUP1 ISZERO PUSH2 0x1B15 JUMPI DUP1 PUSH1 0x1F LT PUSH2 0x1AEA JUMPI PUSH2 0x100 DUP1 DUP4 SLOAD DIV MUL DUP4 MSTORE SWAP2 PUSH1 0x20 ADD SWAP2 PUSH2 0x1B15 JUMP JUMPDEST DUP3 ADD SWAP2 SWAP1 PUSH1 0x0 MSTORE PUSH1 0x20 PUSH1 0x0 KECCAK256 SWAP1 JUMPDEST DUP2 SLOAD DUP2 MSTORE SWAP1 PUSH1 0x1 ADD SWAP1 PUSH1 0x20 ADD DUP1 DUP4 GT PUSH2 0x1AF8 JUMPI DUP3 SWAP1 SUB PUSH1 0x1F AND DUP3 ADD SWAP2 JUMPDEST POP POP POP POP POP DUP2 MSTORE PUSH1 0x20 ADD PUSH1 0x3 DUP3 ADD SLOAD DUP2 MSTORE PUSH1 0x20 ADD PUSH1 0x4 DUP3 ADD DUP1 SLOAD PUSH2 0x1B38 SWAP1 PUSH2 0x3F69 JUMP JUMPDEST DUP1 PUSH1 0x1F ADD PUSH1 0x20 DUP1 SWAP2 DIV MUL PUSH1 0x20 ADD PUSH1 0x40 MLOAD SWAP1 DUP2 ADD PUSH1 0x40 MSTORE DUP1 SWAP3 SWAP2 SWAP1 DUP2 DUP2 MSTORE PUSH1 0x20 ADD DUP3 DUP1 SLOAD PUSH2 0x1B64 SWAP1 PUSH2 0x3F69 JUMP JUMPDEST DUP1 ISZERO PUSH2 0x1BB1 JUMPI DUP1 PUSH1 0x1F LT PUSH2 0x1B86 JUMPI PUSH2 0x100 DUP1 DUP4 SLOAD DIV MUL DUP4 MSTORE SWAP2 PUSH1 0x20 ADD SWAP2 PUSH2 0x1BB1 JUMP JUMPDEST DUP3 ADD SWAP2 SWAP1 PUSH1 0x0 MSTORE PUSH1 0x20 PUSH1 0x0 KECCAK256 SWAP1 JUMPDEST DUP2 SLOAD DUP2 MSTORE SWAP1 PUSH1 0x1 ADD SWAP1 PUSH1 0x20 ADD DUP1 DUP4 GT PUSH2 0x1B94 JUMPI DUP3 SWAP1 SUB PUSH1 0x1F AND DUP3 ADD SWAP2 JUMPDEST POP POP POP POP POP DUP2 MSTORE PUSH1 0x20 ADD PUSH1 0x5 DUP3 ADD PUSH1 0x0 SWAP1 SLOAD SWAP1 PUSH2 0x100 EXP SWAP1 DIV PUSH2 0xFFFF AND PUSH2 0xFFFF AND PUSH2 0xFFFF AND DUP2 MSTORE PUSH1 0x20 ADD PUSH1 0x6 DUP3 ADD DUP1 SLOAD PUSH2 0x1BEA SWAP1 PUSH2 0x3F69 JUMP JUMPDEST DUP1 PUSH1 0x1F ADD PUSH1 0x20 DUP1 SWAP2 DIV MUL PUSH1 0x20 ADD PUSH1 0x40 MLOAD SWAP1 DUP2 ADD PUSH1 0x40 MSTORE DUP1 SWAP3 SWAP2 SWAP1 DUP2 DUP2 MSTORE PUSH1 0x20 ADD DUP3 DUP1 SLOAD PUSH2 0x1C16 SWAP1 PUSH2 0x3F69 JUMP JUMPDEST DUP1 ISZERO PUSH2 0x1C63 JUMPI DUP1 PUSH1 0x1F LT PUSH2 0x1C38 JUMPI PUSH2 0x100 DUP1 DUP4 SLOAD DIV MUL DUP4 MSTORE SWAP2 PUSH1 0x20 ADD SWAP2 PUSH2 0x1C63 JUMP JUMPDEST DUP3 ADD SWAP2 SWAP1 PUSH1 0x0 MSTORE PUSH1 0x20 PUSH1 0x0 KECCAK256 SWAP1 JUMPDEST DUP2 SLOAD DUP2 MSTORE SWAP1 PUSH1 0x1 ADD SWAP1 PUSH1 0x20 ADD DUP1 DUP4 GT PUSH2 0x1C46 JUMPI DUP3 SWAP1 SUB PUSH1 0x1F AND DUP3 ADD SWAP2 JUMPDEST POP POP POP POP POP DUP2 MSTORE PUSH1 0x20 ADD PUSH1 0x7 DUP3 ADD PUSH1 0x0 SWAP1 SLOAD SWAP1 PUSH2 0x100 EXP SWAP1 DIV PUSH16 0xFFFFFFFFFFFFFFFFFFFFFFFFFFFFFFFF AND PUSH16 0xFFFFFFFFFFFFFFFFFFFFFFFFFFFFFFFF AND PUSH16 0xFFFFFFFFFFFFFFFFFFFFFFFFFFFFFFFF AND DUP2 MSTORE PUSH1 0x20 ADD PUSH1 0x7 DUP3 ADD PUSH1 0x10 SWAP1 SLOAD SWAP1 PUSH2 0x100 EXP SWAP1 DIV PUSH16 0xFFFFFFFFFFFFFFFFFFFFFFFFFFFFFFFF AND PUSH16 0xFFFFFFFFFFFFFFFFFFFFFFFFFFFFFFFF AND PUSH16 0xFFFFFFFFFFFFFFFFFFFFFFFFFFFFFFFF AND DUP2 MSTORE PUSH1 0x20 ADD PUSH1 0x8 DUP3 ADD DUP1 SLOAD PUSH2 0x1D10 SWAP1 PUSH2 0x3F69 JUMP JUMPDEST DUP1 PUSH1 0x1F ADD PUSH1 0x20 DUP1 SWAP2 DIV MUL PUSH1 0x20 ADD PUSH1 0x40 MLOAD SWAP1 DUP2 ADD PUSH1 0x40 MSTORE DUP1 SWAP3 SWAP2 SWAP1 DUP2 DUP2 MSTORE PUSH1 0x20 ADD DUP3 DUP1 SLOAD PUSH2 0x1D3C SWAP1 PUSH2 0x3F69 JUMP JUMPDEST DUP1 ISZERO PUSH2 0x1D89 JUMPI DUP1 PUSH1 0x1F LT PUSH2 0x1D5E JUMPI PUSH2 0x100 DUP1 DUP4 SLOAD DIV MUL DUP4 MSTORE SWAP2 PUSH1 0x20 ADD SWAP2 PUSH2 0x1D89 JUMP JUMPDEST DUP3 ADD SWAP2 SWAP1 PUSH1 0x0 MSTORE PUSH1 0x20 PUSH1 0x0 KECCAK256 SWAP1 JUMPDEST DUP2 SLOAD DUP2 MSTORE SWAP1 PUSH1 0x1 ADD SWAP1 PUSH1 0x20 ADD DUP1 DUP4 GT PUSH2 0x1D6C JUMPI DUP3 SWAP1 SUB PUSH1 0x1F AND DUP3 ADD SWAP2 JUMPDEST POP POP POP POP POP DUP2 MSTORE PUSH1 0x20 ADD PUSH1 0x9 DUP3 ADD SLOAD DUP2 MSTORE POP POP DUP3 DUP3 PUSH16 0xFFFFFFFFFFFFFFFFFFFFFFFFFFFFFFFF AND DUP2 MLOAD DUP2 LT PUSH2 0x1DC1 JUMPI PUSH2 0x1DC0 PUSH2 0x46B6 JUMP JUMPDEST JUMPDEST PUSH1 0x20 MUL PUSH1 0x20 ADD ADD DUP2 SWAP1 MSTORE POP DUP1 PUSH1 0x1 ADD SWAP1 POP PUSH2 0x196A JUMP JUMPDEST POP DUP1 SWAP3 POP POP POP SWAP3 SWAP2 POP POP JUMP JUMPDEST PUSH1 0x0 PUSH1 0x40 MLOAD DUP1 PUSH1 0x40 ADD PUSH1 0x40 MSTORE DUP1 PUSH1 0x5 DUP2 MSTORE PUSH1 0x20 ADD PUSH32 0x302E302E31000000000000000000000000000000000000000000000000000000 DUP2 MSTORE POP DUP1 MLOAD SWAP1 PUSH1 0x20 ADD KECCAK256 DUP3 PUSH1 0x0 ADD MLOAD DUP4 PUSH1 0x20 ADD MLOAD DUP1 MLOAD SWAP1 PUSH1 0x20 ADD KECCAK256 DUP5 PUSH1 0x40 ADD MLOAD DUP6 PUSH1 0x60 ADD MLOAD DUP1 MLOAD SWAP1 PUSH1 0x20 ADD KECCAK256 DUP7 PUSH1 0x80 ADD MLOAD PUSH1 0xF0 SHL DUP8 PUSH1 0xA0 ADD MLOAD DUP1 MLOAD SWAP1 PUSH1 0x20 ADD KECCAK256 DUP9 PUSH1 0xC0 ADD MLOAD PUSH1 0x80 SHL DUP10 PUSH1 0xE0 ADD MLOAD PUSH1 0x80 SHL DUP11 PUSH2 0x100 ADD MLOAD DUP1 MLOAD SWAP1 PUSH1 0x20 ADD KECCAK256 PUSH1 0x40 MLOAD PUSH1 0x20 ADD PUSH2 0x1E8E SWAP11 SWAP10 SWAP9 SWAP8 SWAP7 SWAP6 SWAP5 SWAP4 SWAP3 SWAP2 SWAP1 PUSH2 0x4732 JUMP JUMPDEST PUSH1 0x40 MLOAD PUSH1 0x20 DUP2 DUP4 SUB SUB DUP2 MSTORE SWAP1 PUSH1 0x40 MSTORE DUP1 MLOAD SWAP1 PUSH1 0x20 ADD KECCAK256 SWAP1 POP SWAP2 SWAP1 POP JUMP JUMPDEST PUSH2 0x1EB4 DUP3 PUSH2 0x8A8 JUMP JUMPDEST PUSH2 0x1EBD DUP2 PUSH2 0x2995 JUMP JUMPDEST PUSH2 0x1EC7 DUP4 DUP4 PUSH2 0x2AA2 JUMP JUMPDEST POP POP POP POP JUMP JUMPDEST PUSH2 0x1EF7 PUSH32 0xDF8B4C520FFE197C5343C6F5AEC59570151EF9A492F2C624FD45DDDE6135EC42 CALLER PUSH2 0x14C0 JUMP JUMPDEST PUSH2 0x1F2D JUMPI PUSH1 0x40 MLOAD PUSH32 0x7BFA4B9F00000000000000000000000000000000000000000000000000000000 DUP2 MSTORE PUSH1 0x4 ADD PUSH1 0x40 MLOAD DUP1 SWAP2 SUB SWAP1 REVERT JUMPDEST PUSH2 0x1F57 PUSH32 0xAB4F864E5201B0FDE9B5EE3E4CF96384802B0FFDFCF7F9DE4699CE21A30AFC4F DUP3 PUSH2 0xD3B JUMP JUMPDEST POP JUMP JUMPDEST PUSH2 0x1F84 PUSH32 0xDF8B4C520FFE197C5343C6F5AEC59570151EF9A492F2C624FD45DDDE6135EC42 CALLER PUSH2 0x14C0 JUMP JUMPDEST PUSH2 0x1FBA JUMPI PUSH1 0x40 MLOAD PUSH32 0x7BFA4B9F00000000000000000000000000000000000000000000000000000000 DUP2 MSTORE PUSH1 0x4 ADD PUSH1 0x40 MLOAD DUP1 SWAP2 SUB SWAP1 REVERT JUMPDEST DUP1 PUSH1 0x2 PUSH1 0x0 PUSH2 0x100 EXP DUP2 SLOAD DUP2 PUSH20 0xFFFFFFFFFFFFFFFFFFFFFFFFFFFFFFFFFFFFFFFF MUL NOT AND SWAP1 DUP4 PUSH20 0xFFFFFFFFFFFFFFFFFFFFFFFFFFFFFFFFFFFFFFFF AND MUL OR SWAP1 SSTORE POP POP JUMP JUMPDEST PUSH1 0x3 PUSH1 0x20 MSTORE DUP1 PUSH1 0x0 MSTORE PUSH1 0x40 PUSH1 0x0 KECCAK256 PUSH1 0x0 SWAP2 POP SWAP1 POP DUP1 PUSH1 0x0 ADD DUP1 SLOAD PUSH2 0x2021 SWAP1 PUSH2 0x3F69 JUMP JUMPDEST DUP1 PUSH1 0x1F ADD PUSH1 0x20 DUP1 SWAP2 DIV MUL PUSH1 0x20 ADD PUSH1 0x40 MLOAD SWAP1 DUP2 ADD PUSH1 0x40 MSTORE DUP1 SWAP3 SWAP2 SWAP1 DUP2 DUP2 MSTORE PUSH1 0x20 ADD DUP3 DUP1 SLOAD PUSH2 0x204D SWAP1 PUSH2 0x3F69 JUMP JUMPDEST DUP1 ISZERO PUSH2 0x209A JUMPI DUP1 PUSH1 0x1F LT PUSH2 0x206F JUMPI PUSH2 0x100 DUP1 DUP4 SLOAD DIV MUL DUP4 MSTORE SWAP2 PUSH1 0x20 ADD SWAP2 PUSH2 0x209A JUMP JUMPDEST DUP3 ADD SWAP2 SWAP1 PUSH1 0x0 MSTORE PUSH1 0x20 PUSH1 0x0 KECCAK256 SWAP1 JUMPDEST DUP2 SLOAD DUP2 MSTORE SWAP1 PUSH1 0x1 ADD SWAP1 PUSH1 0x20 ADD DUP1 DUP4 GT PUSH2 0x207D JUMPI DUP3 SWAP1 SUB PUSH1 0x1F AND DUP3 ADD SWAP2 JUMPDEST POP POP POP POP POP SWAP1 DUP1 PUSH1 0x1 ADD SLOAD SWAP1 DUP1 PUSH1 0x2 ADD DUP1 SLOAD PUSH2 0x20B5 SWAP1 PUSH2 0x3F69 JUMP JUMPDEST DUP1 PUSH1 0x1F ADD PUSH1 0x20 DUP1 SWAP2 DIV MUL PUSH1 0x20 ADD PUSH1 0x40 MLOAD SWAP1 DUP2 ADD PUSH1 0x40 MSTORE DUP1 SWAP3 SWAP2 SWAP1 DUP2 DUP2 MSTORE PUSH1 0x20 ADD DUP3 DUP1 SLOAD PUSH2 0x20E1 SWAP1 PUSH2 0x3F69 JUMP JUMPDEST DUP1 ISZERO PUSH2 0x212E JUMPI DUP1 PUSH1 0x1F LT PUSH2 0x2103 JUMPI PUSH2 0x100 DUP1 DUP4 SLOAD DIV MUL DUP4 MSTORE SWAP2 PUSH1 0x20 ADD SWAP2 PUSH2 0x212E JUMP JUMPDEST DUP3 ADD SWAP2 SWAP1 PUSH1 0x0 MSTORE PUSH1 0x20 PUSH1 0x0 KECCAK256 SWAP1 JUMPDEST DUP2 SLOAD DUP2 MSTORE SWAP1 PUSH1 0x1 ADD SWAP1 PUSH1 0x20 ADD DUP1 DUP4 GT PUSH2 0x2111 JUMPI DUP3 SWAP1 SUB PUSH1 0x1F AND DUP3 ADD SWAP2 JUMPDEST POP POP POP POP POP SWAP1 DUP1 PUSH1 0x3 ADD SLOAD SWAP1 DUP1 PUSH1 0x4 ADD DUP1 SLOAD PUSH2 0x2149 SWAP1 PUSH2 0x3F69 JUMP JUMPDEST DUP1 PUSH1 0x1F ADD PUSH1 0x20 DUP1 SWAP2 DIV MUL PUSH1 0x20 ADD PUSH1 0x40 MLOAD SWAP1 DUP2 ADD PUSH1 0x40 MSTORE DUP1 SWAP3 SWAP2 SWAP1 DUP2 DUP2 MSTORE PUSH1 0x20 ADD DUP3 DUP1 SLOAD PUSH2 0x2175 SWAP1 PUSH2 0x3F69 JUMP JUMPDEST DUP1 ISZERO PUSH2 0x21C2 JUMPI DUP1 PUSH1 0x1F LT PUSH2 0x2197 JUMPI PUSH2 0x100 DUP1 DUP4 SLOAD DIV MUL DUP4 MSTORE SWAP2 PUSH1 0x20 ADD SWAP2 PUSH2 0x21C2 JUMP JUMPDEST DUP3 ADD SWAP2 SWAP1 PUSH1 0x0 MSTORE PUSH1 0x20 PUSH1 0x0 KECCAK256 SWAP1 JUMPDEST DUP2 SLOAD DUP2 MSTORE SWAP1 PUSH1 0x1 ADD SWAP1 PUSH1 0x20 ADD DUP1 DUP4 GT PUSH2 0x21A5 JUMPI DUP3 SWAP1 SUB PUSH1 0x1F AND DUP3 ADD SWAP2 JUMPDEST POP POP POP POP POP SWAP1 DUP1 PUSH1 0x5 ADD PUSH1 0x0 SWAP1 SLOAD SWAP1 PUSH2 0x100 EXP SWAP1 DIV PUSH2 0xFFFF AND SWAP1 DUP1 PUSH1 0x6 ADD DUP1 SLOAD PUSH2 0x21EB SWAP1 PUSH2 0x3F69 JUMP JUMPDEST DUP1 PUSH1 0x1F ADD PUSH1 0x20 DUP1 SWAP2 DIV MUL PUSH1 0x20 ADD PUSH1 0x40 MLOAD SWAP1 DUP2 ADD PUSH1 0x40 MSTORE DUP1 SWAP3 SWAP2 SWAP1 DUP2 DUP2 MSTORE PUSH1 0x20 ADD DUP3 DUP1 SLOAD PUSH2 0x2217 SWAP1 PUSH2 0x3F69 JUMP JUMPDEST DUP1 ISZERO PUSH2 0x2264 JUMPI DUP1 PUSH1 0x1F LT PUSH2 0x2239 JUMPI PUSH2 0x100 DUP1 DUP4 SLOAD DIV MUL DUP4 MSTORE SWAP2 PUSH1 0x20 ADD SWAP2 PUSH2 0x2264 JUMP JUMPDEST DUP3 ADD SWAP2 SWAP1 PUSH1 0x0 MSTORE PUSH1 0x20 PUSH1 0x0 KECCAK256 SWAP1 JUMPDEST DUP2 SLOAD DUP2 MSTORE SWAP1 PUSH1 0x1 ADD SWAP1 PUSH1 0x20 ADD DUP1 DUP4 GT PUSH2 0x2247 JUMPI DUP3 SWAP1 SUB PUSH1 0x1F AND DUP3 ADD SWAP2 JUMPDEST POP POP POP POP POP SWAP1 DUP1 PUSH1 0x7 ADD PUSH1 0x0 SWAP1 SLOAD SWAP1 PUSH2 0x100 EXP SWAP1 DIV PUSH16 0xFFFFFFFFFFFFFFFFFFFFFFFFFFFFFFFF AND SWAP1 DUP1 PUSH1 0x7 ADD PUSH1 0x10 SWAP1 SLOAD SWAP1 PUSH2 0x100 EXP SWAP1 DIV PUSH16 0xFFFFFFFFFFFFFFFFFFFFFFFFFFFFFFFF AND SWAP1 DUP1 PUSH1 0x8 ADD DUP1 SLOAD PUSH2 0x22BD SWAP1 PUSH2 0x3F69 JUMP JUMPDEST DUP1 PUSH1 0x1F ADD PUSH1 0x20 DUP1 SWAP2 DIV MUL PUSH1 0x20 ADD PUSH1 0x40 MLOAD SWAP1 DUP2 ADD PUSH1 0x40 MSTORE DUP1 SWAP3 SWAP2 SWAP1 DUP2 DUP2 MSTORE PUSH1 0x20 ADD DUP3 DUP1 SLOAD PUSH2 0x22E9 SWAP1 PUSH2 0x3F69 JUMP JUMPDEST DUP1 ISZERO PUSH2 0x2336 JUMPI DUP1 PUSH1 0x1F LT PUSH2 0x230B JUMPI PUSH2 0x100 DUP1 DUP4 SLOAD DIV MUL DUP4 MSTORE SWAP2 PUSH1 0x20 ADD SWAP2 PUSH2 0x2336 JUMP JUMPDEST DUP3 ADD SWAP2 SWAP1 PUSH1 0x0 MSTORE PUSH1 0x20 PUSH1 0x0 KECCAK256 SWAP1 JUMPDEST DUP2 SLOAD DUP2 MSTORE SWAP1 PUSH1 0x1 ADD SWAP1 PUSH1 0x20 ADD DUP1 DUP4 GT PUSH2 0x2319 JUMPI DUP3 SWAP1 SUB PUSH1 0x1F AND DUP3 ADD SWAP2 JUMPDEST POP POP POP POP POP SWAP1 DUP1 PUSH1 0x9 ADD SLOAD SWAP1 POP DUP12 JUMP JUMPDEST PUSH1 0x1 PUSH1 0x0 SWAP1 SLOAD SWAP1 PUSH2 0x100 EXP SWAP1 DIV PUSH20 0xFFFFFFFFFFFFFFFFFFFFFFFFFFFFFFFFFFFFFFFF AND DUP2 JUMP JUMPDEST PUSH2 0x2396 PUSH32 0xAB4F864E5201B0FDE9B5EE3E4CF96384802B0FFDFCF7F9DE4699CE21A30AFC4F CALLER PUSH2 0x14C0 JUMP JUMPDEST PUSH2 0x23CC JUMPI PUSH1 0x40 MLOAD PUSH32 0xC64891A500000000000000000000000000000000000000000000000000000000 DUP2 MSTORE PUSH1 0x4 ADD PUSH1 0x40 MLOAD DUP1 SWAP2 SUB SWAP1 REVERT JUMPDEST PUSH1 0x0 PUSH2 0x23DB DUP3 PUSH1 0x20 ADD CALLDATALOAD PUSH2 0x911 JUMP JUMPDEST SWAP1 POP PUSH1 0x0 DUP2 PUSH1 0xA0 ADD MLOAD PUSH2 0xFFFF AND SUB PUSH2 0x242E JUMPI DUP2 PUSH1 0x20 ADD CALLDATALOAD PUSH1 0x40 MLOAD PUSH32 0xBAC0836200000000000000000000000000000000000000000000000000000000 DUP2 MSTORE PUSH1 0x4 ADD PUSH2 0x2425 SWAP2 SWAP1 PUSH2 0x3116 JUMP JUMPDEST PUSH1 0x40 MLOAD DUP1 SWAP2 SUB SWAP1 REVERT JUMPDEST PUSH1 0x0 PUSH1 0x40 MLOAD DUP1 PUSH2 0x120 ADD PUSH1 0x40 MSTORE DUP1 DUP5 DUP1 PUSH1 0x0 ADD SWAP1 PUSH2 0x244C SWAP2 SWAP1 PUSH2 0x47E6 JUMP JUMPDEST DUP1 DUP1 PUSH1 0x1F ADD PUSH1 0x20 DUP1 SWAP2 DIV MUL PUSH1 0x20 ADD PUSH1 0x40 MLOAD SWAP1 DUP2 ADD PUSH1 0x40 MSTORE DUP1 SWAP4 SWAP3 SWAP2 SWAP1 DUP2 DUP2 MSTORE PUSH1 0x20 ADD DUP4 DUP4 DUP1 DUP3 DUP5 CALLDATACOPY PUSH1 0x0 DUP2 DUP5 ADD MSTORE PUSH1 0x1F NOT PUSH1 0x1F DUP3 ADD AND SWAP1 POP DUP1 DUP4 ADD SWAP3 POP POP POP POP POP POP POP DUP2 MSTORE PUSH1 0x20 ADD DUP5 PUSH1 0x20 ADD CALLDATALOAD DUP2 MSTORE PUSH1 0x20 ADD DUP5 PUSH1 0x40 ADD PUSH1 0x20 DUP2 ADD SWAP1 PUSH2 0x24B1 SWAP2 SWAP1 PUSH2 0x4849 JUMP JUMPDEST ISZERO ISZERO DUP2 MSTORE PUSH1 0x20 ADD DUP5 PUSH1 0x60 ADD PUSH1 0x20 DUP2 ADD SWAP1 PUSH2 0x24CB SWAP2 SWAP1 PUSH2 0x4876 JUMP JUMPDEST PUSH1 0xFF AND DUP2 MSTORE PUSH1 0x20 ADD DUP5 DUP1 PUSH1 0x80 ADD SWAP1 PUSH2 0x24E3 SWAP2 SWAP1 PUSH2 0x3FBC JUMP JUMPDEST DUP1 DUP1 PUSH1 0x1F ADD PUSH1 0x20 DUP1 SWAP2 DIV MUL PUSH1 0x20 ADD PUSH1 0x40 MLOAD SWAP1 DUP2 ADD PUSH1 0x40 MSTORE DUP1 SWAP4 SWAP3 SWAP2 SWAP1 DUP2 DUP2 MSTORE PUSH1 0x20 ADD DUP4 DUP4 DUP1 DUP3 DUP5 CALLDATACOPY PUSH1 0x0 DUP2 DUP5 ADD MSTORE PUSH1 0x1F NOT PUSH1 0x1F DUP3 ADD AND SWAP1 POP DUP1 DUP4 ADD SWAP3 POP POP POP POP POP POP POP DUP2 MSTORE PUSH1 0x20 ADD DUP5 PUSH1 0xA0 ADD PUSH1 0x20 DUP2 ADD SWAP1 PUSH2 0x253E SWAP2 SWAP1 PUSH2 0x48A3 JUMP JUMPDEST PUSH8 0xFFFFFFFFFFFFFFFF AND DUP2 MSTORE PUSH1 0x20 ADD DUP5 PUSH1 0xC0 ADD PUSH1 0x20 DUP2 ADD SWAP1 PUSH2 0x2560 SWAP2 SWAP1 PUSH2 0x404C JUMP JUMPDEST PUSH16 0xFFFFFFFFFFFFFFFFFFFFFFFFFFFFFFFF AND DUP2 MSTORE PUSH1 0x20 ADD DUP5 DUP1 PUSH1 0xE0 ADD SWAP1 PUSH2 0x2587 SWAP2 SWAP1 PUSH2 0x3FBC JUMP JUMPDEST DUP1 DUP1 PUSH1 0x1F ADD PUSH1 0x20 DUP1 SWAP2 DIV MUL PUSH1 0x20 ADD PUSH1 0x40 MLOAD SWAP1 DUP2 ADD PUSH1 0x40 MSTORE DUP1 SWAP4 SWAP3 SWAP2 SWAP1 DUP2 DUP2 MSTORE PUSH1 0x20 ADD DUP4 DUP4 DUP1 DUP3 DUP5 CALLDATACOPY PUSH1 0x0 DUP2 DUP5 ADD MSTORE PUSH1 0x1F NOT PUSH1 0x1F DUP3 ADD AND SWAP1 POP DUP1 DUP4 ADD SWAP3 POP POP POP POP POP POP POP DUP2 MSTORE PUSH1 0x20 ADD DUP5 DUP1 PUSH2 0x100 ADD SWAP1 PUSH2 0x25E0 SWAP2 SWAP1 PUSH2 0x3FBC JUMP JUMPDEST DUP1 DUP1 PUSH1 0x1F ADD PUSH1 0x20 DUP1 SWAP2 DIV MUL PUSH1 0x20 ADD PUSH1 0x40 MLOAD SWAP1 DUP2 ADD PUSH1 0x40 MSTORE DUP1 SWAP4 SWAP3 SWAP2 SWAP1 DUP2 DUP2 MSTORE PUSH1 0x20 ADD DUP4 DUP4 DUP1 DUP3 DUP5 CALLDATACOPY PUSH1 0x0 DUP2 DUP5 ADD MSTORE PUSH1 0x1F NOT PUSH1 0x1F DUP3 ADD AND SWAP1 POP DUP1 DUP4 ADD SWAP3 POP POP POP POP POP POP POP DUP2 MSTORE POP SWAP1 POP DUP1 PUSH1 0x4 PUSH1 0x0 DUP6 PUSH1 0x20 ADD CALLDATALOAD DUP2 MSTORE PUSH1 0x20 ADD SWAP1 DUP2 MSTORE PUSH1 0x20 ADD PUSH1 0x0 KECCAK256 PUSH1 0x0 DUP3 ADD MLOAD DUP2 PUSH1 0x0 ADD SWAP1 DUP2 PUSH2 0x2655 SWAP2 SWAP1 PUSH2 0x4225 JUMP JUMPDEST POP PUSH1 0x20 DUP3 ADD MLOAD DUP2 PUSH1 0x1 ADD SSTORE PUSH1 0x40 DUP3 ADD MLOAD DUP2 PUSH1 0x2 ADD PUSH1 0x0 PUSH2 0x100 EXP DUP2 SLOAD DUP2 PUSH1 0xFF MUL NOT AND SWAP1 DUP4 ISZERO ISZERO MUL OR SWAP1 SSTORE POP PUSH1 0x60 DUP3 ADD MLOAD DUP2 PUSH1 0x2 ADD PUSH1 0x1 PUSH2 0x100 EXP DUP2 SLOAD DUP2 PUSH1 0xFF MUL NOT AND SWAP1 DUP4 PUSH1 0xFF AND MUL OR SWAP1 SSTORE POP PUSH1 0x80 DUP3 ADD MLOAD DUP2 PUSH1 0x3 ADD SWAP1 DUP2 PUSH2 0x26B6 SWAP2 SWAP1 PUSH2 0x4352 JUMP JUMPDEST POP PUSH1 0xA0 DUP3 ADD MLOAD DUP2 PUSH1 0x4 ADD PUSH1 0x0 PUSH2 0x100 EXP DUP2 SLOAD DUP2 PUSH8 0xFFFFFFFFFFFFFFFF MUL NOT AND SWAP1 DUP4 PUSH8 0xFFFFFFFFFFFFFFFF AND MUL OR SWAP1 SSTORE POP PUSH1 0xC0 DUP3 ADD MLOAD DUP2 PUSH1 0x4 ADD PUSH1 0x8 PUSH2 0x100 EXP DUP2 SLOAD DUP2 PUSH16 0xFFFFFFFFFFFFFFFFFFFFFFFFFFFFFFFF MUL NOT AND SWAP1 DUP4 PUSH16 0xFFFFFFFFFFFFFFFFFFFFFFFFFFFFFFFF AND MUL OR SWAP1 SSTORE POP PUSH1 0xE0 DUP3 ADD MLOAD DUP2 PUSH1 0x5 ADD SWAP1 DUP2 PUSH2 0x273A SWAP2 SWAP1 PUSH2 0x4352 JUMP JUMPDEST POP PUSH2 0x100 DUP3 ADD MLOAD DUP2 PUSH1 0x6 ADD SWAP1 DUP2 PUSH2 0x2751 SWAP2 SWAP1 PUSH2 0x4352 JUMP JUMPDEST POP SWAP1 POP POP PUSH1 0x0 PUSH1 0x3 PUSH1 0x0 DUP6 PUSH1 0x20 ADD CALLDATALOAD DUP2 MSTORE PUSH1 0x20 ADD SWAP1 DUP2 MSTORE PUSH1 0x20 ADD PUSH1 0x0 KECCAK256 PUSH1 0x9 ADD SLOAD SWAP1 POP PUSH1 0x0 PUSH1 0x5 PUSH1 0x1 PUSH1 0x5 DUP1 SLOAD SWAP1 POP PUSH2 0x278A SWAP2 SWAP1 PUSH2 0x48D0 JUMP JUMPDEST DUP2 SLOAD DUP2 LT PUSH2 0x279B JUMPI PUSH2 0x279A PUSH2 0x46B6 JUMP JUMPDEST JUMPDEST SWAP1 PUSH1 0x0 MSTORE PUSH1 0x20 PUSH1 0x0 KECCAK256 ADD SLOAD SWAP1 POP DUP1 PUSH1 0x5 DUP4 DUP2 SLOAD DUP2 LT PUSH2 0x27BD JUMPI PUSH2 0x27BC PUSH2 0x46B6 JUMP JUMPDEST JUMPDEST SWAP1 PUSH1 0x0 MSTORE PUSH1 0x20 PUSH1 0x0 KECCAK256 ADD DUP2 SWAP1 SSTORE POP DUP2 PUSH1 0x3 PUSH1 0x0 DUP4 DUP2 MSTORE PUSH1 0x20 ADD SWAP1 DUP2 MSTORE PUSH1 0x20 ADD PUSH1 0x0 KECCAK256 PUSH1 0x9 ADD DUP2 SWAP1 SSTORE POP PUSH1 0x5 DUP1 SLOAD DUP1 PUSH2 0x27F8 JUMPI PUSH2 0x27F7 PUSH2 0x4904 JUMP JUMPDEST JUMPDEST PUSH1 0x1 SWAP1 SUB DUP2 DUP2 SWAP1 PUSH1 0x0 MSTORE PUSH1 0x20 PUSH1 0x0 KECCAK256 ADD PUSH1 0x0 SWAP1 SSTORE SWAP1 SSTORE PUSH1 0x3 PUSH1 0x0 DUP7 PUSH1 0x20 ADD CALLDATALOAD DUP2 MSTORE PUSH1 0x20 ADD SWAP1 DUP2 MSTORE PUSH1 0x20 ADD PUSH1 0x0 KECCAK256 PUSH1 0x0 DUP1 DUP3 ADD PUSH1 0x0 PUSH2 0x2836 SWAP2 SWAP1 PUSH2 0x2CDD JUMP JUMPDEST PUSH1 0x1 DUP3 ADD PUSH1 0x0 SWAP1 SSTORE PUSH1 0x2 DUP3 ADD PUSH1 0x0 PUSH2 0x284E SWAP2 SWAP1 PUSH2 0x2D1D JUMP JUMPDEST PUSH1 0x3 DUP3 ADD PUSH1 0x0 SWAP1 SSTORE PUSH1 0x4 DUP3 ADD PUSH1 0x0 PUSH2 0x2866 SWAP2 SWAP1 PUSH2 0x2D1D JUMP JUMPDEST PUSH1 0x5 DUP3 ADD PUSH1 0x0 PUSH2 0x100 EXP DUP2 SLOAD SWAP1 PUSH2 0xFFFF MUL NOT AND SWAP1 SSTORE PUSH1 0x6 DUP3 ADD PUSH1 0x0 PUSH2 0x288B SWAP2 SWAP1 PUSH2 0x2D1D JUMP JUMPDEST PUSH1 0x7 DUP3 ADD PUSH1 0x0 PUSH2 0x100 EXP DUP2 SLOAD SWAP1 PUSH16 0xFFFFFFFFFFFFFFFFFFFFFFFFFFFFFFFF MUL NOT AND SWAP1 SSTORE PUSH1 0x7 DUP3 ADD PUSH1 0x10 PUSH2 0x100 EXP DUP2 SLOAD SWAP1 PUSH16 0xFFFFFFFFFFFFFFFFFFFFFFFFFFFFFFFF MUL NOT AND SWAP1 SSTORE PUSH1 0x8 DUP3 ADD PUSH1 0x0 PUSH2 0x28E1 SWAP2 SWAP1 PUSH2 0x2D1D JUMP JUMPDEST PUSH1 0x9 DUP3 ADD PUSH1 0x0 SWAP1 SSTORE POP POP PUSH32 0xDD89D357A2EDA89E66964E3377B2F37C032ACD4B071D829DAE6FCD3BE67A3AC8 DUP4 CALLER PUSH1 0x40 MLOAD PUSH2 0x291C SWAP3 SWAP2 SWAP1 PUSH2 0x4933 JUMP JUMPDEST PUSH1 0x40 MLOAD DUP1 SWAP2 SUB SWAP1 LOG1 POP POP POP POP POP JUMP JUMPDEST PUSH1 0x0 PUSH32 0x1FFC9A700000000000000000000000000000000000000000000000000000000 PUSH28 0xFFFFFFFFFFFFFFFFFFFFFFFFFFFFFFFFFFFFFFFFFFFFFFFFFFFFFFFF NOT AND DUP3 PUSH28 0xFFFFFFFFFFFFFFFFFFFFFFFFFFFFFFFFFFFFFFFFFFFFFFFFFFFFFFFF NOT AND EQ SWAP1 POP SWAP2 SWAP1 POP JUMP JUMPDEST PUSH2 0x29A6 DUP2 PUSH2 0x29A1 PUSH2 0x2A9A JUMP JUMPDEST PUSH2 0x2B94 JUMP JUMPDEST POP JUMP JUMPDEST PUSH1 0x0 PUSH2 0x29B5 DUP4 DUP4 PUSH2 0x14C0 JUMP JUMPDEST PUSH2 0x2A8F JUMPI PUSH1 0x1 PUSH1 0x0 DUP1 DUP6 DUP2 MSTORE PUSH1 0x20 ADD SWAP1 DUP2 MSTORE PUSH1 0x20 ADD PUSH1 0x0 KECCAK256 PUSH1 0x0 ADD PUSH1 0x0 DUP5 PUSH20 0xFFFFFFFFFFFFFFFFFFFFFFFFFFFFFFFFFFFFFFFF AND PUSH20 0xFFFFFFFFFFFFFFFFFFFFFFFFFFFFFFFFFFFFFFFF AND DUP2 MSTORE PUSH1 0x20 ADD SWAP1 DUP2 MSTORE PUSH1 0x20 ADD PUSH1 0x0 KECCAK256 PUSH1 0x0 PUSH2 0x100 EXP DUP2 SLOAD DUP2 PUSH1 0xFF MUL NOT AND SWAP1 DUP4 ISZERO ISZERO MUL OR SWAP1 SSTORE POP PUSH2 0x2A2C PUSH2 0x2A9A JUMP JUMPDEST PUSH20 0xFFFFFFFFFFFFFFFFFFFFFFFFFFFFFFFFFFFFFFFF AND DUP3 PUSH20 0xFFFFFFFFFFFFFFFFFFFFFFFFFFFFFFFFFFFFFFFF AND DUP5 PUSH32 0x2F8788117E7EFF1D82E926EC794901D17C78024A50270940304540A733656F0D PUSH1 0x40 MLOAD PUSH1 0x40 MLOAD DUP1 SWAP2 SUB SWAP1 LOG4 PUSH1 0x1 SWAP1 POP PUSH2 0x2A94 JUMP JUMPDEST PUSH1 0x0 SWAP1 POP JUMPDEST SWAP3 SWAP2 POP POP JUMP JUMPDEST PUSH1 0x0 CALLER SWAP1 POP SWAP1 JUMP JUMPDEST PUSH1 0x0 PUSH2 0x2AAE DUP4 DUP4 PUSH2 0x14C0 JUMP JUMPDEST ISZERO PUSH2 0x2B89 JUMPI PUSH1 0x0 DUP1 PUSH1 0x0 DUP6 DUP2 MSTORE PUSH1 0x20 ADD SWAP1 DUP2 MSTORE PUSH1 0x20 ADD PUSH1 0x0 KECCAK256 PUSH1 0x0 ADD PUSH1 0x0 DUP5 PUSH20 0xFFFFFFFFFFFFFFFFFFFFFFFFFFFFFFFFFFFFFFFF AND PUSH20 0xFFFFFFFFFFFFFFFFFFFFFFFFFFFFFFFFFFFFFFFF AND DUP2 MSTORE PUSH1 0x20 ADD SWAP1 DUP2 MSTORE PUSH1 0x20 ADD PUSH1 0x0 KECCAK256 PUSH1 0x0 PUSH2 0x100 EXP DUP2 SLOAD DUP2 PUSH1 0xFF MUL NOT AND SWAP1 DUP4 ISZERO ISZERO MUL OR SWAP1 SSTORE POP PUSH2 0x2B26 PUSH2 0x2A9A JUMP JUMPDEST PUSH20 0xFFFFFFFFFFFFFFFFFFFFFFFFFFFFFFFFFFFFFFFF AND DUP3 PUSH20 0xFFFFFFFFFFFFFFFFFFFFFFFFFFFFFFFFFFFFFFFF AND DUP5 PUSH32 0xF6391F5C32D9C69D2A47EA670B442974B53935D1EDC7FD64EB21E047A839171B PUSH1 0x40 MLOAD PUSH1 0x40 MLOAD DUP1 SWAP2 SUB SWAP1 LOG4 PUSH1 0x1 SWAP1 POP PUSH2 0x2B8E JUMP JUMPDEST PUSH1 0x0 SWAP1 POP JUMPDEST SWAP3 SWAP2 POP POP JUMP JUMPDEST PUSH2 0x2B9E DUP3 DUP3 PUSH2 0x14C0 JUMP JUMPDEST PUSH2 0x2BE1 JUMPI DUP1 DUP3 PUSH1 0x40 MLOAD PUSH32 0xE2517D3F00000000000000000000000000000000000000000000000000000000 DUP2 MSTORE PUSH1 0x4 ADD PUSH2 0x2BD8 SWAP3 SWAP2 SWAP1 PUSH2 0x4963 JUMP JUMPDEST PUSH1 0x40 MLOAD DUP1 SWAP2 SUB SWAP1 REVERT JUMPDEST POP POP JUMP JUMPDEST PUSH1 0x40 MLOAD DUP1 PUSH2 0x160 ADD PUSH1 0x40 MSTORE DUP1 PUSH1 0x60 DUP2 MSTORE PUSH1 0x20 ADD PUSH1 0x0 DUP1 NOT AND DUP2 MSTORE PUSH1 0x20 ADD PUSH1 0x60 DUP2 MSTORE PUSH1 0x20 ADD PUSH1 0x0 DUP1 NOT AND DUP2 MSTORE PUSH1 0x20 ADD PUSH1 0x60 DUP2 MSTORE PUSH1 0x20 ADD PUSH1 0x0 PUSH2 0xFFFF AND DUP2 MSTORE PUSH1 0x20 ADD PUSH1 0x60 DUP2 MSTORE PUSH1 0x20 ADD PUSH1 0x0 PUSH16 0xFFFFFFFFFFFFFFFFFFFFFFFFFFFFFFFF AND DUP2 MSTORE PUSH1 0x20 ADD PUSH1 0x0 PUSH16 0xFFFFFFFFFFFFFFFFFFFFFFFFFFFFFFFF AND DUP2 MSTORE PUSH1 0x20 ADD PUSH1 0x60 DUP2 MSTORE PUSH1 0x20 ADD PUSH1 0x0 DUP2 MSTORE POP SWAP1 JUMP JUMPDEST PUSH1 0x40 MLOAD DUP1 PUSH2 0x120 ADD PUSH1 0x40 MSTORE DUP1 PUSH1 0x60 DUP2 MSTORE PUSH1 0x20 ADD PUSH1 0x0 DUP1 NOT AND DUP2 MSTORE PUSH1 0x20 ADD PUSH1 0x0 ISZERO ISZERO DUP2 MSTORE PUSH1 0x20 ADD PUSH1 0x0 PUSH1 0xFF AND DUP2 MSTORE PUSH1 0x20 ADD PUSH1 0x60 DUP2 MSTORE PUSH1 0x20 ADD PUSH1 0x0 PUSH8 0xFFFFFFFFFFFFFFFF AND DUP2 MSTORE PUSH1 0x20 ADD PUSH1 0x0 PUSH16 0xFFFFFFFFFFFFFFFFFFFFFFFFFFFFFFFF AND DUP2 MSTORE PUSH1 0x20 ADD PUSH1 0x60 DUP2 MSTORE PUSH1 0x20 ADD PUSH1 0x60 DUP2 MSTORE POP SWAP1 JUMP JUMPDEST POP DUP1 SLOAD PUSH2 0x2CE9 SWAP1 PUSH2 0x3F69 JUMP JUMPDEST PUSH1 0x0 DUP3 SSTORE DUP1 PUSH1 0x1F LT PUSH2 0x2CFB JUMPI POP PUSH2 0x2D1A JUMP JUMPDEST PUSH1 0x1F ADD PUSH1 0x20 SWAP1 DIV SWAP1 PUSH1 0x0 MSTORE PUSH1 0x20 PUSH1 0x0 KECCAK256 SWAP1 DUP2 ADD SWAP1 PUSH2 0x2D19 SWAP2 SWAP1 PUSH2 0x2D5D JUMP JUMPDEST JUMPDEST POP JUMP JUMPDEST POP DUP1 SLOAD PUSH2 0x2D29 SWAP1 PUSH2 0x3F69 JUMP JUMPDEST PUSH1 0x0 DUP3 SSTORE DUP1 PUSH1 0x1F LT PUSH2 0x2D3B JUMPI POP PUSH2 0x2D5A JUMP JUMPDEST PUSH1 0x1F ADD PUSH1 0x20 SWAP1 DIV SWAP1 PUSH1 0x0 MSTORE PUSH1 0x20 PUSH1 0x0 KECCAK256 SWAP1 DUP2 ADD SWAP1 PUSH2 0x2D59 SWAP2 SWAP1 PUSH2 0x2D5D JUMP JUMPDEST JUMPDEST POP JUMP JUMPDEST JUMPDEST DUP1 DUP3 GT ISZERO PUSH2 0x2D76 JUMPI PUSH1 0x0 DUP2 PUSH1 0x0 SWAP1 SSTORE POP PUSH1 0x1 ADD PUSH2 0x2D5E JUMP JUMPDEST POP SWAP1 JUMP JUMPDEST PUSH1 0x0 PUSH1 0x40 MLOAD SWAP1 POP SWAP1 JUMP JUMPDEST PUSH1 0x0 DUP1 REVERT JUMPDEST PUSH1 0x0 DUP1 REVERT JUMPDEST PUSH1 0x0 PUSH32 0xFFFFFFFF00000000000000000000000000000000000000000000000000000000 DUP3 AND SWAP1 POP SWAP2 SWAP1 POP JUMP JUMPDEST PUSH2 0x2DC3 DUP2 PUSH2 0x2D8E JUMP JUMPDEST DUP2 EQ PUSH2 0x2DCE JUMPI PUSH1 0x0 DUP1 REVERT JUMPDEST POP JUMP JUMPDEST PUSH1 0x0 DUP2 CALLDATALOAD SWAP1 POP PUSH2 0x2DE0 DUP2 PUSH2 0x2DBA JUMP JUMPDEST SWAP3 SWAP2 POP POP JUMP JUMPDEST PUSH1 0x0 PUSH1 0x20 DUP3 DUP5 SUB SLT ISZERO PUSH2 0x2DFC JUMPI PUSH2 0x2DFB PUSH2 0x2D84 JUMP JUMPDEST JUMPDEST PUSH1 0x0 PUSH2 0x2E0A DUP5 DUP3 DUP6 ADD PUSH2 0x2DD1 JUMP JUMPDEST SWAP2 POP POP SWAP3 SWAP2 POP POP JUMP JUMPDEST PUSH1 0x0 DUP2 ISZERO ISZERO SWAP1 POP SWAP2 SWAP1 POP JUMP JUMPDEST PUSH2 0x2E28 DUP2 PUSH2 0x2E13 JUMP JUMPDEST DUP3 MSTORE POP POP JUMP JUMPDEST PUSH1 0x0 PUSH1 0x20 DUP3 ADD SWAP1 POP PUSH2 0x2E43 PUSH1 0x0 DUP4 ADD DUP5 PUSH2 0x2E1F JUMP JUMPDEST SWAP3 SWAP2 POP POP JUMP JUMPDEST PUSH1 0x0 DUP2 SWAP1 POP SWAP2 SWAP1 POP JUMP JUMPDEST PUSH2 0x2E5C DUP2 PUSH2 0x2E49 JUMP JUMPDEST DUP2 EQ PUSH2 0x2E67 JUMPI PUSH1 0x0 DUP1 REVERT JUMPDEST POP JUMP JUMPDEST PUSH1 0x0 DUP2 CALLDATALOAD SWAP1 POP PUSH2 0x2E79 DUP2 PUSH2 0x2E53 JUMP JUMPDEST SWAP3 SWAP2 POP POP JUMP JUMPDEST PUSH1 0x0 PUSH1 0x20 DUP3 DUP5 SUB SLT ISZERO PUSH2 0x2E95 JUMPI PUSH2 0x2E94 PUSH2 0x2D84 JUMP JUMPDEST JUMPDEST PUSH1 0x0 PUSH2 0x2EA3 DUP5 DUP3 DUP6 ADD PUSH2 0x2E6A JUMP JUMPDEST SWAP2 POP POP SWAP3 SWAP2 POP POP JUMP JUMPDEST PUSH1 0x0 DUP2 MLOAD SWAP1 POP SWAP2 SWAP1 POP JUMP JUMPDEST PUSH1 0x0 DUP3 DUP3 MSTORE PUSH1 0x20 DUP3 ADD SWAP1 POP SWAP3 SWAP2 POP POP JUMP JUMPDEST PUSH1 0x0 JUMPDEST DUP4 DUP2 LT ISZERO PUSH2 0x2EE6 JUMPI DUP1 DUP3 ADD MLOAD DUP2 DUP5 ADD MSTORE PUSH1 0x20 DUP2 ADD SWAP1 POP PUSH2 0x2ECB JUMP JUMPDEST PUSH1 0x0 DUP5 DUP5 ADD MSTORE POP POP POP POP JUMP JUMPDEST PUSH1 0x0 PUSH1 0x1F NOT PUSH1 0x1F DUP4 ADD AND SWAP1 POP SWAP2 SWAP1 POP JUMP JUMPDEST PUSH1 0x0 PUSH2 0x2F0E DUP3 PUSH2 0x2EAC JUMP JUMPDEST PUSH2 0x2F18 DUP2 DUP6 PUSH2 0x2EB7 JUMP JUMPDEST SWAP4 POP PUSH2 0x2F28 DUP2 DUP6 PUSH1 0x20 DUP7 ADD PUSH2 0x2EC8 JUMP JUMPDEST PUSH2 0x2F31 DUP2 PUSH2 0x2EF2 JUMP JUMPDEST DUP5 ADD SWAP2 POP POP SWAP3 SWAP2 POP POP JUMP JUMPDEST PUSH2 0x2F45 DUP2 PUSH2 0x2E49 JUMP JUMPDEST DUP3 MSTORE POP POP JUMP JUMPDEST PUSH1 0x0 PUSH1 0xFF DUP3 AND SWAP1 POP SWAP2 SWAP1 POP JUMP JUMPDEST PUSH2 0x2F61 DUP2 PUSH2 0x2F4B JUMP JUMPDEST DUP3 MSTORE POP POP JUMP JUMPDEST PUSH1 0x0 DUP2 MLOAD SWAP1 POP SWAP2 SWAP1 POP JUMP JUMPDEST PUSH1 0x0 DUP3 DUP3 MSTORE PUSH1 0x20 DUP3 ADD SWAP1 POP SWAP3 SWAP2 POP POP JUMP JUMPDEST PUSH1 0x0 PUSH2 0x2F8E DUP3 PUSH2 0x2F67 JUMP JUMPDEST PUSH2 0x2F98 DUP2 DUP6 PUSH2 0x2F72 JUMP JUMPDEST SWAP4 POP PUSH2 0x2FA8 DUP2 DUP6 PUSH1 0x20 DUP7 ADD PUSH2 0x2EC8 JUMP JUMPDEST PUSH2 0x2FB1 DUP2 PUSH2 0x2EF2 JUMP JUMPDEST DUP5 ADD SWAP2 POP POP SWAP3 SWAP2 POP POP JUMP JUMPDEST PUSH1 0x0 PUSH8 0xFFFFFFFFFFFFFFFF DUP3 AND SWAP1 POP SWAP2 SWAP1 POP JUMP JUMPDEST PUSH2 0x2FD9 DUP2 PUSH2 0x2FBC JUMP JUMPDEST DUP3 MSTORE POP POP JUMP JUMPDEST PUSH1 0x0 PUSH16 0xFFFFFFFFFFFFFFFFFFFFFFFFFFFFFFFF DUP3 AND SWAP1 POP SWAP2 SWAP1 POP JUMP JUMPDEST PUSH2 0x3004 DUP2 PUSH2 0x2FDF JUMP JUMPDEST DUP3 MSTORE POP POP JUMP JUMPDEST PUSH1 0x0 PUSH2 0x120 DUP3 ADD SWAP1 POP DUP2 DUP2 SUB PUSH1 0x0 DUP4 ADD MSTORE PUSH2 0x3025 DUP2 DUP13 PUSH2 0x2F03 JUMP JUMPDEST SWAP1 POP PUSH2 0x3034 PUSH1 0x20 DUP4 ADD DUP12 PUSH2 0x2F3C JUMP JUMPDEST PUSH2 0x3041 PUSH1 0x40 DUP4 ADD DUP11 PUSH2 0x2E1F JUMP JUMPDEST PUSH2 0x304E PUSH1 0x60 DUP4 ADD DUP10 PUSH2 0x2F58 JUMP JUMPDEST DUP2 DUP2 SUB PUSH1 0x80 DUP4 ADD MSTORE PUSH2 0x3060 DUP2 DUP9 PUSH2 0x2F83 JUMP JUMPDEST SWAP1 POP PUSH2 0x306F PUSH1 0xA0 DUP4 ADD DUP8 PUSH2 0x2FD0 JUMP JUMPDEST PUSH2 0x307C PUSH1 0xC0 DUP4 ADD DUP7 PUSH2 0x2FFB JUMP JUMPDEST DUP2 DUP2 SUB PUSH1 0xE0 DUP4 ADD MSTORE PUSH2 0x308E DUP2 DUP6 PUSH2 0x2F83 JUMP JUMPDEST SWAP1 POP DUP2 DUP2 SUB PUSH2 0x100 DUP4 ADD MSTORE PUSH2 0x30A3 DUP2 DUP5 PUSH2 0x2F83 JUMP JUMPDEST SWAP1 POP SWAP11 SWAP10 POP POP POP POP POP POP POP POP POP POP JUMP JUMPDEST PUSH1 0x0 DUP2 SWAP1 POP SWAP2 SWAP1 POP JUMP JUMPDEST PUSH2 0x30C6 DUP2 PUSH2 0x30B3 JUMP JUMPDEST DUP2 EQ PUSH2 0x30D1 JUMPI PUSH1 0x0 DUP1 REVERT JUMPDEST POP JUMP JUMPDEST PUSH1 0x0 DUP2 CALLDATALOAD SWAP1 POP PUSH2 0x30E3 DUP2 PUSH2 0x30BD JUMP JUMPDEST SWAP3 SWAP2 POP POP JUMP JUMPDEST PUSH1 0x0 PUSH1 0x20 DUP3 DUP5 SUB SLT ISZERO PUSH2 0x30FF JUMPI PUSH2 0x30FE PUSH2 0x2D84 JUMP JUMPDEST JUMPDEST PUSH1 0x0 PUSH2 0x310D DUP5 DUP3 DUP6 ADD PUSH2 0x30D4 JUMP JUMPDEST SWAP2 POP POP SWAP3 SWAP2 POP POP JUMP JUMPDEST PUSH1 0x0 PUSH1 0x20 DUP3 ADD SWAP1 POP PUSH2 0x312B PUSH1 0x0 DUP4 ADD DUP5 PUSH2 0x2F3C JUMP JUMPDEST SWAP3 SWAP2 POP POP JUMP JUMPDEST PUSH1 0x0 PUSH20 0xFFFFFFFFFFFFFFFFFFFFFFFFFFFFFFFFFFFFFFFF DUP3 AND SWAP1 POP SWAP2 SWAP1 POP JUMP JUMPDEST PUSH1 0x0 PUSH2 0x315C DUP3 PUSH2 0x3131 JUMP JUMPDEST SWAP1 POP SWAP2 SWAP1 POP JUMP JUMPDEST PUSH2 0x316C DUP2 PUSH2 0x3151 JUMP JUMPDEST DUP3 MSTORE POP POP JUMP JUMPDEST PUSH1 0x0 PUSH1 0x20 DUP3 ADD SWAP1 POP PUSH2 0x3187 PUSH1 0x0 DUP4 ADD DUP5 PUSH2 0x3163 JUMP JUMPDEST SWAP3 SWAP2 POP POP JUMP JUMPDEST PUSH1 0x0 DUP3 DUP3 MSTORE PUSH1 0x20 DUP3 ADD SWAP1 POP SWAP3 SWAP2 POP POP JUMP JUMPDEST PUSH1 0x0 PUSH2 0x31A9 DUP3 PUSH2 0x2EAC JUMP JUMPDEST PUSH2 0x31B3 DUP2 DUP6 PUSH2 0x318D JUMP JUMPDEST SWAP4 POP PUSH2 0x31C3 DUP2 DUP6 PUSH1 0x20 DUP7 ADD PUSH2 0x2EC8 JUMP JUMPDEST PUSH2 0x31CC DUP2 PUSH2 0x2EF2 JUMP JUMPDEST DUP5 ADD SWAP2 POP POP SWAP3 SWAP2 POP POP JUMP JUMPDEST PUSH2 0x31E0 DUP2 PUSH2 0x2E49 JUMP JUMPDEST DUP3 MSTORE POP POP JUMP JUMPDEST PUSH1 0x0 DUP3 DUP3 MSTORE PUSH1 0x20 DUP3 ADD SWAP1 POP SWAP3 SWAP2 POP POP JUMP JUMPDEST PUSH1 0x0 PUSH2 0x3202 DUP3 PUSH2 0x2F67 JUMP JUMPDEST PUSH2 0x320C DUP2 DUP6 PUSH2 0x31E6 JUMP JUMPDEST SWAP4 POP PUSH2 0x321C DUP2 DUP6 PUSH1 0x20 DUP7 ADD PUSH2 0x2EC8 JUMP JUMPDEST PUSH2 0x3225 DUP2 PUSH2 0x2EF2 JUMP JUMPDEST DUP5 ADD SWAP2 POP POP SWAP3 SWAP2 POP POP JUMP JUMPDEST PUSH1 0x0 PUSH2 0xFFFF DUP3 AND SWAP1 POP SWAP2 SWAP1 POP JUMP JUMPDEST PUSH2 0x3247 DUP2 PUSH2 0x3230 JUMP JUMPDEST DUP3 MSTORE POP POP JUMP JUMPDEST PUSH2 0x3256 DUP2 PUSH2 0x2FDF JUMP JUMPDEST DUP3 MSTORE POP POP JUMP JUMPDEST PUSH2 0x3265 DUP2 PUSH2 0x30B3 JUMP JUMPDEST DUP3 MSTORE POP POP JUMP JUMPDEST PUSH1 0x0 PUSH2 0x160 DUP4 ADD PUSH1 0x0 DUP4 ADD MLOAD DUP5 DUP3 SUB PUSH1 0x0 DUP7 ADD MSTORE PUSH2 0x3289 DUP3 DUP3 PUSH2 0x319E JUMP JUMPDEST SWAP2 POP POP PUSH1 0x20 DUP4 ADD MLOAD PUSH2 0x329E PUSH1 0x20 DUP7 ADD DUP3 PUSH2 0x31D7 JUMP JUMPDEST POP PUSH1 0x40 DUP4 ADD MLOAD DUP5 DUP3 SUB PUSH1 0x40 DUP7 ADD MSTORE PUSH2 0x32B6 DUP3 DUP3 PUSH2 0x31F7 JUMP JUMPDEST SWAP2 POP POP PUSH1 0x60 DUP4 ADD MLOAD PUSH2 0x32CB PUSH1 0x60 DUP7 ADD DUP3 PUSH2 0x31D7 JUMP JUMPDEST POP PUSH1 0x80 DUP4 ADD MLOAD DUP5 DUP3 SUB PUSH1 0x80 DUP7 ADD MSTORE PUSH2 0x32E3 DUP3 DUP3 PUSH2 0x31F7 JUMP JUMPDEST SWAP2 POP POP PUSH1 0xA0 DUP4 ADD MLOAD PUSH2 0x32F8 PUSH1 0xA0 DUP7 ADD DUP3 PUSH2 0x323E JUMP JUMPDEST POP PUSH1 0xC0 DUP4 ADD MLOAD DUP5 DUP3 SUB PUSH1 0xC0 DUP7 ADD MSTORE PUSH2 0x3310 DUP3 DUP3 PUSH2 0x31F7 JUMP JUMPDEST SWAP2 POP POP PUSH1 0xE0 DUP4 ADD MLOAD PUSH2 0x3325 PUSH1 0xE0 DUP7 ADD DUP3 PUSH2 0x324D JUMP JUMPDEST POP PUSH2 0x100 DUP4 ADD MLOAD PUSH2 0x333A PUSH2 0x100 DUP7 ADD DUP3 PUSH2 0x324D JUMP JUMPDEST POP PUSH2 0x120 DUP4 ADD MLOAD DUP5 DUP3 SUB PUSH2 0x120 DUP7 ADD MSTORE PUSH2 0x3354 DUP3 DUP3 PUSH2 0x31F7 JUMP JUMPDEST SWAP2 POP POP PUSH2 0x140 DUP4 ADD MLOAD PUSH2 0x336B PUSH2 0x140 DUP7 ADD DUP3 PUSH2 0x325C JUMP JUMPDEST POP DUP1 SWAP2 POP POP SWAP3 SWAP2 POP POP JUMP JUMPDEST PUSH1 0x0 PUSH1 0x20 DUP3 ADD SWAP1 POP DUP2 DUP2 SUB PUSH1 0x0 DUP4 ADD MSTORE PUSH2 0x3390 DUP2 DUP5 PUSH2 0x326B JUMP JUMPDEST SWAP1 POP SWAP3 SWAP2 POP POP JUMP JUMPDEST PUSH2 0x33A1 DUP2 PUSH2 0x3151 JUMP JUMPDEST DUP2 EQ PUSH2 0x33AC JUMPI PUSH1 0x0 DUP1 REVERT JUMPDEST POP JUMP JUMPDEST PUSH1 0x0 DUP2 CALLDATALOAD SWAP1 POP PUSH2 0x33BE DUP2 PUSH2 0x3398 JUMP JUMPDEST SWAP3 SWAP2 POP POP JUMP JUMPDEST PUSH1 0x0 DUP1 PUSH1 0x40 DUP4 DUP6 SUB SLT ISZERO PUSH2 0x33DB JUMPI PUSH2 0x33DA PUSH2 0x2D84 JUMP JUMPDEST JUMPDEST PUSH1 0x0 PUSH2 0x33E9 DUP6 DUP3 DUP7 ADD PUSH2 0x2E6A JUMP JUMPDEST SWAP3 POP POP PUSH1 0x20 PUSH2 0x33FA DUP6 DUP3 DUP7 ADD PUSH2 0x33AF JUMP JUMPDEST SWAP2 POP POP SWAP3 POP SWAP3 SWAP1 POP JUMP JUMPDEST PUSH1 0x0 DUP1 REVERT JUMPDEST PUSH1 0x0 PUSH2 0x120 DUP3 DUP5 SUB SLT ISZERO PUSH2 0x3420 JUMPI PUSH2 0x341F PUSH2 0x3404 JUMP JUMPDEST JUMPDEST DUP2 SWAP1 POP SWAP3 SWAP2 POP POP JUMP JUMPDEST PUSH1 0x0 PUSH1 0x20 DUP3 DUP5 SUB SLT ISZERO PUSH2 0x343F JUMPI PUSH2 0x343E PUSH2 0x2D84 JUMP JUMPDEST JUMPDEST PUSH1 0x0 DUP3 ADD CALLDATALOAD PUSH8 0xFFFFFFFFFFFFFFFF DUP2 GT ISZERO PUSH2 0x345D JUMPI PUSH2 0x345C PUSH2 0x2D89 JUMP JUMPDEST JUMPDEST PUSH2 0x3469 DUP5 DUP3 DUP6 ADD PUSH2 0x3409 JUMP JUMPDEST SWAP2 POP POP SWAP3 SWAP2 POP POP JUMP JUMPDEST PUSH1 0x0 DUP1 REVERT JUMPDEST PUSH32 0x4E487B7100000000000000000000000000000000000000000000000000000000 PUSH1 0x0 MSTORE PUSH1 0x41 PUSH1 0x4 MSTORE PUSH1 0x24 PUSH1 0x0 REVERT JUMPDEST PUSH2 0x34AF DUP3 PUSH2 0x2EF2 JUMP JUMPDEST DUP2 ADD DUP2 DUP2 LT PUSH8 0xFFFFFFFFFFFFFFFF DUP3 GT OR ISZERO PUSH2 0x34CE JUMPI PUSH2 0x34CD PUSH2 0x3477 JUMP JUMPDEST JUMPDEST DUP1 PUSH1 0x40 MSTORE POP POP POP JUMP JUMPDEST PUSH1 0x0 PUSH2 0x34E1 PUSH2 0x2D7A JUMP JUMPDEST SWAP1 POP PUSH2 0x34ED DUP3 DUP3 PUSH2 0x34A6 JUMP JUMPDEST SWAP2 SWAP1 POP JUMP JUMPDEST PUSH1 0x0 DUP1 REVERT JUMPDEST PUSH1 0x0 DUP1 REVERT JUMPDEST PUSH1 0x0 DUP1 REVERT JUMPDEST PUSH1 0x0 PUSH8 0xFFFFFFFFFFFFFFFF DUP3 GT ISZERO PUSH2 0x351C JUMPI PUSH2 0x351B PUSH2 0x3477 JUMP JUMPDEST JUMPDEST PUSH2 0x3525 DUP3 PUSH2 0x2EF2 JUMP JUMPDEST SWAP1 POP PUSH1 0x20 DUP2 ADD SWAP1 POP SWAP2 SWAP1 POP JUMP JUMPDEST DUP3 DUP2 DUP4 CALLDATACOPY PUSH1 0x0 DUP4 DUP4 ADD MSTORE POP POP POP JUMP JUMPDEST PUSH1 0x0 PUSH2 0x3554 PUSH2 0x354F DUP5 PUSH2 0x3501 JUMP JUMPDEST PUSH2 0x34D7 JUMP JUMPDEST SWAP1 POP DUP3 DUP2 MSTORE PUSH1 0x20 DUP2 ADD DUP5 DUP5 DUP5 ADD GT ISZERO PUSH2 0x3570 JUMPI PUSH2 0x356F PUSH2 0x34FC JUMP JUMPDEST JUMPDEST PUSH2 0x357B DUP5 DUP3 DUP6 PUSH2 0x3532 JUMP JUMPDEST POP SWAP4 SWAP3 POP POP POP JUMP JUMPDEST PUSH1 0x0 DUP3 PUSH1 0x1F DUP4 ADD SLT PUSH2 0x3598 JUMPI PUSH2 0x3597 PUSH2 0x34F7 JUMP JUMPDEST JUMPDEST DUP2 CALLDATALOAD PUSH2 0x35A8 DUP5 DUP3 PUSH1 0x20 DUP7 ADD PUSH2 0x3541 JUMP JUMPDEST SWAP2 POP POP SWAP3 SWAP2 POP POP JUMP JUMPDEST PUSH2 0x35BA DUP2 PUSH2 0x2E13 JUMP JUMPDEST DUP2 EQ PUSH2 0x35C5 JUMPI PUSH1 0x0 DUP1 REVERT JUMPDEST POP JUMP JUMPDEST PUSH1 0x0 DUP2 CALLDATALOAD SWAP1 POP PUSH2 0x35D7 DUP2 PUSH2 0x35B1 JUMP JUMPDEST SWAP3 SWAP2 POP POP JUMP JUMPDEST PUSH2 0x35E6 DUP2 PUSH2 0x2F4B JUMP JUMPDEST DUP2 EQ PUSH2 0x35F1 JUMPI PUSH1 0x0 DUP1 REVERT JUMPDEST POP JUMP JUMPDEST PUSH1 0x0 DUP2 CALLDATALOAD SWAP1 POP PUSH2 0x3603 DUP2 PUSH2 0x35DD JUMP JUMPDEST SWAP3 SWAP2 POP POP JUMP JUMPDEST PUSH1 0x0 PUSH8 0xFFFFFFFFFFFFFFFF DUP3 GT ISZERO PUSH2 0x3624 JUMPI PUSH2 0x3623 PUSH2 0x3477 JUMP JUMPDEST JUMPDEST PUSH2 0x362D DUP3 PUSH2 0x2EF2 JUMP JUMPDEST SWAP1 POP PUSH1 0x20 DUP2 ADD SWAP1 POP SWAP2 SWAP1 POP JUMP JUMPDEST PUSH1 0x0 PUSH2 0x364D PUSH2 0x3648 DUP5 PUSH2 0x3609 JUMP JUMPDEST PUSH2 0x34D7 JUMP JUMPDEST SWAP1 POP DUP3 DUP2 MSTORE PUSH1 0x20 DUP2 ADD DUP5 DUP5 DUP5 ADD GT ISZERO PUSH2 0x3669 JUMPI PUSH2 0x3668 PUSH2 0x34FC JUMP JUMPDEST JUMPDEST PUSH2 0x3674 DUP5 DUP3 DUP6 PUSH2 0x3532 JUMP JUMPDEST POP SWAP4 SWAP3 POP POP POP JUMP JUMPDEST PUSH1 0x0 DUP3 PUSH1 0x1F DUP4 ADD SLT PUSH2 0x3691 JUMPI PUSH2 0x3690 PUSH2 0x34F7 JUMP JUMPDEST JUMPDEST DUP2 CALLDATALOAD PUSH2 0x36A1 DUP5 DUP3 PUSH1 0x20 DUP7 ADD PUSH2 0x363A JUMP JUMPDEST SWAP2 POP POP SWAP3 SWAP2 POP POP JUMP JUMPDEST PUSH2 0x36B3 DUP2 PUSH2 0x2FBC JUMP JUMPDEST DUP2 EQ PUSH2 0x36BE JUMPI PUSH1 0x0 DUP1 REVERT JUMPDEST POP JUMP JUMPDEST PUSH1 0x0 DUP2 CALLDATALOAD SWAP1 POP PUSH2 0x36D0 DUP2 PUSH2 0x36AA JUMP JUMPDEST SWAP3 SWAP2 POP POP JUMP JUMPDEST PUSH2 0x36DF DUP2 PUSH2 0x2FDF JUMP JUMPDEST DUP2 EQ PUSH2 0x36EA JUMPI PUSH1 0x0 DUP1 REVERT JUMPDEST POP JUMP JUMPDEST PUSH1 0x0 DUP2 CALLDATALOAD SWAP1 POP PUSH2 0x36FC DUP2 PUSH2 0x36D6 JUMP JUMPDEST SWAP3 SWAP2 POP POP JUMP JUMPDEST PUSH1 0x0 PUSH2 0x120 DUP3 DUP5 SUB SLT ISZERO PUSH2 0x3719 JUMPI PUSH2 0x3718 PUSH2 0x3472 JUMP JUMPDEST JUMPDEST PUSH2 0x3724 PUSH2 0x120 PUSH2 0x34D7 JUMP JUMPDEST SWAP1 POP PUSH1 0x0 DUP3 ADD CALLDATALOAD PUSH8 0xFFFFFFFFFFFFFFFF DUP2 GT ISZERO PUSH2 0x3744 JUMPI PUSH2 0x3743 PUSH2 0x34F2 JUMP JUMPDEST JUMPDEST PUSH2 0x3750 DUP5 DUP3 DUP6 ADD PUSH2 0x3583 JUMP JUMPDEST PUSH1 0x0 DUP4 ADD MSTORE POP PUSH1 0x20 PUSH2 0x3764 DUP5 DUP3 DUP6 ADD PUSH2 0x2E6A JUMP JUMPDEST PUSH1 0x20 DUP4 ADD MSTORE POP PUSH1 0x40 PUSH2 0x3778 DUP5 DUP3 DUP6 ADD PUSH2 0x35C8 JUMP JUMPDEST PUSH1 0x40 DUP4 ADD MSTORE POP PUSH1 0x60 PUSH2 0x378C DUP5 DUP3 DUP6 ADD PUSH2 0x35F4 JUMP JUMPDEST PUSH1 0x60 DUP4 ADD MSTORE POP PUSH1 0x80 DUP3 ADD CALLDATALOAD PUSH8 0xFFFFFFFFFFFFFFFF DUP2 GT ISZERO PUSH2 0x37B0 JUMPI PUSH2 0x37AF PUSH2 0x34F2 JUMP JUMPDEST JUMPDEST PUSH2 0x37BC DUP5 DUP3 DUP6 ADD PUSH2 0x367C JUMP JUMPDEST PUSH1 0x80 DUP4 ADD MSTORE POP PUSH1 0xA0 PUSH2 0x37D0 DUP5 DUP3 DUP6 ADD PUSH2 0x36C1 JUMP JUMPDEST PUSH1 0xA0 DUP4 ADD MSTORE POP PUSH1 0xC0 PUSH2 0x37E4 DUP5 DUP3 DUP6 ADD PUSH2 0x36ED JUMP JUMPDEST PUSH1 0xC0 DUP4 ADD MSTORE POP PUSH1 0xE0 DUP3 ADD CALLDATALOAD PUSH8 0xFFFFFFFFFFFFFFFF DUP2 GT ISZERO PUSH2 0x3808 JUMPI PUSH2 0x3807 PUSH2 0x34F2 JUMP JUMPDEST JUMPDEST PUSH2 0x3814 DUP5 DUP3 DUP6 ADD PUSH2 0x367C JUMP JUMPDEST PUSH1 0xE0 DUP4 ADD MSTORE POP PUSH2 0x100 DUP3 ADD CALLDATALOAD PUSH8 0xFFFFFFFFFFFFFFFF DUP2 GT ISZERO PUSH2 0x3839 JUMPI PUSH2 0x3838 PUSH2 0x34F2 JUMP JUMPDEST JUMPDEST PUSH2 0x3845 DUP5 DUP3 DUP6 ADD PUSH2 0x367C JUMP JUMPDEST PUSH2 0x100 DUP4 ADD MSTORE POP SWAP3 SWAP2 POP POP JUMP JUMPDEST PUSH1 0x0 PUSH1 0x20 DUP3 DUP5 SUB SLT ISZERO PUSH2 0x3868 JUMPI PUSH2 0x3867 PUSH2 0x2D84 JUMP JUMPDEST JUMPDEST PUSH1 0x0 DUP3 ADD CALLDATALOAD PUSH8 0xFFFFFFFFFFFFFFFF DUP2 GT ISZERO PUSH2 0x3886 JUMPI PUSH2 0x3885 PUSH2 0x2D89 JUMP JUMPDEST JUMPDEST PUSH2 0x3892 DUP5 DUP3 DUP6 ADD PUSH2 0x3702 JUMP JUMPDEST SWAP2 POP POP SWAP3 SWAP2 POP POP JUMP JUMPDEST PUSH1 0x0 PUSH1 0x20 DUP3 DUP5 SUB SLT ISZERO PUSH2 0x38B1 JUMPI PUSH2 0x38B0 PUSH2 0x2D84 JUMP JUMPDEST JUMPDEST PUSH1 0x0 PUSH2 0x38BF DUP5 DUP3 DUP6 ADD PUSH2 0x33AF JUMP JUMPDEST SWAP2 POP POP SWAP3 SWAP2 POP POP JUMP JUMPDEST PUSH2 0x38D1 DUP2 PUSH2 0x2E13 JUMP JUMPDEST DUP3 MSTORE POP POP JUMP JUMPDEST PUSH2 0x38E0 DUP2 PUSH2 0x2F4B JUMP JUMPDEST DUP3 MSTORE POP POP JUMP JUMPDEST PUSH2 0x38EF DUP2 PUSH2 0x2FBC JUMP JUMPDEST DUP3 MSTORE POP POP JUMP JUMPDEST PUSH1 0x0 PUSH2 0x120 DUP4 ADD PUSH1 0x0 DUP4 ADD MLOAD DUP5 DUP3 SUB PUSH1 0x0 DUP7 ADD MSTORE PUSH2 0x3913 DUP3 DUP3 PUSH2 0x319E JUMP JUMPDEST SWAP2 POP POP PUSH1 0x20 DUP4 ADD MLOAD PUSH2 0x3928 PUSH1 0x20 DUP7 ADD DUP3 PUSH2 0x31D7 JUMP JUMPDEST POP PUSH1 0x40 DUP4 ADD MLOAD PUSH2 0x393B PUSH1 0x40 DUP7 ADD DUP3 PUSH2 0x38C8 JUMP JUMPDEST POP PUSH1 0x60 DUP4 ADD MLOAD PUSH2 0x394E PUSH1 0x60 DUP7 ADD DUP3 PUSH2 0x38D7 JUMP JUMPDEST POP PUSH1 0x80 DUP4 ADD MLOAD DUP5 DUP3 SUB PUSH1 0x80 DUP7 ADD MSTORE PUSH2 0x3966 DUP3 DUP3 PUSH2 0x31F7 JUMP JUMPDEST SWAP2 POP POP PUSH1 0xA0 DUP4 ADD MLOAD PUSH2 0x397B PUSH1 0xA0 DUP7 ADD DUP3 PUSH2 0x38E6 JUMP JUMPDEST POP PUSH1 0xC0 DUP4 ADD MLOAD PUSH2 0x398E PUSH1 0xC0 DUP7 ADD DUP3 PUSH2 0x324D JUMP JUMPDEST POP PUSH1 0xE0 DUP4 ADD MLOAD DUP5 DUP3 SUB PUSH1 0xE0 DUP7 ADD MSTORE PUSH2 0x39A6 DUP3 DUP3 PUSH2 0x31F7 JUMP JUMPDEST SWAP2 POP POP PUSH2 0x100 DUP4 ADD MLOAD DUP5 DUP3 SUB PUSH2 0x100 DUP7 ADD MSTORE PUSH2 0x39C2 DUP3 DUP3 PUSH2 0x31F7 JUMP JUMPDEST SWAP2 POP POP DUP1 SWAP2 POP POP SWAP3 SWAP2 POP POP JUMP JUMPDEST PUSH1 0x0 PUSH1 0x20 DUP3 ADD SWAP1 POP DUP2 DUP2 SUB PUSH1 0x0 DUP4 ADD MSTORE PUSH2 0x39E9 DUP2 DUP5 PUSH2 0x38F5 JUMP JUMPDEST SWAP1 POP SWAP3 SWAP2 POP POP JUMP JUMPDEST PUSH1 0x0 DUP1 PUSH1 0x40 DUP4 DUP6 SUB SLT ISZERO PUSH2 0x3A08 JUMPI PUSH2 0x3A07 PUSH2 0x2D84 JUMP JUMPDEST JUMPDEST PUSH1 0x0 PUSH2 0x3A16 DUP6 DUP3 DUP7 ADD PUSH2 0x36ED JUMP JUMPDEST SWAP3 POP POP PUSH1 0x20 PUSH2 0x3A27 DUP6 DUP3 DUP7 ADD PUSH2 0x36ED JUMP JUMPDEST SWAP2 POP POP SWAP3 POP SWAP3 SWAP1 POP JUMP JUMPDEST PUSH1 0x0 DUP2 MLOAD SWAP1 POP SWAP2 SWAP1 POP JUMP JUMPDEST PUSH1 0x0 DUP3 DUP3 MSTORE PUSH1 0x20 DUP3 ADD SWAP1 POP SWAP3 SWAP2 POP POP JUMP JUMPDEST PUSH1 0x0 DUP2 SWAP1 POP PUSH1 0x20 DUP3 ADD SWAP1 POP SWAP2 SWAP1 POP JUMP JUMPDEST PUSH1 0x0 PUSH2 0x160 DUP4 ADD PUSH1 0x0 DUP4 ADD MLOAD DUP5 DUP3 SUB PUSH1 0x0 DUP7 ADD MSTORE PUSH2 0x3A7B DUP3 DUP3 PUSH2 0x319E JUMP JUMPDEST SWAP2 POP POP PUSH1 0x20 DUP4 ADD MLOAD PUSH2 0x3A90 PUSH1 0x20 DUP7 ADD DUP3 PUSH2 0x31D7 JUMP JUMPDEST POP PUSH1 0x40 DUP4 ADD MLOAD DUP5 DUP3 SUB PUSH1 0x40 DUP7 ADD MSTORE PUSH2 0x3AA8 DUP3 DUP3 PUSH2 0x31F7 JUMP JUMPDEST SWAP2 POP POP PUSH1 0x60 DUP4 ADD MLOAD PUSH2 0x3ABD PUSH1 0x60 DUP7 ADD DUP3 PUSH2 0x31D7 JUMP JUMPDEST POP PUSH1 0x80 DUP4 ADD MLOAD DUP5 DUP3 SUB PUSH1 0x80 DUP7 ADD MSTORE PUSH2 0x3AD5 DUP3 DUP3 PUSH2 0x31F7 JUMP JUMPDEST SWAP2 POP POP PUSH1 0xA0 DUP4 ADD MLOAD PUSH2 0x3AEA PUSH1 0xA0 DUP7 ADD DUP3 PUSH2 0x323E JUMP JUMPDEST POP PUSH1 0xC0 DUP4 ADD MLOAD DUP5 DUP3 SUB PUSH1 0xC0 DUP7 ADD MSTORE PUSH2 0x3B02 DUP3 DUP3 PUSH2 0x31F7 JUMP JUMPDEST SWAP2 POP POP PUSH1 0xE0 DUP4 ADD MLOAD PUSH2 0x3B17 PUSH1 0xE0 DUP7 ADD DUP3 PUSH2 0x324D JUMP JUMPDEST POP PUSH2 0x100 DUP4 ADD MLOAD PUSH2 0x3B2C PUSH2 0x100 DUP7 ADD DUP3 PUSH2 0x324D JUMP JUMPDEST POP PUSH2 0x120 DUP4 ADD MLOAD DUP5 DUP3 SUB PUSH2 0x120 DUP7 ADD MSTORE PUSH2 0x3B46 DUP3 DUP3 PUSH2 0x31F7 JUMP JUMPDEST SWAP2 POP POP PUSH2 0x140 DUP4 ADD MLOAD PUSH2 0x3B5D PUSH2 0x140 DUP7 ADD DUP3 PUSH2 0x325C JUMP JUMPDEST POP DUP1 SWAP2 POP POP SWAP3 SWAP2 POP POP JUMP JUMPDEST PUSH1 0x0 PUSH2 0x3B74 DUP4 DUP4 PUSH2 0x3A5D JUMP JUMPDEST SWAP1 POP SWAP3 SWAP2 POP POP JUMP JUMPDEST PUSH1 0x0 PUSH1 0x20 DUP3 ADD SWAP1 POP SWAP2 SWAP1 POP JUMP JUMPDEST PUSH1 0x0 PUSH2 0x3B94 DUP3 PUSH2 0x3A31 JUMP JUMPDEST PUSH2 0x3B9E DUP2 DUP6 PUSH2 0x3A3C JUMP JUMPDEST SWAP4 POP DUP4 PUSH1 0x20 DUP3 MUL DUP6 ADD PUSH2 0x3BB0 DUP6 PUSH2 0x3A4D JUMP JUMPDEST DUP1 PUSH1 0x0 JUMPDEST DUP6 DUP2 LT ISZERO PUSH2 0x3BEC JUMPI DUP5 DUP5 SUB DUP10 MSTORE DUP2 MLOAD PUSH2 0x3BCD DUP6 DUP3 PUSH2 0x3B68 JUMP JUMPDEST SWAP5 POP PUSH2 0x3BD8 DUP4 PUSH2 0x3B7C JUMP JUMPDEST SWAP3 POP PUSH1 0x20 DUP11 ADD SWAP10 POP POP PUSH1 0x1 DUP2 ADD SWAP1 POP PUSH2 0x3BB4 JUMP JUMPDEST POP DUP3 SWAP8 POP DUP8 SWAP6 POP POP POP POP POP POP SWAP3 SWAP2 POP POP JUMP JUMPDEST PUSH1 0x0 PUSH1 0x20 DUP3 ADD SWAP1 POP DUP2 DUP2 SUB PUSH1 0x0 DUP4 ADD MSTORE PUSH2 0x3C18 DUP2 DUP5 PUSH2 0x3B89 JUMP JUMPDEST SWAP1 POP SWAP3 SWAP2 POP POP JUMP JUMPDEST PUSH2 0x3C29 DUP2 PUSH2 0x3230 JUMP JUMPDEST DUP2 EQ PUSH2 0x3C34 JUMPI PUSH1 0x0 DUP1 REVERT JUMPDEST POP JUMP JUMPDEST PUSH1 0x0 DUP2 CALLDATALOAD SWAP1 POP PUSH2 0x3C46 DUP2 PUSH2 0x3C20 JUMP JUMPDEST SWAP3 SWAP2 POP POP JUMP JUMPDEST PUSH1 0x0 PUSH2 0x120 DUP3 DUP5 SUB SLT ISZERO PUSH2 0x3C63 JUMPI PUSH2 0x3C62 PUSH2 0x3472 JUMP JUMPDEST JUMPDEST PUSH2 0x3C6E PUSH2 0x120 PUSH2 0x34D7 JUMP JUMPDEST SWAP1 POP PUSH1 0x0 PUSH2 0x3C7E DUP5 DUP3 DUP6 ADD PUSH2 0x2E6A JUMP JUMPDEST PUSH1 0x0 DUP4 ADD MSTORE POP PUSH1 0x20 DUP3 ADD CALLDATALOAD PUSH8 0xFFFFFFFFFFFFFFFF DUP2 GT ISZERO PUSH2 0x3CA2 JUMPI PUSH2 0x3CA1 PUSH2 0x34F2 JUMP JUMPDEST JUMPDEST PUSH2 0x3CAE DUP5 DUP3 DUP6 ADD PUSH2 0x367C JUMP JUMPDEST PUSH1 0x20 DUP4 ADD MSTORE POP PUSH1 0x40 PUSH2 0x3CC2 DUP5 DUP3 DUP6 ADD PUSH2 0x2E6A JUMP JUMPDEST PUSH1 0x40 DUP4 ADD MSTORE POP PUSH1 0x60 DUP3 ADD CALLDATALOAD PUSH8 0xFFFFFFFFFFFFFFFF DUP2 GT ISZERO PUSH2 0x3CE6 JUMPI PUSH2 0x3CE5 PUSH2 0x34F2 JUMP JUMPDEST JUMPDEST PUSH2 0x3CF2 DUP5 DUP3 DUP6 ADD PUSH2 0x367C JUMP JUMPDEST PUSH1 0x60 DUP4 ADD MSTORE POP PUSH1 0x80 PUSH2 0x3D06 DUP5 DUP3 DUP6 ADD PUSH2 0x3C37 JUMP JUMPDEST PUSH1 0x80 DUP4 ADD MSTORE POP PUSH1 0xA0 DUP3 ADD CALLDATALOAD PUSH8 0xFFFFFFFFFFFFFFFF DUP2 GT ISZERO PUSH2 0x3D2A JUMPI PUSH2 0x3D29 PUSH2 0x34F2 JUMP JUMPDEST JUMPDEST PUSH2 0x3D36 DUP5 DUP3 DUP6 ADD PUSH2 0x367C JUMP JUMPDEST PUSH1 0xA0 DUP4 ADD MSTORE POP PUSH1 0xC0 PUSH2 0x3D4A DUP5 DUP3 DUP6 ADD PUSH2 0x36ED JUMP JUMPDEST PUSH1 0xC0 DUP4 ADD MSTORE POP PUSH1 0xE0 PUSH2 0x3D5E DUP5 DUP3 DUP6 ADD PUSH2 0x36ED JUMP JUMPDEST PUSH1 0xE0 DUP4 ADD MSTORE POP PUSH2 0x100 DUP3 ADD CALLDATALOAD PUSH8 0xFFFFFFFFFFFFFFFF DUP2 GT ISZERO PUSH2 0x3D83 JUMPI PUSH2 0x3D82 PUSH2 0x34F2 JUMP JUMPDEST JUMPDEST PUSH2 0x3D8F DUP5 DUP3 DUP6 ADD PUSH2 0x367C JUMP JUMPDEST PUSH2 0x100 DUP4 ADD MSTORE POP SWAP3 SWAP2 POP POP JUMP JUMPDEST PUSH1 0x0 PUSH1 0x20 DUP3 DUP5 SUB SLT ISZERO PUSH2 0x3DB2 JUMPI PUSH2 0x3DB1 PUSH2 0x2D84 JUMP JUMPDEST JUMPDEST PUSH1 0x0 DUP3 ADD CALLDATALOAD PUSH8 0xFFFFFFFFFFFFFFFF DUP2 GT ISZERO PUSH2 0x3DD0 JUMPI PUSH2 0x3DCF PUSH2 0x2D89 JUMP JUMPDEST JUMPDEST PUSH2 0x3DDC DUP5 DUP3 DUP6 ADD PUSH2 0x3C4C JUMP JUMPDEST SWAP2 POP POP SWAP3 SWAP2 POP POP JUMP JUMPDEST PUSH2 0x3DEE DUP2 PUSH2 0x3230 JUMP JUMPDEST DUP3 MSTORE POP POP JUMP JUMPDEST PUSH2 0x3DFD DUP2 PUSH2 0x30B3 JUMP JUMPDEST DUP3 MSTORE POP POP JUMP JUMPDEST PUSH1 0x0 PUSH2 0x160 DUP3 ADD SWAP1 POP DUP2 DUP2 SUB PUSH1 0x0 DUP4 ADD MSTORE PUSH2 0x3E1E DUP2 DUP15 PUSH2 0x2F03 JUMP JUMPDEST SWAP1 POP PUSH2 0x3E2D PUSH1 0x20 DUP4 ADD DUP14 PUSH2 0x2F3C JUMP JUMPDEST DUP2 DUP2 SUB PUSH1 0x40 DUP4 ADD MSTORE PUSH2 0x3E3F DUP2 DUP13 PUSH2 0x2F83 JUMP JUMPDEST SWAP1 POP PUSH2 0x3E4E PUSH1 0x60 DUP4 ADD DUP12 PUSH2 0x2F3C JUMP JUMPDEST DUP2 DUP2 SUB PUSH1 0x80 DUP4 ADD MSTORE PUSH2 0x3E60 DUP2 DUP11 PUSH2 0x2F83 JUMP JUMPDEST SWAP1 POP PUSH2 0x3E6F PUSH1 0xA0 DUP4 ADD DUP10 PUSH2 0x3DE5 JUMP JUMPDEST DUP2 DUP2 SUB PUSH1 0xC0 DUP4 ADD MSTORE PUSH2 0x3E81 DUP2 DUP9 PUSH2 0x2F83 JUMP JUMPDEST SWAP1 POP PUSH2 0x3E90 PUSH1 0xE0 DUP4 ADD DUP8 PUSH2 0x2FFB JUMP JUMPDEST PUSH2 0x3E9E PUSH2 0x100 DUP4 ADD DUP7 PUSH2 0x2FFB JUMP JUMPDEST DUP2 DUP2 SUB PUSH2 0x120 DUP4 ADD MSTORE PUSH2 0x3EB1 DUP2 DUP6 PUSH2 0x2F83 JUMP JUMPDEST SWAP1 POP PUSH2 0x3EC1 PUSH2 0x140 DUP4 ADD DUP5 PUSH2 0x3DF4 JUMP JUMPDEST SWAP13 SWAP12 POP POP POP POP POP POP POP POP POP POP POP POP JUMP JUMPDEST PUSH1 0x0 PUSH2 0x120 DUP3 DUP5 SUB SLT ISZERO PUSH2 0x3EE8 JUMPI PUSH2 0x3EE7 PUSH2 0x3404 JUMP JUMPDEST JUMPDEST DUP2 SWAP1 POP SWAP3 SWAP2 POP POP JUMP JUMPDEST PUSH1 0x0 PUSH1 0x20 DUP3 DUP5 SUB SLT ISZERO PUSH2 0x3F07 JUMPI PUSH2 0x3F06 PUSH2 0x2D84 JUMP JUMPDEST JUMPDEST PUSH1 0x0 DUP3 ADD CALLDATALOAD PUSH8 0xFFFFFFFFFFFFFFFF DUP2 GT ISZERO PUSH2 0x3F25 JUMPI PUSH2 0x3F24 PUSH2 0x2D89 JUMP JUMPDEST JUMPDEST PUSH2 0x3F31 DUP5 DUP3 DUP6 ADD PUSH2 0x3ED1 JUMP JUMPDEST SWAP2 POP POP SWAP3 SWAP2 POP POP JUMP JUMPDEST PUSH32 0x4E487B7100000000000000000000000000000000000000000000000000000000 PUSH1 0x0 MSTORE PUSH1 0x22 PUSH1 0x4 MSTORE PUSH1 0x24 PUSH1 0x0 REVERT JUMPDEST PUSH1 0x0 PUSH1 0x2 DUP3 DIV SWAP1 POP PUSH1 0x1 DUP3 AND DUP1 PUSH2 0x3F81 JUMPI PUSH1 0x7F DUP3 AND SWAP2 POP JUMPDEST PUSH1 0x20 DUP3 LT DUP2 SUB PUSH2 0x3F94 JUMPI PUSH2 0x3F93 PUSH2 0x3F3A JUMP JUMPDEST JUMPDEST POP SWAP2 SWAP1 POP JUMP JUMPDEST PUSH1 0x0 PUSH2 0x3FA6 CALLDATASIZE DUP4 PUSH2 0x3C4C JUMP JUMPDEST SWAP1 POP SWAP2 SWAP1 POP JUMP JUMPDEST PUSH1 0x0 DUP1 REVERT JUMPDEST PUSH1 0x0 DUP1 REVERT JUMPDEST PUSH1 0x0 DUP1 REVERT JUMPDEST PUSH1 0x0 DUP1 DUP4 CALLDATALOAD PUSH1 0x1 PUSH1 0x20 SUB DUP5 CALLDATASIZE SUB SUB DUP2 SLT PUSH2 0x3FD9 JUMPI PUSH2 0x3FD8 PUSH2 0x3FAD JUMP JUMPDEST JUMPDEST DUP1 DUP5 ADD SWAP3 POP DUP3 CALLDATALOAD SWAP2 POP PUSH8 0xFFFFFFFFFFFFFFFF DUP3 GT ISZERO PUSH2 0x3FFB JUMPI PUSH2 0x3FFA PUSH2 0x3FB2 JUMP JUMPDEST JUMPDEST PUSH1 0x20 DUP4 ADD SWAP3 POP PUSH1 0x1 DUP3 MUL CALLDATASIZE SUB DUP4 SGT ISZERO PUSH2 0x4017 JUMPI PUSH2 0x4016 PUSH2 0x3FB7 JUMP JUMPDEST JUMPDEST POP SWAP3 POP SWAP3 SWAP1 POP JUMP JUMPDEST PUSH1 0x0 PUSH1 0x20 DUP3 DUP5 SUB SLT ISZERO PUSH2 0x4035 JUMPI PUSH2 0x4034 PUSH2 0x2D84 JUMP JUMPDEST JUMPDEST PUSH1 0x0 PUSH2 0x4043 DUP5 DUP3 DUP6 ADD PUSH2 0x3C37 JUMP JUMPDEST SWAP2 POP POP SWAP3 SWAP2 POP POP JUMP JUMPDEST PUSH1 0x0 PUSH1 0x20 DUP3 DUP5 SUB SLT ISZERO PUSH2 0x4062 JUMPI PUSH2 0x4061 PUSH2 0x2D84 JUMP JUMPDEST JUMPDEST PUSH1 0x0 PUSH2 0x4070 DUP5 DUP3 DUP6 ADD PUSH2 0x36ED JUMP JUMPDEST SWAP2 POP POP SWAP3 SWAP2 POP POP JUMP JUMPDEST PUSH1 0x0 DUP2 SWAP1 POP DUP2 PUSH1 0x0 MSTORE PUSH1 0x20 PUSH1 0x0 KECCAK256 SWAP1 POP SWAP2 SWAP1 POP JUMP JUMPDEST PUSH1 0x0 PUSH1 0x20 PUSH1 0x1F DUP4 ADD DIV SWAP1 POP SWAP2 SWAP1 POP JUMP JUMPDEST PUSH1 0x0 DUP3 DUP3 SHL SWAP1 POP SWAP3 SWAP2 POP POP JUMP JUMPDEST PUSH1 0x0 PUSH1 0x8 DUP4 MUL PUSH2 0x40DB PUSH32 0xFFFFFFFFFFFFFFFFFFFFFFFFFFFFFFFFFFFFFFFFFFFFFFFFFFFFFFFFFFFFFFFF DUP3 PUSH2 0x409E JUMP JUMPDEST PUSH2 0x40E5 DUP7 DUP4 PUSH2 0x409E JUMP JUMPDEST SWAP6 POP DUP1 NOT DUP5 AND SWAP4 POP DUP1 DUP7 AND DUP5 OR SWAP3 POP POP POP SWAP4 SWAP3 POP POP POP JUMP JUMPDEST PUSH1 0x0 DUP2 SWAP1 POP SWAP2 SWAP1 POP JUMP JUMPDEST PUSH1 0x0 PUSH2 0x4122 PUSH2 0x411D PUSH2 0x4118 DUP5 PUSH2 0x30B3 JUMP JUMPDEST PUSH2 0x40FD JUMP JUMPDEST PUSH2 0x30B3 JUMP JUMPDEST SWAP1 POP SWAP2 SWAP1 POP JUMP JUMPDEST PUSH1 0x0 DUP2 SWAP1 POP SWAP2 SWAP1 POP JUMP JUMPDEST PUSH2 0x413C DUP4 PUSH2 0x4107 JUMP JUMPDEST PUSH2 0x4150 PUSH2 0x4148 DUP3 PUSH2 0x4129 JUMP JUMPDEST DUP5 DUP5 SLOAD PUSH2 0x40AB JUMP JUMPDEST DUP3 SSTORE POP POP POP POP JUMP JUMPDEST PUSH1 0x0 SWAP1 JUMP JUMPDEST PUSH2 0x4165 PUSH2 0x4158 JUMP JUMPDEST PUSH2 0x4170 DUP2 DUP5 DUP5 PUSH2 0x4133 JUMP JUMPDEST POP POP POP JUMP JUMPDEST JUMPDEST DUP2 DUP2 LT ISZERO PUSH2 0x4194 JUMPI PUSH2 0x4189 PUSH1 0x0 DUP3 PUSH2 0x415D JUMP JUMPDEST PUSH1 0x1 DUP2 ADD SWAP1 POP PUSH2 0x4176 JUMP JUMPDEST POP POP JUMP JUMPDEST PUSH1 0x1F DUP3 GT ISZERO PUSH2 0x41D9 JUMPI PUSH2 0x41AA DUP2 PUSH2 0x4079 JUMP JUMPDEST PUSH2 0x41B3 DUP5 PUSH2 0x408E JUMP JUMPDEST DUP2 ADD PUSH1 0x20 DUP6 LT ISZERO PUSH2 0x41C2 JUMPI DUP2 SWAP1 POP JUMPDEST PUSH2 0x41D6 PUSH2 0x41CE DUP6 PUSH2 0x408E JUMP JUMPDEST DUP4 ADD DUP3 PUSH2 0x4175 JUMP JUMPDEST POP POP JUMPDEST POP POP POP JUMP JUMPDEST PUSH1 0x0 DUP3 DUP3 SHR SWAP1 POP SWAP3 SWAP2 POP POP JUMP JUMPDEST PUSH1 0x0 PUSH2 0x41FC PUSH1 0x0 NOT DUP5 PUSH1 0x8 MUL PUSH2 0x41DE JUMP JUMPDEST NOT DUP1 DUP4 AND SWAP2 POP POP SWAP3 SWAP2 POP POP JUMP JUMPDEST PUSH1 0x0 PUSH2 0x4215 DUP4 DUP4 PUSH2 0x41EB JUMP JUMPDEST SWAP2 POP DUP3 PUSH1 0x2 MUL DUP3 OR SWAP1 POP SWAP3 SWAP2 POP POP JUMP JUMPDEST PUSH2 0x422E DUP3 PUSH2 0x2EAC JUMP JUMPDEST PUSH8 0xFFFFFFFFFFFFFFFF DUP2 GT ISZERO PUSH2 0x4247 JUMPI PUSH2 0x4246 PUSH2 0x3477 JUMP JUMPDEST JUMPDEST PUSH2 0x4251 DUP3 SLOAD PUSH2 0x3F69 JUMP JUMPDEST PUSH2 0x425C DUP3 DUP3 DUP6 PUSH2 0x4198 JUMP JUMPDEST PUSH1 0x0 PUSH1 0x20 SWAP1 POP PUSH1 0x1F DUP4 GT PUSH1 0x1 DUP2 EQ PUSH2 0x428F JUMPI PUSH1 0x0 DUP5 ISZERO PUSH2 0x427D JUMPI DUP3 DUP8 ADD MLOAD SWAP1 POP JUMPDEST PUSH2 0x4287 DUP6 DUP3 PUSH2 0x4209 JUMP JUMPDEST DUP7 SSTORE POP PUSH2 0x42EF JUMP JUMPDEST PUSH1 0x1F NOT DUP5 AND PUSH2 0x429D DUP7 PUSH2 0x4079 JUMP JUMPDEST PUSH1 0x0 JUMPDEST DUP3 DUP2 LT ISZERO PUSH2 0x42C5 JUMPI DUP5 DUP10 ADD MLOAD DUP3 SSTORE PUSH1 0x1 DUP3 ADD SWAP2 POP PUSH1 0x20 DUP6 ADD SWAP5 POP PUSH1 0x20 DUP2 ADD SWAP1 POP PUSH2 0x42A0 JUMP JUMPDEST DUP7 DUP4 LT ISZERO PUSH2 0x42E2 JUMPI DUP5 DUP10 ADD MLOAD PUSH2 0x42DE PUSH1 0x1F DUP10 AND DUP3 PUSH2 0x41EB JUMP JUMPDEST DUP4 SSTORE POP JUMPDEST PUSH1 0x1 PUSH1 0x2 DUP9 MUL ADD DUP9 SSTORE POP POP POP JUMPDEST POP POP POP POP POP POP JUMP JUMPDEST PUSH1 0x0 DUP2 SWAP1 POP DUP2 PUSH1 0x0 MSTORE PUSH1 0x20 PUSH1 0x0 KECCAK256 SWAP1 POP SWAP2 SWAP1 POP JUMP JUMPDEST PUSH1 0x1F DUP3 GT ISZERO PUSH2 0x434D JUMPI PUSH2 0x431E DUP2 PUSH2 0x42F7 JUMP JUMPDEST PUSH2 0x4327 DUP5 PUSH2 0x408E JUMP JUMPDEST DUP2 ADD PUSH1 0x20 DUP6 LT ISZERO PUSH2 0x4336 JUMPI DUP2 SWAP1 POP JUMPDEST PUSH2 0x434A PUSH2 0x4342 DUP6 PUSH2 0x408E JUMP JUMPDEST DUP4 ADD DUP3 PUSH2 0x4175 JUMP JUMPDEST POP POP JUMPDEST POP POP POP JUMP JUMPDEST PUSH2 0x435B DUP3 PUSH2 0x2F67 JUMP JUMPDEST PUSH8 0xFFFFFFFFFFFFFFFF DUP2 GT ISZERO PUSH2 0x4374 JUMPI PUSH2 0x4373 PUSH2 0x3477 JUMP JUMPDEST JUMPDEST PUSH2 0x437E DUP3 SLOAD PUSH2 0x3F69 JUMP JUMPDEST PUSH2 0x4389 DUP3 DUP3 DUP6 PUSH2 0x430C JUMP JUMPDEST PUSH1 0x0 PUSH1 0x20 SWAP1 POP PUSH1 0x1F DUP4 GT PUSH1 0x1 DUP2 EQ PUSH2 0x43BC JUMPI PUSH1 0x0 DUP5 ISZERO PUSH2 0x43AA JUMPI DUP3 DUP8 ADD MLOAD SWAP1 POP JUMPDEST PUSH2 0x43B4 DUP6 DUP3 PUSH2 0x4209 JUMP JUMPDEST DUP7 SSTORE POP PUSH2 0x441C JUMP JUMPDEST PUSH1 0x1F NOT DUP5 AND PUSH2 0x43CA DUP7 PUSH2 0x42F7 JUMP JUMPDEST PUSH1 0x0 JUMPDEST DUP3 DUP2 LT ISZERO PUSH2 0x43F2 JUMPI DUP5 DUP10 ADD MLOAD DUP3 SSTORE PUSH1 0x1 DUP3 ADD SWAP2 POP PUSH1 0x20 DUP6 ADD SWAP5 POP PUSH1 0x20 DUP2 ADD SWAP1 POP PUSH2 0x43CD JUMP JUMPDEST DUP7 DUP4 LT ISZERO PUSH2 0x440F JUMPI DUP5 DUP10 ADD MLOAD PUSH2 0x440B PUSH1 0x1F DUP10 AND DUP3 PUSH2 0x41EB JUMP JUMPDEST DUP4 SSTORE POP JUMPDEST PUSH1 0x1 PUSH1 0x2 DUP9 MUL ADD DUP9 SSTORE POP POP POP JUMPDEST POP POP POP POP POP POP JUMP JUMPDEST PUSH1 0x0 PUSH1 0x40 DUP3 ADD SWAP1 POP DUP2 DUP2 SUB PUSH1 0x0 DUP4 ADD MSTORE PUSH2 0x443E DUP2 DUP6 PUSH2 0x326B JUMP JUMPDEST SWAP1 POP PUSH2 0x444D PUSH1 0x20 DUP4 ADD DUP5 PUSH2 0x3163 JUMP JUMPDEST SWAP4 SWAP3 POP POP POP JUMP JUMPDEST PUSH1 0x0 DUP2 SWAP1 POP SWAP2 SWAP1 POP JUMP JUMPDEST PUSH2 0x446F PUSH2 0x446A DUP3 PUSH2 0x2E49 JUMP JUMPDEST PUSH2 0x4454 JUMP JUMPDEST DUP3 MSTORE POP POP JUMP JUMPDEST PUSH1 0x0 PUSH32 0xFF00000000000000000000000000000000000000000000000000000000000000 DUP3 AND SWAP1 POP SWAP2 SWAP1 POP JUMP JUMPDEST PUSH1 0x0 DUP2 SWAP1 POP SWAP2 SWAP1 POP JUMP JUMPDEST PUSH2 0x44BC PUSH2 0x44B7 DUP3 PUSH2 0x4475 JUMP JUMPDEST PUSH2 0x44A1 JUMP JUMPDEST DUP3 MSTORE POP POP JUMP JUMPDEST PUSH1 0x0 PUSH32 0xFFFFFFFFFFFFFFFF000000000000000000000000000000000000000000000000 DUP3 AND SWAP1 POP SWAP2 SWAP1 POP JUMP JUMPDEST PUSH1 0x0 DUP2 SWAP1 POP SWAP2 SWAP1 POP JUMP JUMPDEST PUSH2 0x4509 PUSH2 0x4504 DUP3 PUSH2 0x44C2 JUMP JUMPDEST PUSH2 0x44EE JUMP JUMPDEST DUP3 MSTORE POP POP JUMP JUMPDEST PUSH1 0x0 PUSH32 0xFFFFFFFFFFFFFFFFFFFFFFFFFFFFFFFF00000000000000000000000000000000 DUP3 AND SWAP1 POP SWAP2 SWAP1 POP JUMP JUMPDEST PUSH1 0x0 DUP2 SWAP1 POP SWAP2 SWAP1 POP JUMP JUMPDEST PUSH2 0x4556 PUSH2 0x4551 DUP3 PUSH2 0x450F JUMP JUMPDEST PUSH2 0x453B JUMP JUMPDEST DUP3 MSTORE POP POP JUMP JUMPDEST PUSH1 0x0 PUSH2 0x4568 DUP3 DUP13 PUSH2 0x445E JUMP JUMPDEST PUSH1 0x20 DUP3 ADD SWAP2 POP PUSH2 0x4578 DUP3 DUP12 PUSH2 0x445E JUMP JUMPDEST PUSH1 0x20 DUP3 ADD SWAP2 POP PUSH2 0x4588 DUP3 DUP11 PUSH2 0x44AB JUMP JUMPDEST PUSH1 0x1 DUP3 ADD SWAP2 POP PUSH2 0x4598 DUP3 DUP10 PUSH2 0x44AB JUMP JUMPDEST PUSH1 0x1 DUP3 ADD SWAP2 POP PUSH2 0x45A8 DUP3 DUP9 PUSH2 0x445E JUMP JUMPDEST PUSH1 0x20 DUP3 ADD SWAP2 POP PUSH2 0x45B8 DUP3 DUP8 PUSH2 0x44F8 JUMP JUMPDEST PUSH1 0x8 DUP3 ADD SWAP2 POP PUSH2 0x45C8 DUP3 DUP7 PUSH2 0x4545 JUMP JUMPDEST PUSH1 0x10 DUP3 ADD SWAP2 POP PUSH2 0x45D8 DUP3 DUP6 PUSH2 0x445E JUMP JUMPDEST PUSH1 0x20 DUP3 ADD SWAP2 POP PUSH2 0x45E8 DUP3 DUP5 PUSH2 0x445E JUMP JUMPDEST PUSH1 0x20 DUP3 ADD SWAP2 POP DUP2 SWAP1 POP SWAP11 SWAP10 POP POP POP POP POP POP POP POP POP POP JUMP JUMPDEST PUSH32 0x4E487B7100000000000000000000000000000000000000000000000000000000 PUSH1 0x0 MSTORE PUSH1 0x11 PUSH1 0x4 MSTORE PUSH1 0x24 PUSH1 0x0 REVERT JUMPDEST PUSH1 0x0 PUSH2 0x4639 DUP3 PUSH2 0x2FDF JUMP JUMPDEST SWAP2 POP PUSH2 0x4644 DUP4 PUSH2 0x2FDF JUMP JUMPDEST SWAP3 POP DUP3 DUP3 ADD SWAP1 POP PUSH16 0xFFFFFFFFFFFFFFFFFFFFFFFFFFFFFFFF DUP2 GT ISZERO PUSH2 0x466C JUMPI PUSH2 0x466B PUSH2 0x45FF JUMP JUMPDEST JUMPDEST SWAP3 SWAP2 POP POP JUMP JUMPDEST PUSH1 0x0 PUSH2 0x467D DUP3 PUSH2 0x2FDF JUMP JUMPDEST SWAP2 POP PUSH2 0x4688 DUP4 PUSH2 0x2FDF JUMP JUMPDEST SWAP3 POP DUP3 DUP3 SUB SWAP1 POP PUSH16 0xFFFFFFFFFFFFFFFFFFFFFFFFFFFFFFFF DUP2 GT ISZERO PUSH2 0x46B0 JUMPI PUSH2 0x46AF PUSH2 0x45FF JUMP JUMPDEST JUMPDEST SWAP3 SWAP2 POP POP JUMP JUMPDEST PUSH32 0x4E487B7100000000000000000000000000000000000000000000000000000000 PUSH1 0x0 MSTORE PUSH1 0x32 PUSH1 0x4 MSTORE PUSH1 0x24 PUSH1 0x0 REVERT JUMPDEST PUSH1 0x0 PUSH32 0xFFFF000000000000000000000000000000000000000000000000000000000000 DUP3 AND SWAP1 POP SWAP2 SWAP1 POP JUMP JUMPDEST PUSH1 0x0 DUP2 SWAP1 POP SWAP2 SWAP1 POP JUMP JUMPDEST PUSH2 0x472C PUSH2 0x4727 DUP3 PUSH2 0x46E5 JUMP JUMPDEST PUSH2 0x4711 JUMP JUMPDEST DUP3 MSTORE POP POP JUMP JUMPDEST PUSH1 0x0 PUSH2 0x473E DUP3 DUP14 PUSH2 0x445E JUMP JUMPDEST PUSH1 0x20 DUP3 ADD SWAP2 POP PUSH2 0x474E DUP3 DUP13 PUSH2 0x445E JUMP JUMPDEST PUSH1 0x20 DUP3 ADD SWAP2 POP PUSH2 0x475E DUP3 DUP12 PUSH2 0x445E JUMP JUMPDEST PUSH1 0x20 DUP3 ADD SWAP2 POP PUSH2 0x476E DUP3 DUP11 PUSH2 0x445E JUMP JUMPDEST PUSH1 0x20 DUP3 ADD SWAP2 POP PUSH2 0x477E DUP3 DUP10 PUSH2 0x445E JUMP JUMPDEST PUSH1 0x20 DUP3 ADD SWAP2 POP PUSH2 0x478E DUP3 DUP9 PUSH2 0x471B JUMP JUMPDEST PUSH1 0x2 DUP3 ADD SWAP2 POP PUSH2 0x479E DUP3 DUP8 PUSH2 0x445E JUMP JUMPDEST PUSH1 0x20 DUP3 ADD SWAP2 POP PUSH2 0x47AE DUP3 DUP7 PUSH2 0x4545 JUMP JUMPDEST PUSH1 0x10 DUP3 ADD SWAP2 POP PUSH2 0x47BE DUP3 DUP6 PUSH2 0x4545 JUMP JUMPDEST PUSH1 0x10 DUP3 ADD SWAP2 POP PUSH2 0x47CE DUP3 DUP5 PUSH2 0x445E JUMP JUMPDEST PUSH1 0x20 DUP3 ADD SWAP2 POP DUP2 SWAP1 POP SWAP12 SWAP11 POP POP POP POP POP POP POP POP POP POP POP JUMP JUMPDEST PUSH1 0x0 DUP1 DUP4 CALLDATALOAD PUSH1 0x1 PUSH1 0x20 SUB DUP5 CALLDATASIZE SUB SUB DUP2 SLT PUSH2 0x4803 JUMPI PUSH2 0x4802 PUSH2 0x3FAD JUMP JUMPDEST JUMPDEST DUP1 DUP5 ADD SWAP3 POP DUP3 CALLDATALOAD SWAP2 POP PUSH8 0xFFFFFFFFFFFFFFFF DUP3 GT ISZERO PUSH2 0x4825 JUMPI PUSH2 0x4824 PUSH2 0x3FB2 JUMP JUMPDEST JUMPDEST PUSH1 0x20 DUP4 ADD SWAP3 POP PUSH1 0x1 DUP3 MUL CALLDATASIZE SUB DUP4 SGT ISZERO PUSH2 0x4841 JUMPI PUSH2 0x4840 PUSH2 0x3FB7 JUMP JUMPDEST JUMPDEST POP SWAP3 POP SWAP3 SWAP1 POP JUMP JUMPDEST PUSH1 0x0 PUSH1 0x20 DUP3 DUP5 SUB SLT ISZERO PUSH2 0x485F JUMPI PUSH2 0x485E PUSH2 0x2D84 JUMP JUMPDEST JUMPDEST PUSH1 0x0 PUSH2 0x486D DUP5 DUP3 DUP6 ADD PUSH2 0x35C8 JUMP JUMPDEST SWAP2 POP POP SWAP3 SWAP2 POP POP JUMP JUMPDEST PUSH1 0x0 PUSH1 0x20 DUP3 DUP5 SUB SLT ISZERO PUSH2 0x488C JUMPI PUSH2 0x488B PUSH2 0x2D84 JUMP JUMPDEST JUMPDEST PUSH1 0x0 PUSH2 0x489A DUP5 DUP3 DUP6 ADD PUSH2 0x35F4 JUMP JUMPDEST SWAP2 POP POP SWAP3 SWAP2 POP POP JUMP JUMPDEST PUSH1 0x0 PUSH1 0x20 DUP3 DUP5 SUB SLT ISZERO PUSH2 0x48B9 JUMPI PUSH2 0x48B8 PUSH2 0x2D84 JUMP JUMPDEST JUMPDEST PUSH1 0x0 PUSH2 0x48C7 DUP5 DUP3 DUP6 ADD PUSH2 0x36C1 JUMP JUMPDEST SWAP2 POP POP SWAP3 SWAP2 POP POP JUMP JUMPDEST PUSH1 0x0 PUSH2 0x48DB DUP3 PUSH2 0x30B3 JUMP JUMPDEST SWAP2 POP PUSH2 0x48E6 DUP4 PUSH2 0x30B3 JUMP JUMPDEST SWAP3 POP DUP3 DUP3 SUB SWAP1 POP DUP2 DUP2 GT ISZERO PUSH2 0x48FE JUMPI PUSH2 0x48FD PUSH2 0x45FF JUMP JUMPDEST JUMPDEST SWAP3 SWAP2 POP POP JUMP JUMPDEST PUSH32 0x4E487B7100000000000000000000000000000000000000000000000000000000 PUSH1 0x0 MSTORE PUSH1 0x31 PUSH1 0x4 MSTORE PUSH1 0x24 PUSH1 0x0 REVERT JUMPDEST PUSH1 0x0 PUSH1 0x40 DUP3 ADD SWAP1 POP DUP2 DUP2 SUB PUSH1 0x0 DUP4 ADD MSTORE PUSH2 0x494D DUP2 DUP6 PUSH2 0x38F5 JUMP JUMPDEST SWAP1 POP PUSH2 0x495C PUSH1 0x20 DUP4 ADD DUP5 PUSH2 0x3163 JUMP JUMPDEST SWAP4 SWAP3 POP POP POP JUMP JUMPDEST PUSH1 0x0 PUSH1 0x40 DUP3 ADD SWAP1 POP PUSH2 0x4978 PUSH1 0x0 DUP4 ADD DUP6 PUSH2 0x3163 JUMP JUMPDEST PUSH2 0x4985 PUSH1 0x20 DUP4 ADD DUP5 PUSH2 0x2F3C JUMP JUMPDEST SWAP4 SWAP3 POP POP POP JUMP INVALID LOG2 PUSH5 0x6970667358 0x22 SLT KECCAK256 0xBC 0xC6 0xAF DUP13 PUSH13 0x3F4519852459CEC6BDA197C2D 0x29 PUSH17 0xB85D0418D9FDAACC6A4045164736F6C63 NUMBER STOP ADDMOD NOT STOP CALLER "
        },
        "methodIdentifiers": {
          "ADMIN()": "2a0acc6a",
          "DEFAULT_ADMIN_ROLE()": "a217fddf",
          "RELAYER()": "2483e715",
          "acceptOwnership()": "79ba5097",
          "addRelayer(address)": "dd39f00d",
          "admin()": "f851a440",
          "data_request_id_to_result(bytes32)": "08bedbd8",
          "data_request_pool(bytes32)": "f41400c6",
          "data_request_pool_array(uint256)": "14ac8ed8",
          "generateDataRequestId((bytes32,bytes,bytes32,bytes,uint16,bytes,uint128,uint128,bytes))": "c67807e8",
          "generateDataResultId((string,bytes32,bool,uint8,bytes,uint64,uint128,bytes,bytes))": "55c66f39",
          "getDataRequest(bytes32)": "2c1c076b",
          "getDataRequestsFromPool(uint128,uint128)": "b7af1fd3",
          "getDataResult(bytes32)": "b1d6bb97",
          "getRoleAdmin(bytes32)": "248a9ca3",
          "grantRole(bytes32,address)": "2f2ff15d",
          "hasRole(bytes32,address)": "91d14854",
          "pendingAdmin()": "26782247",
          "postDataRequest((bytes32,bytes,bytes32,bytes,uint16,bytes,uint128,uint128,bytes))": "3e8389dc",
          "postDataResult((string,bytes32,bool,uint8,bytes,uint64,uint128,bytes,bytes))": "feb62024",
          "removeRelayer(address)": "60f0a5ac",
          "renounceRole(bytes32,address)": "36568abe",
          "revokeRole(bytes32,address)": "d547741f",
          "supportsInterface(bytes4)": "01ffc9a7",
          "transferOwnership(address)": "f2fde38b"
        }
      }
    }
  }
}